:020000040000FA
:1000000000040020E90800007D050000C908000088
:1000100087050000910500009B050000000000001E
:100020000000000000000000000000000D090000BA
:10003000A505000000000000AF050000B9050000A4
:10004000C3050000CD050000D7050000E105000054
:10005000EB050000F5050000FF05000009060000A3
:10006000130600001D0600002706000031060000F0
:100070003B060000450600004F0600005906000040
:10008000630600006D060000770600008106000090
:100090008B060000950600009F060000A9060000E0
:1000A000B3060000BD060000C7060000D106000030
:1000B000DB060000E5060000EF060000F906000080
:1000C000030700000D0700001707000021070000CC
:1000D0002B070000350700003F070000490700001C
:1000E000530700005D07000067070000710700006C
:1000F0007B070000850700008F07000099070000BC
:10010000A30700001FB500F003F88DE80F001FBD26
:1001100000F0E0BB1FB56FF00100009040100390AD
:10012000029001904FF010208069000B420900F00E
:100130001F045DF822300120A04083434DF8223097
:10014000684600F045F91FBDF0B54FF6FF734FF458
:10015000B4751A466E1E11E0A94201D3344600E080
:100160000C46091B30F8027B641E3B441A44F9D14B
:100170009CB204EB134394B204EB12420029EBD17E
:1001800098B200EB134002EB124140EA0140F0BD8F
:10019000DE4992B00446D1E90001CDE91001FF2209
:1001A0004021684600F03CFB94E80F008DE80F000A
:1001B000684610A902E004C841F8042D8842FAD12B
:1001C00010216846FFF7C0FF1090AA208DF8440068
:1001D000FFF7A0FF00F0F3F84FF01024A069102201
:1001E0006946803000F002F9A069082210A900F0E9
:1001F000FDF800F0D8F84FF080510A6949690068AD
:100200004A43824201D8102070470020704710B541
:10021000D0E900214FF0805002EB8103026944696C
:100220006243934209D84FF01022536903EB8103D4
:100230000169406941438B4201D9092010BD5069D1
:10024000401C01D0002010BD0F2010BD70B501680A
:100250000446AF4D4FF01020072952D2DFE801F0DD
:10026000330419293C1E2500D4E902656468294637
:10027000304600F0CDF82A462146304600F0B6F868
:10028000AA002146304600F09FFA002800D0032043
:1002900070BD00F051FB4FF4805007E0201DFFF7C8
:1002A000AAFF0028F4D100F047FB60682860002016
:1002B00070BD241D94E80700920000F085FA002824
:1002C000F6D00E2070BD8069401C12D0201DFFF7B3
:1002D0009EFF0028F6D109E08069401C09D0201D4E
:1002E000FFF789FF0028EDD1606820B12046FFF7B5
:1002F0004FFF042070BDFFF70DFF00F060F800F025
:1003000052F8072070BD10B50C46182802D0012005
:10031000086010BD2068FFF799FF206010BD4FF006
:100320001024A069401C05D0A569A66980353079E4
:10033000AA2808D06069401C2DD060690068401C64
:1003400029D060692CE010212846FFF7FDFE3168B6
:1003500081421CD1A16901F18002C03105E030B1B8
:1003600008CA51F8040D984201D1012000E0002094
:100370008A42F4D158B1286810B1042803D0FEE7AE
:10038000284600F057F862496868086008E000F005
:1003900016F800F008F84FF480500168491C01D0AD
:1003A00000F0A4FAFEE7BFF34F8F5A4801685A4A9B
:1003B00001F4E06111430160BFF34F8FFEE74FF09E
:1003C00010208169491C02D0806900F0AEB87047E6
:1003D000524A01681160121D416811604F4A8168DC
:1003E00010321160111DC068086070472DE9F0419E
:1003F00017460D460646002406E03046296800F000
:10040000A7F8641C2D1D361DBC42F6D3BDE8F08153
:1004100070B50C4605464FF4806608E0284600F0AB
:1004200084F8B44205D3A4F5806405F58055002C0A
:10043000F4D170BD4168044609B1012500E00025F2
:100440004FF010267069A268920000F0BDF9C8B1A3
:10045000204600F01AF89DB17669A56864684FF4EB
:10046000002084420AD2854208D229463046FFF74E
:10047000CFFF2A4621463046FFF7B8FFFFF79FFF20
:10048000FFF791FFFFF746FEF8E72DE9FF414FF038
:100490001024616980680D0B01EB800000F6FF708D
:1004A000010B0020009001900290024603906846E4
:1004B00001230BE0560902F01F0C50F8267003FAD6
:1004C0000CFC47EA0C0740F82670521CAA42F1D3F4
:1004D0000AE04A0901F01F0650F8225003FA06F616
:1004E000354340F82250491C8029F2D3A169090BF9
:1004F0004A0901F01F0150F822408B409C4340F80C
:100500002240FFF765FFBDE8FF8100005C090000A5
:10051000000000200CED00E00400FA050006004099
:10052000144801680029FCD07047134A0221116069
:1005300010490B68002BFCD00F4B1B1D186008687E
:100540000028FCD00020106008680028FCD070470C
:10055000094B10B501221A60064A1468002CFCD021
:10056000016010680028FCD0002018601068002886
:10057000FCD010BD00E4014004E5014008208F4993
:1005800009680958084710208C4909680958084724
:1005900014208A49096809580847182087490968BA
:1005A0000958084730208549096809580847382004
:1005B00082490968095808473C2080490968095858
:1005C000084740207D4909680958084744207B496D
:1005D00009680958084748207849096809580847B0
:1005E0004C20764909680958084750207349096822
:1005F0000958084754207149096809580847582084
:100600006E490968095808475C206C49096809580F
:100610000847602069490968095808476420674904
:100620000968095808476820644909680958084753
:100630006C20624909680958084770205F490968B9
:100640000958084774205D49096809580847782007
:100650005A490968095808477C20584909680958C7
:10066000084780205549096809580847842053499C
:1006700009680958084788205049096809580847F7
:100680008C204E4909680958084790204B49096851
:10069000095808479420494909680958084798208B
:1006A00046490968095808479C204449096809587F
:1006B0000847A0204149096809580847A4203F4934
:1006C000096809580847A8203C490968095808479B
:1006D000AC203A49096809580847B02037490968E9
:1006E00009580847B4203549096809580847B8200F
:1006F0003249096809580847BC2030490968095837
:100700000847C0202D49096809580847C4202B49CB
:10071000096809580847C82028490968095808473E
:10072000CC202649096809580847D0202349096880
:1007300009580847D4202149096809580847D82092
:100740001E49096809580847DC201C4909680958EE
:100750000847E0201949096809580847E420174963
:10076000096809580847E8201449096809580847E2
:10077000EC201249096809580847F0200F49096818
:1007800009580847F4200D49096809580847F82016
:100790000A49096809580847FC20084909680958A6
:1007A00008475FF480700549096809580847000048
:1007B00003480449024A034B704700000000002030
:1007C000680900006809000040EA010310B59B07B2
:1007D0000FD1042A0DD310C808C9121F9C42F8D0AB
:1007E00020BA19BA884201D9012010BD4FF0FF305C
:1007F00010BD1AB1D30703D0521C07E0002010BD72
:1008000010F8013B11F8014B1B1B07D110F8013BFD
:1008100011F8014B1B1B01D1921EF1D1184610BDDE
:1008200002F0FF0343EA032242EA024200F005B865
:100830007047704770474FF000020429C0F01280E3
:1008400010F0030C00F01B80CCF1040CBCF1020F83
:1008500018BF00F8012BA8BF20F8022BA1EB0C0158
:1008600000F00DB85FEAC17C24BF00F8012B00F84E
:10087000012B48BF00F8012B70474FF0000200B574
:10088000134694469646203922BFA0E80C50A0E8B3
:100890000C50B1F12001BFF4F7AF090728BFA0E861
:1008A0000C5048BF0CC05DF804EB890028BF40F82D
:1008B000042B08BF704748BF20F8022B11F0804F6F
:1008C00018BF00F8012B7047014B1B68DB68184705
:1008D0000000002009480A497047FFF7FBFFFFF7B7
:1008E00011FC00BD20BFFDE7064B1847064A10600B
:1008F000016881F30888406800470000680900002B
:10090000680900001F030000000000201EF0040F13
:100910000CBFEFF30881EFF3098188690238007892
:10092000182803D100E00000074A1047074A126860
:100930002C3212681047000000B5054B1B68054AB1
:100940009B58984700BD00000703000000000020EE
:100950005809000004000000001000000000000022
:0809600000FFFFFF0090D0032F
:10100000D80C0020ED8501004D90000053850100B3
:101010004D9000004D9000004D9000000000000039
:1010200000000000000000000000000049860100F0
:101030004D900000000000004D9000004D90000019
:10104000B1860100B78601004D9000004D90000070
:101050004D9000004D9000004D9000004D9000001C
:10106000BD8601004D9000004D900000C386010038
:101070004D900000C9860100CF860100D586010091
:101080004D9000004D9000004D9000004D900000EC
:101090004D9000004D9000004D9000004D900000DC
:1010A0004D900000DB8601004D9000004D90000047
:1010B0004D9000004D9000004D9000004D900000BC
:1010C000E18601004D9000004D9000004D90000021
:1010D0004D9000004D9000004D9000004D9000009C
:1010E0004D9000004D9000004D9000004D9000008C
:1010F0004D9000004D9000004D9000004D9000007C
:101100004D9000004D90000000F002F817F05DFADD
:101110000AA090E8000C82448344AAF10107DA4552
:1011200001D117F052FAAFF2090EBAE80F0013F02E
:10113000010F18BFFB1A43F001031847047A01009E
:10114000247A01000A4410F8014B14F00F0508BF7F
:1011500010F8015B240908BF10F8014B6D1E05D083
:1011600010F8013B6D1E01F8013BF9D1641E03D05C
:10117000641E01F8015BFBD19142E4D3704700008B
:101180000023002400250026103A28BF78C1FBD890
:10119000520728BF30C148BF0B6070471FB500F031
:1011A00031F88DE80F001FBDF0B440464946524665
:1011B0005B460FB402A0013001B50648004700BFEE
:1011C00001BC86460FBC8046894692469B46F0BCD1
:1011D00070470000091100008269034981614FF0E6
:1011E0000100104470470000ED11000001B41EB46E
:1011F00000B510F023FA01B40198864601BC01B095
:101200001EBD000017F0DEB970B51B4C0546092065
:101210002070A01C00F0D3F85920A0802946204659
:10122000BDE8704006F0C4BD06F0CDBD70B50C46FB
:101230001249097829B1A0F160015E2908D3012083
:1012400013E0602804D0692802D043F201000CE0CA
:1012500020CC0B4E94E80E0006EB8000A0F58050E9
:10126000241FD0F8806E2846B047206070BD012052
:10127000704706207047000008000020180000207A
:10128000108701003249884201D2012070470020B6
:10129000704770B50446A0F500002E4EB0F1786F8F
:1012A00002D23444A4F500042948844201D2012525
:1012B00000E0002500F043F848B125B9B44204D35A
:1012C0002548006808E0012070BD002070BD002D99
:1012D000F9D1B442F9D321488442F6D2F3E710B5EC
:1012E0000446A0F50000B0F1786F03D21948044419
:1012F000A4F5000400F023F84FF0804130B1164807
:10130000006804E08C4204D2012003E013488442C8
:10131000F8D2002080F0010010BD10B520B1FFF719
:10132000DEFF08B1012010BD002010BD10B520B1B6
:10133000FFF7AFFF08B1012010BD002010BD084825
:1013400008490068884201D1012070470020704799
:1013500000900100000000201C0000200800002078
:101360004C000020BEBAFECA10B504460021012080
:1013700000F032F800210B2000F02EF80421192093
:1013800000F02AF804210D2000F026F804210E2098
:1013900000F022F804210F2000F01EF80421C843B9
:1013A00000F01AF80621162000F016F80621152084
:1013B00000F012F82046FFF727FF002010BDB021F3
:1013C00001807047FFF730BF002070470A48704720
:1013D000FFF72CBF704770474907090E002804DB50
:1013E00000F1E02080F80014704700F00F0000F1D9
:1013F000E02080F8141D704703F9004230B5FF4D1E
:101400000446062CA9780ED2DFE804F0030E0E0E77
:101410000509FFDF08E0022906D0FFDF04E0032909
:1014200002D0FFDF00E0FFDFAC7030BDF34810B545
:10143000407E4108F14800F11A0005D00BF0C9FBCD
:10144000BDE8104006F04ABB0BF0AAFBF8E730B548
:101450000446A1F120000D460A2847D2DFE800F03B
:1014600005070C19202532373C41FFDF3FE020788B
:1014700020283CD1FFDF3AE0E0488078052836D0CC
:101480002078242833D0252831D023282FD0FFDFFF
:101490002DE0207822282AD0232828D8FFDF26E034
:1014A0002078222823D0FFDF21E0207822281ED0B8
:1014B00024281CD026281AD0272818D0292816D04E
:1014C000FFDF14E02078252811D0FFDF0FE020781F
:1014D00025280CD0FFDF0AE02078252807D0FFDF81
:1014E00005E02078282802D0FFDF00E0FFDF25702C
:1014F00030BD1FB50022ADF800200C88ADF80240C9
:101500004B88ADF80430CA88ADF808208988ADF85A
:1015100006100021ADF80A10ADF80C1080B14FF69E
:10152000FF700621844201D1ADF80210834201D13F
:10153000ADF80410824203D14FF44860ADF80800C2
:1015400068460BF063FC06F0C9FA04B010BD70B534
:1015500014460D460646FFF79CFE60B90DB1A54244
:1015600001D90C2070BD002409E000BF56F824000A
:10157000FFF78FFE08B1102070BD641CE4B2AC42CE
:10158000F4D3002070BD2DE9F04105461F4690467A
:101590000E4600240068FFF7C9FE30B9A988286804
:1015A0000844401EFFF7C2FE10B11020BDE8F081D4
:1015B00028680028A88802D0B84202D850E0002845
:1015C000F4D00920F2E72968085DB8B1671CCA5D4C
:1015D000152A2ED03CDC152A3AD2DFE802F0391267
:1015E000222228282A2A31313939393939393939E9
:1015F00039392200085D30BB641CA4B2A242F9D87C
:1016000033E00228DDD1A01C085C88F80000072820
:1016100001D2400701D40A20C8E7307840F0010029
:1016200015E0C143C90707E0012807D010E00620F4
:10163000BCE70107A1F180510029F5D01846B5E7B4
:101640003078810701D50B20B0E740F00200307000
:101650002868005D384484B2A888A04202D2B0E76E
:101660004FF4485382B2A242ADD800209EE710B595
:101670000278540809D0012243F20223012C07D03A
:10168000022C0DD0032C13D10FE00020087005E0D0
:1016900080790324B4EB901F0AD10A70002010BD9A
:1016A0008079B2EB901F03D1F7E780798009F4D0FD
:1016B000184610BD08B500208DF800004F4890F87E
:1016C000221051B190F8230002280FD003280FD028
:1016D000FFDF00BF9DF8000008BD4848694619308B
:1016E00001F095F80028F5D0FFDFF3E7032000E0D4
:1016F00001208DF80000EDE738B50C460546694637
:1017000001F085F800280DD19DF80010207861F3D4
:101710004700207055F8010FC4F80100A888A4F80C
:101720000500002038BD38B51378C0B1022816D0A6
:1017300033A46D46246800944C7905EB9414247806
:1017400064F34703137003280ED003F0FE001070FB
:101750000868C2F801008888A2F8050038BD23F0A7
:10176000FE0313700228EED1D8B240F00100EEE77C
:1017700002210CF083BC38B50C460978222901D22D
:10178000082038BDADF800008DF8022068460BF047
:101790005FFA06F0A3F9050003D121212046FFF7E7
:1017A00056FE284638BD1CB500208DF80000CDF847
:1017B0000100ADF80500114890F82200022801D080
:1017C000012000E000208DF8070068460BF0AEFA1B
:1017D000002800D0FFDF1CBD2DE9FF478CB000259D
:1017E000BDF8346082461C4690468DF81C50700748
:1017F00003D56068FFF74DFD90B903E0A00100201C
:101800000302FF01FD4F4FF0010997F8220058B184
:1018100097F82300022807D16068FFF787FD18B109
:10182000102010B0BDE8F087300702D5A0898028CD
:1018300015D8700704D4B8F1000F01D0387E70B10C
:10184000E07DC0F300108DF81B00617D072041B1E1
:10185000012906D00229E4D00429E2D117E00720AB
:10186000DFE78DF817908DF819908DF81580606876
:1018700078B107A9FFF7FBFE0028D2D1606850F8C5
:10188000011FCDF80F108088ADF8130005E0062089
:10189000C7E7CDF80F50ADF81350E07B0028F6D124
:1018A000207C0028F3D1607C0028F0D1A07C0028A7
:1018B000EDD1E07CC006EAD18DF800A0BDF834007F
:1018C000ADF80200A0680190A0680290CCA0D0E919
:1018D0000010CDE90A10E07C0AA901EB5010007855
:1018E0008DF80C00FFF7E6FE8DF80D009DF81C004A
:1018F0008DF80E008DF818508DF816508DF81A508E
:1019000009A968460BF0D1FA06F0E8F889E7F0B5C6
:101910008FB000248DF830408DF814408DF834409D
:1019200006468DF82840019402940394049419B15A
:101930000FC901AD85E80F00B04DA878052801D08A
:1019400004280CD101986968884200D120B9039815
:10195000E968884203D110B108200FB0F0BD1F27FD
:101960003B460DAA05A903A8FFF70DFE0028F4D1F8
:101970003B460AAA0CA901A8FFF705FE0028ECD1F6
:101980009DF81400C00701D00A20E6E7A88A4107A5
:1019900008D4A97D31B19DF82810890702D043F2FF
:1019A0000120DAE79DF82810C90709D0400707D4BD
:1019B000288818B144F25061884201D90720CCE749
:1019C0008DF818408DF81960BDF80800ADF81A00C0
:1019D0000198079006A80BF082FA06F07FF800281D
:1019E000BBD18DF820408DF82160BDF81000ADF816
:1019F00022000398099008A80BF090FA06F06EF800
:101A00000028AAD101AC2D1D94E80F0085E80F0035
:101A10000020A2E72DE9FE43040000D1FFDF20787B
:101A2000764E20F00F00801C20F0F0007030207007
:101A300060680178C91F122929D2DFE801F04BE85C
:101A40002809E8E838E7282864E7E62828E7E7E5F2
:101A500086883046FFF78CFE0546304609F092FD39
:101A6000B8B16068807985F83E0021212846FFF7EB
:101A7000EEFC304603F0FBF9304604F0A9FB31469A
:101A8000012010F015F8A87F20F01000A877BDE81D
:101A9000FE83207820F0F000203020700320207298
:101AA000668060688079607206F003FADDE78588F9
:101AB0002846FFF75DFE00B9FFDF606880780128E7
:101AC00000D0FFDF6068817903B02846BDE8F043AD
:101AD00009F08ABE86883046FFF74AFE050000D12D
:101AE000FFDF06F0E6F960683146C088288160684B
:101AF0000089688160684089A88101200FF0D8FFC3
:101B00000020A875C3E780780228C0D000B1FFDFAD
:101B100006F0CFF96568A879AD1C00B9FFDFF7784A
:101B2000B5F80290B046384605F078FF060000D1BF
:101B3000FFDF0022022148460CF097FA040000D192
:101B4000FFDF22212046FFF782FCA17F012060F306
:101B50000101A177298B2181698B6181A98BA181E9
:101B600084F822708DF8080002AA032148460CF080
:101B70007CFA00B9FFDFB088ADF80400B0788DF8CA
:101B8000060001AA052148460CF06FFA00B9FFDFF4
:101B9000B088ADF80000F0788DF802006A460421A4
:101BA00048460CF062FA00B9FFDF062105F1120089
:101BB00000F04AFE08B36879800700D5FFDF697935
:101BC000E07D61F34700E075D5F80600A061688903
:101BD000A083062105F10C0000F036FE10B398F842
:101BE00019104A08617862F347016170D8F81A1039
:101BF000C4F80210B8F81E001DE009E0A0010020A2
:101C000007060504030201001FE02AE025E017E0B3
:101C1000E07D20F0FE00801CE075D5F81200A06188
:101C2000E88AD5E7607820F0FE00801C6070E868E4
:101C3000C4F80200288AE0800320FFF7DFFB26E7D4
:101C40002046BDE8FE4301F0A0BC06F032F916F8CC
:101C5000240F40F00400307019E7BDE8FE4306F0A1
:101C600028B9B178052908D00429E8D106F021F96E
:101C70000220BDE8FE43FFF7C1BB80780028DED01C
:101C8000F07800F0ABFD06F014F90320F1E72DE940
:101C9000F047054600780027000991460C463E466D
:101CA000012874D0022873D007280AD00A2825D02A
:101CB000FFDF00BFA9F800600CB12780668000201C
:101CC000B0E5D5F804C0DFF8B4874FF0010A9CF8FE
:101CD00000004FF6FF7113287AD008DC07280ED0D9
:101CE0000E281FD0112826D0122806D186E01628EB
:101CF0000BD0172859D018286CD02146FBE01227AA
:101D00001026BCF804002146B8E01C270A26ECB3D4
:101D1000BCF80200A0806868007920726868407989
:101D20006072C7E71B27092684B303202072686806
:101D30004088A080BEE79CF802003C28BAD010275B
:101D40002C260CF1020C0CB3BCF80200A080BCF8ED
:101D500018006082BCF818002082BCF81A00A0822B
:101D6000BCF81C00E0829CF8050004F108020CF1AC
:101D70000601FFF7D8FC9CF8040001289AD184F8EA
:101D80000FA00020207608F1040002E00AE06DE0D8
:101D900077E090E80E00D8F81000C4E90930C4E9F3
:101DA000071287E7A9F8006089E720271126002C91
:101DB000F8D0A180686804F10A028078207268680F
:101DC000807A60726968C878091DFFF7ACFC71E71A
:101DD00029E0FFE721270A26002CE3D0BCF8020007
:101DE000A08068680079207268684079607298F80D
:101DF000241021F0040188F824105BE722270B2629
:101E0000002CCFD0BCF80400A080686880782072D5
:101E10006868807900F027FD60726868C07900F01A
:101E200022FDA07246E726271C26002CBAD0A180EE
:101E30006868C078607268688079A07208F10400F0
:101E400090E80E00D8F81000C4E90530C4E9031288
:101E5000686880783C2803D0432804D0FFDF29E756
:101E600084F808A026E70220207223E7287A0228B7
:101E700001D0FFDF1EE712271026688800F0D1FC92
:101E800018E7287AB0B3012835D0022833D00328C8
:101E900001D0FFDF0EE711270926002C82D0B5F80C
:101EA00002804046FFF764FC90F822A0A4F804806A
:101EB000687A2072042140460CF0F2F80521404671
:101EC0000CF0EEF8002140460CF0EAF80121404603
:101ED0000CF0E6F8032140460CF0E2F802214046FF
:101EE0000CF0DEF8062140460CF0DAF8504600F01F
:101EF00075FCDFE6FFE72846BDE8F04701F07CBC53
:101F000070B5012801D0FFDF70BD8DB22846FFF704
:101F10002FFC040000D1FFDF20782128F4D005F049
:101F2000C5FF80B1017821F00F01891C21F0F0017B
:101F3000103101700221017245800020A075BDE8BA
:101F4000704005F0B6BF21462846BDE87040132218
:101F500011E42DE9F04116460C00804600D1FFDF68
:101F6000307820F00F00801C20F0F000103030702E
:101F70002078022802D0FFDFBDE8F0814046FFF75D
:101F8000F7FB050000D1FFDF61884FF6FF700027E7
:101F9000814202D1A288824203D0814201D1A0882D
:101FA00048B105F086FF2068B0606068F060208965
:101FB0003082AF75E0E7A87D0128DDD178230022CB
:101FC00041460FF0CBFC0220A875D5E738B5054691
:101FD0000C460846FFF75DF968B9203D062D30D262
:101FE000DFE805F00305222F271B062038BD6068B7
:101FF000FFF793F908B1102038BD618820886A4640
:102000000BF0E2F805F06AFD0028F5D161680029BF
:10201000F2D0BDF800200A8038BDA07800F00101A0
:1020200020880BF002F908E02068BDE8384001F094
:1020300018BE618820880BF060F8BDE8384005F0D4
:102040004DBD072038BD70B505460C460846FFF764
:1020500046F908B1102070BD202D07D0212D0DD0DC
:10206000222D0BD0252D09D0072070BD2088A11C62
:102070000AF042FEBDE8704005F030BD062070BD9C
:10208000FE481930704708B52821FC4816F039FA87
:102090000120FFF7B3F9F94968461A3105F09CFEB3
:1020A000F6489DF80020417E62F3470121F00101CE
:1020B0004176002180F822104FF4617101840221E1
:1020C00080F82310FFF7B2F900B1FFDF00F0FCFB4E
:1020D00001F02EFA08BD10B50C464021204616F03E
:1020E000EEF9A07F20F00300A077202020700020D0
:1020F000A07584F8230010BD70472DE9FC41074608
:10210000FFF7C7F810B11020BDE8FC81DB4E06F1E7
:102110001901D6F819000090B6F81D50ADF804501A
:10212000F47F8DF806403846FFF7E6FA0028EBD139
:10213000FFF77CF90028E7D0009946F8191FB58011
:10214000B471E1E710B50446FFF7C9F808B11020F3
:1021500010BDCA48C9492246407E1A314008FFF7DF
:10216000E2FA002010BD3EB504460D460846FFF7D2
:10217000B6F808B110203EBD14B143F204003EBDD4
:10218000BE488078052803D0042801D008203EBD31
:10219000694602A809F0A5FD2A4669469DF808008F
:1021A000FFF7C1FA00203EBDFEB50D4604004FF01A
:1021B000000712D00822FFF7CAF9002812D1002622
:1021C00009E000BF54F826006946FFF750FA0028DE
:1021D00008D1761CF6B2AE42F4D30AF039FC10B145
:1021E00043F20320FEBDA54E3776FCB100271AE06E
:1021F00054F8270002A9FFF73AFA00B1FFDF9DF873
:1022000008008DF8000054F8270050F8011FCDF8A1
:1022100001108088ADF8050068460AF03EFC00B168
:10222000FFDF7F1CFFB2AF42E2D335760020FEBD58
:102230002DE9F0478AB01546894604001DD00F46A7
:1022400008222946FFF783F9002810D1002612E062
:1022500054F826006946103000F0D9FA002806D15B
:102260003FB157F82600FFF714F810B110200AB05C
:1022700026E5761CF6B2AE42EAD30026A5F10108A7
:102280001CE000BF06F1010A0AF0FF0712E000BFE0
:1022900054F82600017C4A0854F827100B7CB2EB56
:1022A000530F05D106221130113116F05DF858B1E7
:1022B0007F1CFFB2AF42EBD30AF0FF064645E1DBDD
:1022C0004E4624B1012003E043F20520CFE7002071
:1022D0000AF002FC10B90AF00BFC10B143F2042022
:1022E000C5E75CB300270DF1170825E054F8270077
:1022F0006946103000F08BFA00B1FFDF54F8270078
:10230000102250F8111FCDF801108088ADF805009B
:1023100054F827100DF1070016F052F896B156F850
:1023200027101022404616F04BF868460AF09AFB38
:1023300000B1FFDF7F1CFFB2AF42D7D3FFF733FA04
:10234000002094E7404601F080FCEEE730B585B010
:102350000446FEF79EFF18B96068FEF7E7FF10B16C
:10236000102005B030BD60884AF2B811884206D806
:102370002078424D28B1012806D0022804D0072039
:10238000EFE7FFF753F818E06078022804D003283D
:1023900002D043F20220E4E785F82300C1B2002016
:1023A0000090ADF8040002292CD0032927D0FFDFCC
:1023B00068460AF00EFC05F091FB0028D1D1606858
:1023C00001F036FC207858B101208DF800000DF1A5
:1023D000010001F03AFC68460AF080FF00B1FFDF1F
:1023E000207885F82200FFF7DEF9608860B1288444
:1023F00080B20AF069FB00B1FFDF0020B1E78DF881
:102400000500D5E74020FAE74FF46170EFE710B51B
:102410000446FEF764FF20B9606838B1FEF77DFF1F
:1024200008B1102010BD606801F00FFC134830F8AF
:10243000201F6180C178617080782070002010BDFD
:102440002DE9F843144689460646FEF748FFB8B919
:102450004846FEF76BFF98B92046FEF767FF78B94C
:10246000064DA878012800D154B13178FF2909D050
:1024700061B143F20400BDE8F8830000A001002030
:102480001020F8E7012801D00420F4E7CCB3052898
:1024900011D004280FD06946204600F0EFF900283B
:1024A000E9D1217D49B1012909D0022909D00329A7
:1024B00009D00720DFE70820DDE7024604E001221B
:1024C00002E0022200E00322804623461746002055
:1024D0000099FFF781F90028CDD1A0892880A07B41
:1024E000E875BDF80000A882AF75BDF800100907B7
:1024F00001D5A18931B1A1892980C00704D0032069
:1025000003E006E08021F7E70220FEF777FF86F878
:1025100000804946BDE8F8430020FFF7F8B92DE9EF
:10252000FC41E84C06460D46A078022803D003285B
:1025300001D00820E8E516B143F20400E4E50620E6
:102540000BF050FD10B9A078032849D00DF0ACFC79
:1025500007460EF07DFE381A00F0FF0806200BF04B
:1025600039FD074606200BF03DFD391AA0780428F6
:1025700009D000221144A8EB010111F0FF0F04D093
:10258000032804D00DE00122F4E71320BCE528461F
:1025900005F044FA10B3407810B3284605F02DFD3D
:1025A000E570FFF787F809F0E7FA01208DF80000E1
:1025B0008DF801008DF802602088ADF80400E07D00
:1025C0008DF8060068460AF05BFD05F087FA0028E2
:1025D000B0D1A078032805D0042010E0052093E5B1
:1025E000122091E5E07805F019FA040000D1FFDF30
:1025F000607800B9FFDF6078401E60700520FEF74C
:10260000FDFE002080E51CB510B143F204001CBDA6
:10261000AC4CA078042803D0052801D008201CBDAC
:1026200000208DF8000001218DF801108DF80200C6
:1026300068460AF025FD05F051FA0028EFD1A07890
:10264000052805D05FF00200FEF7D8FE00201CBD73
:10265000E07800F0C3F80320F6E72DE9FC4180465E
:102660000D4603260846FEF761FE08B110204BE533
:102670004046FFF77DF8040004D02078222804D2D9
:10268000082041E543F202003EE5A07F00F0030789
:102690003DB1012F0AD000202946FEF72AFF06008F
:1026A000E5D1012F04D0FFDF30462DE50120F3E70F
:1026B000A07D2946022801D011B107E0112023E5B1
:1026C000684600F00EFA0028D1D16946404609F06C
:1026D0006BF80600E8D10120A075E5E770B50C465F
:1026E0000546FFF745F8010005D022462846BDE81B
:1026F0007040FFF740B843F2020070BD10B50128EA
:1027000007D1704B9B78012B00D011B143F204002C
:1027100010BD0AF00BFABDE8104005F0DFB9012347
:1027200000F066B800231A46194600F061B870B58B
:10273000064615460C460846FEF7D1FD18B9284650
:10274000FEF7CDFD08B1102070BD2A462146304667
:102750000AF022FD05F0C2F90028F5D121787F2981
:10276000F2D1052070BD7CB505460C460846FEF743
:1027700090FD08B110207CBD2846FEF7F9FF20B17E
:102780000078222804D208207CBD43F202007CBDE0
:102790004C4890F82400400701D511207CBD2178D9
:1027A000C80802D16078C20801D007207CBD890822
:1027B00001D1800801D006207CBDADF80050207802
:1027C0008DF8020060788DF803000220ADF8040057
:1027D00068460AF008FB05F081F97CBD10B505F0EC
:1027E0001DF9040000D1FFDF6078401C607010BD4F
:1027F0001CB5ADF800008DF802308DF803108DF88F
:10280000042068460AF097FC05F068F91CBD0278C0
:10281000520804D0012A02D043F202207047FEF78A
:1028200026BF70B50C0006460DD0FEF7A1FF0500CF
:1028300000D1FFDFA68028892081288960816889EE
:10284000A081A889E08170BD10B500231A4603E07D
:10285000845C2343521CD2B28A42F9D30BB10020CC
:1028600010BD012010BD00B530B1012803D00228F1
:1028700001D0FFDF002000BDFF2000BD00220A8044
:1028800092B222F060020A800078062817D2DFE8B0
:1028900000F0160306090C1142F0110007E042F0A7
:1028A0001D0009E042F0150006E042F0100040F083
:1028B000020001E042F0100008800020704707206D
:1028C00070470000A0010020FE4800210160416027
:1028D000018170472DE9F743044692B09146406864
:1028E000FEF71BFD40B16068FEF720FD20B960785F
:1028F00000F00300022801D0012000E00020F14E8A
:1029000030724846FEF7C5FC18B1102015B0BDE87E
:10291000F08349460120FEF7ECFD0028F6D10125A1
:102920008DF842504FF4C050ADF84000002210A97D
:10293000284603F015FF0028E8D18DF842504FF4E7
:1029400028504FF00008ADF8400047461C2168466B
:10295000CDF81C8015F0D5FD9DF81C0008AA20F0CC
:102960000F00401C20F0F00010308DF81C00207883
:102970008DF81D0061789DF81E0061F3420040F063
:1029800001008DF81E009DF800000AA940F0020029
:102990008DF800002089ADF83000ADF83270608904
:1029A00007AFADF834000B97606810AC0E900A9436
:1029B000684603F0C8FC0028A8D1BDF8200030808C
:1029C0008DF8425042F60120ADF840009DF81E00FF
:1029D00008AA20F00600801C20F001008DF81E00DF
:1029E0000220ADF83000ADF8340013A80E900AA90B
:1029F000684603F0A8FC002888D1BDF8200070804C
:102A0000311D484600F033F9002887D18DF8425037
:102A100042F6A620ADF840001C216846CDF81C8087
:102A200015F06FFD9DF81C00ADF8345020F00F003C
:102A3000401C20F0F00010308DF81C009DF81D00A7
:102A400008AA20F0FF008DF81D009DF81E000AA9BD
:102A500020F0060040F00100801C8DF81E009DF85B
:102A600000008DF8445040F002008DF80000CDE9E0
:102A70000A4711A80E90ADF83050684603F063FC89
:102A8000002899D1BDF82000F08000203EE73EB537
:102A900004460820ADF800002046FEF7FAFB08B116
:102AA00010203EBD21460120FEF723FD0028F8D16D
:102AB0002088ADF804006088ADF80600A088ADF865
:102AC0000800E088ADF80A007E4801AB6A468088BD
:102AD000002104F041F8BDF800100829E1D00320DE
:102AE0003EBD1FB50446002002900820ADF8080046
:102AF000CDF80CD02046FEF7CCFB10B1102004B06E
:102B000010BD704802AA81884FF6FF7004F066FA83
:102B10000028F4D1BDF80810082901D00320EEE701
:102B2000BDF800102180BDF802106180BDF80410CE
:102B3000A180BDF80610E180E1E701B582B0022076
:102B4000ADF800005F4802AB6A464088002104F0FF
:102B500003F8BDF80010022900D003200EBD1CB5FB
:102B6000002100910221ADF800100190FEF7B7FBA3
:102B700008B110201CBD53486A4641884FF6FF70CB
:102B800004F02CFABDF800100229F3D003201CBD7C
:102B9000FEB54C4C06461546207A0F46C00705D0B8
:102BA0000846FEF776FB18B11020FEBD0F20FEBDD3
:102BB000F82D01D90C20FEBD3046FEF76AFB18BB8C
:102BC000208801A903F0C4F80028F4D130788DF8EA
:102BD0000500208801A903F09DFF0028EBD100909B
:102BE0009DF800009DF8051040F002008DF80000EF
:102BF000090703D040F008008DF8000020886946DE
:102C000003F025FF0028D6D1ADF8085020883B46B8
:102C100002AA002103F0A0FFBDF80810A942CAD003
:102C20000320FEBD7CB50546002000900190088879
:102C3000ADF800000C4628460195FEF76EFB18B96A
:102C40002046FEF74CFB08B110207CBD15B1BDF845
:102C5000000050B11B486A4601884FF6FF7004F02F
:102C6000BDF9BDF8001021807CBD0C207CBD30B5C5
:102C700093B0044600200D460090142101A815F0E1
:102C800040FC1C2108A815F03CFC9DF80000CDF884
:102C900008D020F00F00401C20F0F00010308DF81C
:102CA00000009DF8010020F0FF008DF801009DF864
:102CB000200040F002008DF8200001208DF8460031
:102CC00002E00000C801002042F60420ADF84400F4
:102CD00011A801902088ADF83C006088ADF83E0056
:102CE000A088ADF84000E088ADF842009DF80200F1
:102CF00006AA20F00600801C20F001008DF80200DA
:102D00000820ADF80C00ADF810000FA8059001A93F
:102D100008A803F018FB002803D1BDF8180028808C
:102D2000002013B030BD00004FF0E0214FF4004010
:102D3000C1F88001BFF34F8FBFF36F8F00F021B850
:102D400010B5044600F01DF8002C09D0124A1248B4
:102D500012491432124B012C03D0022C07D0FFDF92
:102D600010BD0224046011604FF0407004E00324A1
:102D7000046011604FF40000186010BD00B5FFDF63
:102D800000BD054800210160016005494FF06070F9
:102D9000091D08607047000000F50040480200204F
:102DA00004F501400DF077BF0449002008604FF0A2
:102DB000E0210220C1F8800270470000FC1F0040A3
:102DC00010B50D2000F06FF8C4B26FF0040000F0F1
:102DD0006AF8C0B2844200D0FFDF3A49012008609F
:102DE00010BD70B50D2000F040F8374C0020C4F83D
:102DF00000010125C4F804530D2000F047F82560B8
:102E00004FF0E0216014C1F8000170BD10B50D2035
:102E100000F02BF82C48012141600021C0F800117E
:102E2000BDE810400D2000F031B8274910B5D1F8A9
:102E30000001012801D0FFDF10BD2248001D0068FD
:102E40000022C0B2C1F80021BDE810400EF070BBF6
:102E500010B51D48D0F800110029FBD0FFF7E5FFA1
:102E6000BDE810400D2000F011B800280DDB00F087
:102E70001F02012191404009800000F1E020C0F8CC
:102E80008011BFF34F8FBFF36F8F7047002809DBAE
:102E900000F01F02012191404009800000F1E02074
:102EA000C0F880127047002804DB00F1E02090F8A1
:102EB000000405E000F00F0000F1E02090F8140D90
:102EC0004009704704D5004000D00040704770476B
:102ED0007047704770477047704700004FF0E0211F
:102EE0004FF00070C1F8800101F5C071BFF34F8F42
:102EF000BFF36F8FC1F80001334B802283F80024A9
:102F000041F8800C704700B5024604202F4903E0C9
:102F100001EBC0031B792BB1401EC0B2F8D2FFDF1A
:102F2000FF2000BD41F8302001EBC00100224A71B2
:102F30008A7101220A7100BD244A002102EBC000FF
:102F40000171704710B50446042800D3FFDF1F4805
:102F500000EBC4042079012800D0FFDF6079A1795B
:102F6000401CC0B2814200D060714FF0E0214FF0B0
:102F70000070C1F8000210BD70B51348042590F828
:102F80000004124E4009124C042818D0FFDF16E04E
:102F9000217806EBC1000279012A08D142798379B0
:102FA0009A4204D04279827156F8310080472078E5
:102FB000401CC0B22070042801D3002020706D1E78
:102FC000EDB2E5D270BD000019E000E094040020ED
:102FD000480000200348044A0168914201D10021C1
:102FE000016070474C000020BEBAFECA70477047AF
:102FF00070477047704770477047704770470000D0
:103000002CFFFFFFDBE5B15100900100B000FFFF96
:103010007000000068915B008308DF2FACFED6399A
:1030200029D64B9DC15EF1868A16B47C10B5044644
:10303000FEF72FF908B1102010BD2078C0F3021060
:10304000042807D86078072804D3A178102901D86C
:10305000814201D2072010BDE078410706D42179D2
:103060004A0703D4000701D4080701D5062010BD84
:10307000002010BD70B514460D46064604F016FF3C
:1030800080B10178182221F00F01891C21F0F00194
:10309000A03100F8081B214615F0D7F9BDE87040B3
:1030A00004F007BF29463046BDE870401322FEF702
:1030B00062BB2DE9F047064608A8894690E830042F
:1030C0001F4690461421284615F01BFA0021CAF825
:1030D0000010B8F1000F03D0B9F1000F03D114E0D4
:1030E0003878C00711D02068FEF7F9F8C0BBB8F1F6
:1030F000000F07D120681230286020681430686003
:103100002068A8602168CAF800103878800724D5A4
:103110006068FEF702F918BBB9F1000F21D0FEF785
:10312000AFFF0168C6F868118188A6F86C11807934
:1031300086F86E0101F033FAF84FEF60626862B111
:1031400096F8680106F2691140081032FEF7EBFAB2
:1031500010223946606815F033F90020BDE8F08789
:1031600006E0606820B1E8606068C6F86401F4E7D2
:103170001020F3E730B5054608780C4620F00F0024
:10318000401C20F0F001103121700020607095F893
:10319000230030B104280FD0052811D0062814D000
:1031A000FFDF20780121B1EB101F04D295F8200039
:1031B00000F01F00607030BD21F0F000203002E010
:1031C00021F0F00030302070EBE721F0F0004030CB
:1031D000F9E7F0B591B0022715460C4606463A4687
:1031E000ADF80870082103AB08F0D0F8049000286F
:1031F00010D004208DF804008DF80170E034099699
:1032000005948DF818500AA968460CF027FC00B107
:10321000FFDF012011B0F0BD2DE9F84F0646808A8E
:103220000C4680B28246FEF7A3FA0546BB4F3078C3
:10323000203F4FF002094FF000080F287CD2DFE852
:1032400000F07BA39D082C5B6A7CBADAFD97489757
:103250009700012150460AF011FF040000D1FFDF62
:1032600097F85C00C00701D0386E0BE0032104F131
:103270001D000EF03EF9D4F81D00A949B0FBF1F293
:1032800001FB1200C4F81D0070686067B068A06799
:103290002878252872D0FFDF70E0012150460AF01F
:1032A000EDFE060000D1FFDF3078810702D52978D6
:1032B000252904D040F001003070BDE8F88F84F873
:1032C0000090307F207106F11D002D36C4E9020602
:1032D000F3E7012150460AF0D1FE050000D1FFDFDF
:1032E0002878C10604D5072020703D356560E4E7E5
:1032F00040F008002870E0E7E87F000700D5FFDF16
:10330000307CB28800F0010301B05046BDE8F04FB8
:10331000082108F071B905B9FFDF716821B11022E9
:1033200005F1240015F04CF828212846FEF78FF807
:10333000307A85F82000C0E7F8E0012150460AF015
:103340009DFE050000D1FFDF022105F185000EF092
:10335000D0F80420207005F5B4706060B5F88500E1
:1033600020826E4810387C356561C4E90270A4E79C
:10337000012150460AF082FE00B9FFDF324629469D
:103380005046BDE8F84F75E605B9FFDF28782128DB
:1033900093D93079012803D1E87F40F00800E8771D
:1033A000324629465046FFF765FE2846BDE8F84FED
:1033B0002321FEF74CB83279A28004F108030821DA
:1033C000504607F0E3FFE06010B10520207074E77D
:1033D0004546012150460AF051FE040000D1FFDFAE
:1033E00004F1620102231022081F0AF0ECFC0570B0
:1033F0003179417061E7012150460AF03FFE040037
:1034000000D1FFDF94F8840000F00300012859D1B7
:10341000E87F10F0010103D194F8A000C0072AD082
:10342000D4F8602132B394F88330107C63F38700C2
:103430001074AA7FD30963F3410000E072E0D4F86E
:1034400060211074D4F8602161F30000107491B110
:10345000D4F86001102205F12401883414F0B0FF83
:10346000207E40F001002076207820F0010004F852
:10347000880919E0C1B994F88800C00714D0D4F8BD
:103480005C0188B194F88330027C63F38702027494
:10349000A87FC309D4F85C0163F341020274D4F835
:1034A0005C0161F30002027494F88800800709D57A
:1034B00094F87C00D4F86421400804F17D011032B6
:1034C000FEF731F98DF8009094F884006A4600F018
:1034D00003008DF8010094F888108DF8021094F81C
:1034E000A0008DF803002946504601F041F82878E5
:1034F000252805D0212807D0FFDF2878222803D9E6
:1035000022212846FDF7A3FF012150460AF0C8FDFD
:1035100000283FF4DDAEFFDFCFE60000F40100201D
:1035200040420F00716881F80180C6E6FFDFC4E603
:1035300070B5FE4C002584F85C5025660CF05BFAF3
:1035400004F11001204604F06DFC84F8305070BD89
:1035500070B50D46FEF70CF9040000D1FFDF4FF403
:10356000B871284614F0CDFF2434012105F1E000A4
:103570002C610CF041FA002800D0FFDF70BD0A4634
:10358000014602F1E0000CF057BA70B505464068FC
:1035900086B00178082906D00B2933D00C292FD00A
:1035A000FFDF06B070BD46883046FEF7E1F8040044
:1035B00000D1FFDF20782128F3D028281BD16868AC
:1035C00002210C3000F09FFFA8B168680821001D9F
:1035D00000F099FF78B104F12401304609F052FD62
:1035E00004F07CFA00B1FFDF06B02046BDE8704071
:1035F0002921FDF72CBF06B0BDE8704004F059BC8E
:1036000001218171686886883046FEF7B1F80400B0
:1036100000D1FFDF20782128C3D06868817909B103
:10362000807808B1FFDFBCE704F043FCA07F000610
:1036300023D5E07FC00705D094F8200000F01F00DC
:10364000102818D05FF0050084F82300207829287E
:1036500015D02428A5D1314604200EF029FA2221C4
:103660002046FDF7F4FE012130460AF019FD00283E
:1036700097D0FFDF95E70620E6E70420E4E7012185
:1036800030460AF0FBFC050000D1FFDF2521204673
:10369000FDF7DDFE03208DF80000694605F1E0002E
:1036A0000CF0C1F90228BED00028BCD0FFDF78E7BB
:1036B0002DE9F04788B09A46164688468146FEF7BF
:1036C00057F805003AD02878222837D3232835D058
:1036D000E87F000732D40027012148460AF0CEFCDB
:1036E000040005D10121002248460AF0BEFC044630
:1036F000694600F064FF009800B9FFDF00983CB114
:10370000E03404612878222804D0242802D005E07F
:10371000076103E025212846FDF799FE0098012165
:103720004170C0F824908680C0E9028A01A90CF09B
:1037300095F9022802D0002800D0FFDF08B00DE57F
:1037400070B586B00546FEF713F80078222814D924
:10375000012128460AF092FC04002CD1FFDF2AE068
:10376000B4F85E0004F1620630440178427829B171
:1037700021462846FFF72DFDB0B912E7ADF8042029
:103780000821284602AB07F001FE03900028F4D080
:1037900005208DF80000694604F1E0000CF043F9C3
:1037A000022801D000B1FFDF02231022314604F1CC
:1037B0005E000AF03EFBB4F860000028D0D1F0E6CD
:1037C00010B586B00446FDF7D3FF0078222811D942
:1037D000012120460AF052FC040000D1FFDF062040
:1037E0008DF80000694604F1E0000CF01CF9002897
:1037F00000D0FFDF06B010BD2DE9F84F0546007878
:103800000C460027010904F1080090463E46BA46DE
:10381000009002297ED0072902D00A2909D142E06E
:1038200068680178082905D00B292CD00C292AD0EA
:10383000FFDF72E114271C26002C6CD04088A0808A
:10384000FDF796FF5FEA000900D1FFDF99F8170046
:1038500009F118014008009AFDF765FF6868808942
:10386000208268684168C4F812108068C4F81600A5
:10387000A07E20F0060040F00100A07699F81E001E
:1038800040F020014FE01A270A26002CD5D080886E
:10389000A080FDF76DFF050000D1FFDF28460099ED
:1038A000FFF768FC39E10CB1A88BA080287A4FF0B3
:1038B000010B0B287ED006DC01287CD0022808D022
:1038C000032804D137E00D2876D00E2875D0FFDF0D
:1038D00023E11E270926002CAFD0A088FDF748FF62
:1038E0005FEA000900D1FFDF287B00F00300012818
:1038F000207A1DD020F001002072297B890861F315
:1039000041002072297BC90861F382002072297B63
:10391000090901E0F7E0AEE061F3C300207299F815
:103920001E0040F0400189F81E10F6E0D40100208E
:1039300040F00100E0E713270D26002CA6D0A08858
:10394000FDF716FF81460121A0880AF097FB0500CC
:1039500000D1FFDF686F817801F003010129217A2E
:1039600050D021F00101217283789B0863F341015B
:1039700021728378DB0863F38201217283781B094B
:1039800063F3C3012172037863F306112172437854
:1039900063F3C711217284F809A0C178A17202797A
:1039A000E17A62F30001E1720279520862F34101A7
:1039B000E17203E029E067E04EE05FE002799208FF
:1039C00062F38201E1720279D20862F3C301E1720B
:1039D0004279217B62F3000121734279520862F33C
:1039E000410121734279920862F382012173407987
:1039F000C00860F3C301217399F8000023282AD975
:103A0000262139E041F00101ADE71827102694B3D3
:103A1000A088FDF7ADFE00900121A0880AF02EFBE2
:103A20005FEA000900D1FFDFE868A06099F80000B4
:103A300040F0040189F8001099F80100800708D5CA
:103A400084F80CB000980078232866D927210098C4
:103A500052E084F80CA060E015270F265CB1A08826
:103A6000FDF786FE81460622E868009907F012FC01
:103A700084F80EB085E042E048463DE0162709266E
:103A8000ECB3287B207248E0287B19270E26B4B3BC
:103A9000C4F808A0A4F80CA0012807D0022808D078
:103AA00003280CD004280AD0FFDF15E084F808B002
:103AB00001E002202072607A20F003000BE0697BB5
:103AC000042801F00F0141F080012172F3D1607AE6
:103AD00020F00300401C6072A088FDF749FE0546F7
:103AE0000078212819D0232800D0FFDF0121A088E9
:103AF0000AF0D6FA22212846FDF7A9FC0DE0FFE7DF
:103B0000A8F800600EE00CB16888A080287A10B395
:103B1000012809D002283AD0FFDFA8F800600CB1D4
:103B200027806680002006E415270F26002CE7D0AA
:103B3000A088FDF71DFE0121A0880AF09FFA05006C
:103B400000D1FFDFD5F81D000622009907F0A2FB87
:103B500084F80EA0E1E717270926002CD0D0A08812
:103B6000FDF706FE81460121A0880AF087FA0500CC
:103B700000D1FFDF6878800701D5022000E0012036
:103B8000207299F800002328C7D9272174E7192744
:103B90000E26002CB4D0A088FDF7EAFD5FEA0009EC
:103BA00000D1FFDFC4F808A0A4F80CA084F808A096
:103BB000A07A40F00300A07299F81E10C90961F3C1
:103BC0008200A07299F81F2099F81E1012EAD11FE6
:103BD00005D099F8201001F01F01102925D020F000
:103BE0000800A07299F81F10607A61F3C300607238
:103BF000697A01F0030101298FD140F0040060725D
:103C0000E87A217B60F300012173AA7A607B62F37A
:103C100000006073EA7A520862F341012173A97AC5
:103C2000490861F34100607377E740F00800D8E786
:103C300010B5F84C30B10146102204F1200014F008
:103C4000BFFB012084F8300010BD10B5044600F021
:103C5000A6FCF04920461022BDE81040203114F0A7
:103C6000AFBB70B5EB4D06004FF0000412D0FDF76E
:103C700010FB08B110240BE00621304607F0F1FAE2
:103C8000411C04D02866012085F85C0000E0072470
:103C9000204670BD0020F7E7007810F00F0204D036
:103CA000012A05D0022A0CD110E0000909D10AE04E
:103CB0000009012807D0022805D0032803D00428D2
:103CC00001D0072070470870002070470620704719
:103CD00005282AD2DFE800F003070F171F00087835
:103CE00020F0FF001EE0087820F00F00401C20F0BC
:103CF000F000103016E0087820F00F00401C20F093
:103D0000F00020300EE0087820F00F00401C20F07A
:103D1000F000303006E0087820F00F00401C20F062
:103D2000F0004030087000207047072070472DE9F0
:103D3000F043804687B00D464FF000090846FDF776
:103D4000F5FAA8B94046FDF713FD060003D0307818
:103D500022280BD104E043F2020007B0BDE8F08353
:103D600035B1B07FC10601D4000703D50820F4E7C0
:103D70001020F2E7F07F000701D50D20EDE70027C6
:103D8000012140460AF07AF9040006D101210022FF
:103D900040460AF06AF9040005D0694600F00FFCBD
:103DA000009818B901E00420D7E7FFDF009802214E
:103DB000E0344170C0F82480446107810121017121
:103DC000297801F00102017E62F3010101762A786F
:103DD000520862F3820101762A78920862F3C301E5
:103DE00001762A78D20862F3041101762421304644
:103DF000FDF72DFB01A900980BF030FE022801D041
:103E000000B1FFDF4846A8E72DE9FF4F0E46824983
:103E1000904697B09A4607C914AB4FF0000983E863
:103E200007001798FDF7A4FC050006D0287826287F
:103E300006D008201BB0BDE8F08F43F20200F9E77E
:103E400026B94046FFF7F2F80028F3D10121179870
:103E50000AF014F9040000D1FFDF852E27D007DC1B
:103E6000EEB1812E1DD0822E1DD0832E08D11CE0F4
:103E7000862E1ED0882E1ED0892E1ED08A2E1ED0B1
:103E80000F2020710F281CD004F010F8D8B10120A9
:103E90008DF83400201D0E902079B0B126E100206D
:103EA000EFE70120EDE70220EBE70320E9E705203B
:103EB000E7E70620E5E70820E3E70920E1E70A2035
:103EC000DFE70720B6E71120B4E798F80000D4E94F
:103ED0001D764208A87F002162F3C710A87798F8E2
:103EE00000008208E87F62F30000E87798F800009D
:103EF000C209607862F34100607098F8000002091E
:103F0000207862F34710207098F80000C2086078AB
:103F100062F30000607098F80100607198F800008A
:103F200000F00102B07862F30100B070AA7FD209FC
:103F300062F38200B070EA7F62F3C300B07062780F
:103F400062F30410B0702278C0F3C00052093270DE
:103F50006278C2F34002727098F80220F2707171B8
:103F60003171B978C1F3C00108405FEA000B2ED06F
:103F70005046FDF78EF978BBDAF80C00FDF789F9A9
:103F800050BBDAF81C00FDF784F928BBDAF80C0006
:103F9000A060DAF81C00E06060787A7842EA5001AC
:103FA00061F341006070B978C0B200EA111161F3A9
:103FB000000060700020207705F117006061681C28
:103FC000A061B07800F00300012806D046E06078D8
:103FD0007A7802EA5001E3E719E0B87800F00300CC
:103FE00001283BD1321D711D404600F097FA31790E
:103FF000387901408DF8281070797A7910408DF861
:10400000300001432AD05046FDF743F930B110206B
:1040100010E70000D4010020848801000AF110009C
:1040200004F5AE7304F18C028DE80D0000210AAB9B
:104030005A462046FFF73DF80028E9D104F5B07252
:1040400004F1A403CDF800A0CDE9013201210CABAD
:104050005A462046FFF72DF80028D9D1607880070E
:1040600022D4B078B978C0F38000C1F3800108434E
:104070001AD0307814AA397832F810204B00DA4080
:1040800002F00309B9F1030F01D14FF00209BBF1AE
:10409000000F09D0012801D0042805D1012901D041
:1040A000042901D14FF00409A87F40F08000A877CF
:1040B000E97F6BF30001E9776078800706D503207C
:1040C000A071BBF1000F11D100202BE00220B9F14B
:1040D000020F1AD0B9F1010F19D0B9F1040F29D08C
:1040E0000020A071A87F20F08000A8772521284615
:1040F000FDF7ADF90DA904F1E0000BF094FC10B14F
:10410000022800D0FFDF002094E6A071DCE7A07158
:104110000D2104F1200014F0F4F9207840F00200A1
:10412000207001208DF84C0013AA2946179800F042
:104130001FFADBE70120A071D8E72DE9F04387B033
:104140009046894604460025FDF712FB070004D07F
:104150003878272804D00820FFE543F20200FCE568
:104160000121204609F08AFF040000D1FFDFA67973
:104170005FEA090005D0012821D0B9F1020F26D14C
:1041800010E0B8F1000F22D1012E05D0022E05D08B
:10419000032E05D0FFDF2DE00C252BE0012529E0C3
:1041A000022527E04046FDF774F8B0B9032E0ED182
:1041B0001022414604F11D0014F002F91AE0012E0C
:1041C00002D0022E03D104E0B8F1000F12D0072074
:1041D000C3E54046FDF75DF808B11020BDE51021AC
:1041E00004F11D0014F06BF90621404607F039F880
:1041F000C4F81D002078252140F0020020703846C8
:10420000FDF725F92078C10713D020F001002070B8
:1042100002208DF8000004F11D0002908DF804507A
:104220006946C3300BF0FFFB022803D010B1FFDF5B
:1042300000E02577002090E530B587B00D460446B4
:10424000FDF796FA60B10121204609F017FF04003E
:104250000CD02846FDF71DF828B1102007B030BD5E
:1042600043F20200FAE72078400701D40820F5E77E
:10427000294604F13D002022054614F0A1F82078DB
:1042800040F01000207001070FD520F008002070CA
:1042900007208DF80000694604F1E00001950BF05D
:1042A000C2FB022801D000B1FFDF0020D6E770B5C5
:1042B0000D460646FDF75CFA18B10078272817D19D
:1042C00002E043F2020070BD0121304609F0D6FE43
:1042D000040000D1FFDFA079022809D16078C0076F
:1042E00006D02A4621463046FEF773FF10B10FE094
:1042F000082070BDB4F860000E280BD204F16201F2
:1043000002231022081F09F05EFD01210170457093
:10431000002070BD112070BD70B5064614460D46D4
:104320000846FCF7B6FF18B92046FCF7D8FF08B1DD
:10433000102070BDA6F57F40FF380ED03046FDF747
:1043400017FA38B1417822464B08811C1846FDF710
:10435000EAF907E043F2020070BD2046FDF7F2FEE5
:104360000028F9D11021E01D0DF0C3F8E21D294607
:1043700004F1170000F033F9002070BD2DE9F04181
:1043800004468AB015460E4600270846FCF7CEFFC5
:1043900018B92846FCF7CAFF18B110200AB0BDE8CA
:1043A000F0812046FDF7E4F95FEA000804D098F8B0
:1043B0000000272810D102E043F20200EEE70121BD
:1043C000204609F05BFE040000D1FFDF20784007A3
:1043D00002D56078800701D40820DFE7D4E91D0109
:1043E000497801B18DB1407800B176B1ADB1EA1D27
:1043F00006A8E16800F0F3F8102206A905F11700FD
:1044000013F0B2FF18B1042707E00720C6E7102217
:10441000E91D04F12D0013F0D3FF2EB11022F11D80
:1044200004F11D0013F0CCFF2078252140F002009C
:1044300020704046FDF70BF82078C10715D020F01A
:104440000100207002208DF8000004F11D00029090
:10445000103003908DF804706946B3300BF0E3FA26
:10446000022803D010B1FFDF00E02777002095E796
:1044700070B50D4606460BB1072070BDFDF778F903
:10448000040007D02078222802D3A07F800604D41D
:10449000082070BD43F2020070BDADB12946304620
:1044A00008F0F0FD03F01AFB297C4A08A17F62F3B3
:1044B000C711A177297CE27F61F30002E277297CB2
:1044C000890884F8201004E0304608F0FEFD03F06F
:1044D00005FBA17F21F02001A17770BD70B50D46CD
:1044E000FDF746F9040005D02846FCF7F8FE20B198
:1044F000102070BD43F2020070BD29462046FEF731
:1045000039FE002070BD04E010F8012B0AB1002034
:104510007047491E89B2F7D20120704710B5C478A0
:104520000B7864F300030B70C478640864F34103F0
:104530000B70C478A40864F382030B70C478E40899
:1045400064F3C3030B700379117863F300011170F6
:1045500003795B0863F34101117003799B0863F3EE
:10456000820111700079C00860F3C301117010BDA1
:1045700070B51546064603F099FC040000D1FFDF34
:10458000207820F00F00801C20F0F00020302070F8
:1045900066802868A060BDE8704003F08ABC10B552
:1045A000134C94F83000002808D104F12001A1F147
:1045B00010000BF07AFA012084F8300010BD10B121
:1045C00090F8B9202AB10A4890F8350018B10020B7
:1045D00003E0B83001E0064834300860704708B5A1
:1045E0000023009313460A4609F043FF08BD00006C
:1045F000D4010020F0B5007B059F1E4614460D46F1
:10460000012800D0FFDF0C2030803A203880002CB9
:1046100008D0287A032806D0287B012800D0FFDFA5
:1046200017206081F0BDA889FBE72DE9F04786B02F
:10463000144691F80C900E9A0D46B9F1010F0BD06B
:104640001021007B2E8A8846052807D0062833D003
:10465000FFDF06B0BDE8F0870221F2E7E8890C2110
:1046600000EB400001EB4000188033201080002C4C
:10467000EFD0E889608100271AE00096688808F189
:10468000020301AA696900F084FF06EB0800801CA0
:1046900007EB470186B204EB4102BDF804009081AC
:1046A0000DF1060140460E320BF075FA7F1CBFB2C9
:1046B0006089B842E1D8CCE734201080E889B9F1AC
:1046C000010F11D0122148430E301880002CC0D0A9
:1046D000E88960814846B9F1010F00D002202073BB
:1046E00000270DF1040A1FE00621ECE70096688818
:1046F00008F1020301AA696900F04BFF06EB08000C
:10470000801C86B2B9F1010F12D007EBC70004EB91
:104710004000BDF80410C18110220AF102011030DE
:1047200013F04EFE7F1CBFB26089B842DED890E71E
:1047300007EB470104EB4102BDF80400D0810AF108
:104740000201404610320BF026FAEBE72DE9F04764
:104750000E4688B090F80CC096F80C80378AF58920
:104760000C20109902F10C044FF0000ABCF1030F69
:1047700008D0BCF1040F3ED0BCF1070F7DD0FFDFA5
:1047800008B067E705EB850C00EB4C001880312082
:104790000880002AF4D0A8F1060000F0FF09558136
:1047A00025E0182101A813F0ACFE0097708843465D
:1047B00001AA716900F0EDFEBDF804002080BDF88B
:1047C0000600E080BDF808002081A21C0DF10A015E
:1047D00048460BF0E0F9B9F1000F00D018B184F8A9
:1047E00004A0A4F802A007EB080087B20A346D1EEB
:1047F000ADB2D6D2C4E705EB850C00EB4C001880B7
:1048000032200880002ABBD0A8F1050000F0FF0983
:10481000558137E000977088434601AA716900F01E
:10482000B8FE9DF80600BDF80410E1802179420829
:1048300060F3000162F34101820862F38201C20861
:1048400062F3C301020962F30411420962F34511E4
:10485000820962F386112171C0096071BDF80700F9
:10486000208122460DF1090148460BF094F918B158
:1048700084F802A0A4F800A000E007E007EB08001D
:1048800087B20A346D1EADB2C4D279E7A8F1020036
:1048900084B205FB08F000F10E0CA3F800C035232C
:1048A0000B80002AA6D055819481009783B270882E
:1048B0000E32716900F06DFE62E72DE9F84F1E4679
:1048C0000A9D0C4681462AB1607A00F58070D0803E
:1048D000E089108199F80C000C274FF000084FF088
:1048E0000E0A0D2873D2DFE800F09E070E1C283058
:1048F0003846556A73737300214648460095FFF7A2
:1049000079FEBDE8F88F207B9146082802D0032865
:1049100000D0FFDF378030200AE000BFA9F80A800E
:10492000EFE7207B9146042800D0FFDF378031205D
:104930002880B9F1000FF1D1E3E7207B91460428EC
:1049400000D0FFDF37803220F2E7207B914602283B
:1049500000D0FFDF37803320EAE7207B17460228AC
:1049600000D0FFDF3420A6F800A02880002FC8D098
:10497000A7F80A80C5E7207B1746042800D0FFDF90
:104980003520A6F800A02880002FBAD04046A7F80E
:104990000A8012E0207B1746052802D0062800D0A6
:1049A000FFDF1020308036202880002FA9D0E0893A
:1049B0007881A7F80E80B9F80E00B881A1E7207BB6
:1049C0009146072800D0FFDF37803720B0E72AE084
:1049D0004FF0120018804FF038001700288090D058
:1049E000E0897881A7F80E80A7F8108099F80C006C
:1049F0000A2805D00B2809D00C280DD0FFDF80E74E
:104A0000207B0A2800D0FFDF01200AE0207B0B2852
:104A100000D0FFDF042004E0207B0C2800D0FFDF63
:104A2000052038736DE7FFDF6BE770B50C46054670
:104A3000FCF79EFE20B10078222804D2082070BD29
:104A400043F2020070BD0521284609F017FB2060E3
:104A500008B1002070BD032070BD30B448800878D4
:104A600020F00F00C01C20F0F000903001F8080B7F
:104A70001DCA81E81D0030BC03F01BBA2DE9FF47B9
:104A800084B00027824602970798904689461230E4
:104A900004F038FB401D20F00306079828B907A949
:104AA0005046FFF7C2FF002854D1B9F1000F05D0DE
:104AB0000798017B19BB052504681BE098F80000E6
:104AC000092803D00D2812D0FFDF46E007990325FF
:104AD0004868B0B3497B42887143914239D98AB260
:104AE000B3B2011D09F05BF90446078002E0079CA0
:104AF000042508340CB1208810B1032D29D02CE0F6
:104B000007980121123004F02FFBADF80C0002468B
:104B100002AB2946504606F039FC070001D1A01C23
:104B2000029007983A461230C8F80400A8F802A08C
:104B300003A94046029B04F024FBD8B10A2817D2EF
:104B400000E006E0DFE800F007091414100B0D1474
:104B50001412132014E6002012E6112010E608209B
:104B60000EE643F203000BE6072009E60D2007E6F8
:104B7000032005E6BDF80C002346CDE900702A4667
:104B80005046079900F015FD57B9032D08D1079835
:104B9000B3B2417B406871438AB2011D09F013F939
:104BA000B9F1000FD7D0079981F80C90D3E72DE920
:104BB000FE4F91461A881C468A468046FAB102ABDF
:104BC000494606F0E3FB050019D04046A61C27889D
:104BD00009F098FB3246072629463B46009608F026
:104BE000C4FF20882346CDE900504A46514640463E
:104BF00000F0DFFC002020800120BDE8FE8F0020B7
:104C0000FBE710B586B01C46AAB104238DF800302E
:104C10001388ADF808305288ADF80A208A788DF8EC
:104C20000E200988ADF80C1000236A462146FFF7D4
:104C300025FF06B010BD1020FBE770B50D4605211D
:104C400009F01CFA040000D1FFDF294604F112002C
:104C5000BDE8704004F071BA2DE9F8430D46804676
:104C6000002603F023F904462878102878D2DFE8DC
:104C700000F0773B34533131123131310831313169
:104C800031312879001FC0B2022801D0102810D17C
:104C900014BBFFDF35E004B9FFDF0521404609F012
:104CA000EDF9007B032806D004280BD0072828D074
:104CB000FFDF072655E02879801FC0B2022820D0E8
:104CC00050B1F6E72879401FC0B2022819D0102849
:104CD00017D0EEE704B9FFDF13E004B9FFDF28794E
:104CE00001280ED1172137E00521404609F0C6F909
:104CF000070000D1FFDF07F11201404604F0FAF986
:104D00002CB12A4621464046FFF7A7FE29E0132191
:104D10004046FDF7E3FC24E004B9FFDF05214046EF
:104D200009F0ACF9060000D1FFDF694606F1120078
:104D300004F0EAF9060000D0FFDFA988172901D2A4
:104D4000172200E00A46BDF80000824202D901465F
:104D500002E005E01729C5D3404600F03AFCD0E751
:104D6000FFDF3046BDE8F883401D20F0030219B193
:104D700002FB01F0001D00E000201044704713B555
:104D8000009848B10024684608F0B3FF002C02D117
:104D9000F74A009911601CBD01240020F4E72DE9B9
:104DA000F0470C4615462421204613F0AAFB05B90E
:104DB000FFDFA87860732888DFF8B4A3401D20F0D7
:104DC0000301AF788946DAF8000008F0B0FF06006A
:104DD00000D1FFDF4FF000082660A6F8008077B111
:104DE00009FB07F1091D0AD0DAF8000008F09FFF5F
:104DF000060000D1FFDF6660C6F8008001E0C4F85D
:104E00000480298804F11200BDE8F04704F064B979
:104E10002DE9F047804601F112000D46814604F06D
:104E200071F9401DD24F20F003026E7B14462968B1
:104E3000386808F0A7FF3EB104FB06F2121D03D04C
:104E40006968386808F09EFF052009F0C3F8044639
:104E5000052009F0C7F8201A012802D1386808F0A7
:104E60005BFF49464046BDE8F04704F04AB970B5DB
:104E70000546052109F002F9040000D1FFDF04F125
:104E800012012846BDE8704004F034B92DE9F04F16
:104E900091B04FF0000BADF834B0ADF804B04788D6
:104EA0000C46054692460521384609F0E7F806000B
:104EB00000D1FFDF24B1A780A4F806B0A4F808B0A1
:104EC000297809220B20B2EB111F7DD12A7A04F137
:104ED000100138274FF00C084FF001090391102AF8
:104EE00073D2DFE802F072F2F1F07F08D2888D9F72
:104EF0003DDBF3EEB6B6307B022800D0FFDFA88999
:104F000008EBC001ADF804103021ADF83410002CCE
:104F100025D06081B5F80E9000271DE004EBC7088E
:104F2000317C88F80E10F189A8F80C10CDF80090AB
:104F30006888042304AA296900F02BFBBDF810102F
:104F4000A8F8101009F10400BDF812107F1C1FFA18
:104F500080F9A8F81210BFB26089B842DED80DE11E
:104F6000307B022800D0FFDFE98908EBC100ADF8F3
:104F700004003020ADF83400287B0A90001FC0B236
:104F80000F90002CEBD06181B5F81090002725E040
:104F9000CDF800906888696903AA0A9B00F0F9FAC5
:104FA0000A9804EBC70848441FFA80F908F10C027C
:104FB00004A90F980AF0EFFD18B188F80EB0A8F810
:104FC0000CB0BDF80C1001E0D4E0CFE0A8F8101050
:104FD000BDF80E107F1CA8F81210BFB26089B8424D
:104FE000D6D8CBE00DA8009001AB2246294630462A
:104FF000FFF71BFBC2E0307B082805D0FFDF03E092
:10500000307B082800D0FFDFE8891030ADF80400BD
:105010003620ADF83400002C3FD0A9896181F18998
:10502000A18127E0307B092800D0FFDFA88900F1AB
:105030000C01ADF804103721ADF83410002C2CD041
:105040006081E8890090AB89688804F10C022969C5
:1050500056E0E8893921103080B2ADF80400ADF88F
:105060003410002C74D0A9896181287A0E280AD0C6
:1050700002212173E989E181288A0090EB896888FF
:105080006969039A3CE00121F3E70DA8009001ABA8
:10509000224629463046FFF759FB6FE0307B0A284D
:1050A00000D0FFDF1220ADF80400ADF834704CB32F
:1050B000A9896181A4F810B0A4F80EB084F80C900E
:1050C0005CE020E002E031E039E042E0307B0B2898
:1050D00000D0FFDF288AADF834701230ADF804003C
:1050E00084B104212173A9896181E989E181298A37
:1050F0002182688A00902B8A688804F1120269690B
:1051000000F047FA3AE0307B0C2800D0FFDF122095
:10511000ADF80400ADF834703CB305212173A4F858
:105120000AB0A4F80EB0A4F810B027E00DA80090C3
:1051300001AB224629463046FFF75CFA1EE00DA877
:10514000009001AB224629463046FFF7B6FB15E03A
:1051500034E03B21ADF80400ADF8341074B3A4F88A
:105160000690A4F808B084F80AB007E0FFDF05E075
:1051700010000020297A012917D0FFDFBDF80400B4
:10518000AAF800006CB1BDF834002080BDF804001E
:105190006080BDF83400392803D03C2801D086F85F
:1051A0000CB011B00020BDE8F08F3C21ADF8040038
:1051B000ADF8341014B1697AA172DFE7AAF80000E3
:1051C000EFE72DE9F84356880F468046154605213E
:1051D000304608F053FF040000D1FFDF1234009482
:1051E0003B46414630466A6804F0FFF8BAE570B5C0
:1051F0000D46052108F042FF040000D1FFDF2946DB
:1052000004F11200BDE8704003F089BF70B50D468F
:10521000052108F033FF040000D1FFDF294604F127
:105220001200BDE8704003F0A7BF70B50546052128
:1052300008F024FF040000D1FFDF04F10803214639
:105240002846BDE870400422B1E470B5054605214A
:1052500008F014FF040000D1FFDF21462846236830
:10526000BDE870400522A2E470B50646052108F0AD
:1052700005FF040000D1FFDF04F1120003F042FF3C
:10528000401D20F0030511E0011D00880322431892
:1052900021463046FFF78BFC00280BD0607BABB279
:1052A000684382B26068011D08F0C3FD60684188F0
:1052B0000029E9D170BD70B50E46054602F0F6FD35
:1052C000040000D1FFDF0120207266726580207823
:1052D00020F00F00C01C20F0F00030302070BDE83E
:1052E000704002F0E6BD2DE9F0438BB00D46144648
:1052F000814606A9FFF799FB002814D14FF6FF76E7
:1053000001274FF420588CB103208DF800001020A5
:10531000ADF8100007A8059007AA204604A90AF0D6
:1053200059FC78B107200BB0BDE8F0830820ADF838
:1053300008508DF80E708DF80000ADF80A60ADF8D9
:105340000C800CE00698A17801742188C1818DF849
:105350000E70ADF80850ADF80C80ADF80A606A46E2
:1053600002214846069BFFF789FBDCE708B50122CE
:105370008DF8022042F60202ADF800200A4603230F
:105380006946FFF73EFC08BD08B501228DF80220F2
:1053900042F60302ADF800200A4604236946FFF7EF
:1053A00030FC08BD00B587B079B102228DF800202D
:1053B0000A88ADF808204988ADF80A1000236A462B
:1053C0000521FFF75BFB07B000BD1020FBE709B12B
:1053D000072316E40720704770B588B00D461446C1
:1053E000064606A9FFF721FB00280ED17CB1062056
:1053F000ADF808508DF80000ADF80A40069B6A46EB
:105400000821DC813046FFF739FB08B070BD05206C
:105410008DF80000ADF80850F0E700B587B059B13D
:1054200007238DF80030ADF80820039100236A4669
:105430000921FFF723FBC6E71020C4E770B588B049
:105440000C460646002506A9FFF7EFFA0028DCD136
:1054500006980121123003F087FE9CB121780629BD
:1054600021D2DFE801F0200505160318801E80B266
:10547000C01EE28880B20AB1A3681BB1824203D980
:105480000C20C2E71020C0E7042904D0A08850B93E
:1054900001E00620B9E7012913D0022905D004292B
:1054A0001CD005292AD00720AFE709208DF800007D
:1054B0006088ADF80800E088ADF80A00A0680390A5
:1054C00023E00A208DF800006088ADF80800E0882D
:1054D000ADF80A00A0680A25039016E00B208DF8AD
:1054E00000006088ADF80800A088ADF80A00E088E8
:1054F000ADF80C00A0680B25049006E00C208DF898
:10550000000060788DF808000C256A462946304670
:10551000069BFFF7B3FA78E700B587B00D228DF848
:105520000020ADF8081000236A461946FFF7A6FAD6
:1055300049E700B587B071B102228DF800200A88D2
:10554000ADF808204988ADF80A1000236A46062104
:10555000FFF794FA37E7102035E770B586B00646B6
:1055600001200D46ADF808108DF80000014600231B
:105570006A463046FFF782FA040008D129463046D1
:1055800001F004FB0021304601F01EFB204606B06E
:1055900070BDF8B51C4615460E46069F08F0A0FEE5
:1055A0002346FF1DBCB231462A46009408F0A9FAF2
:1055B000F8BD30B41146DDE902423CB1032903D005
:1055C000002330BC06F018B80123FAE71A8030BC7B
:1055D000704770B50C460546FFF72FFB214628465D
:1055E00001F0E3FA2846BDE87040012101F0ECBA71
:1055F00018B18178012938D101E010207047018865
:1056000042F60112881A914231D018DC42F60102AA
:10561000A1EB020091422AD00CDC41B3B1F5C05F8E
:1056200025D06FF4C050081821D0A0F57060FF3865
:105630001BD11CE001281AD002280AD117E0B0F5CE
:10564000807F14D008DC012811D002280FD0032855
:105650000DD0FF2809D10AE0B0F5817F07D0A0F571
:105660008070033803D0012801D0002070470F203C
:1056700070470A281FD008DC0A2818D2DFE800F09B
:10568000191B1F1F171F231D1F21102815D008DCF1
:105690000B2812D00C2810D00D2816D00F2806D1B8
:1056A0000DE011280BD084280BD087280FD00320C1
:1056B00070470020704705207047072070470F2073
:1056C000704704207047062070470C20704743F253
:1056D0000200704738B50C46050041D06946FEF718
:1056E000DBFA002819D19DF80010607861F3020000
:1056F00060706946681CFEF7CFFA00280DD19DF84E
:105700000010607861F3C5006070A978C1F34101B1
:10571000012903D0022905D0072038BD217821F0C6
:10572000200102E0217841F020012170410704D0DE
:10573000A978C90861F386106070607810F0380F9E
:1057400007D0A978090961F3C710607010F0380F0D
:1057500002D16078400603D5207840F040002070E8
:10576000002038BD70B504460020088015466068EA
:10577000FFF7B0FF002816D12089A189884211D8EF
:1057800060688078C0070AD0B1F5007F0AD840F27F
:105790000120B1FBF0F200FB1210288007E0B1F508
:1057A000FF7F01D90C2070BD01F20121298000206A
:1057B00070BD10B50478137864F300031370047897
:1057C000640864F3410313700478A40864F382034B
:1057D00013700478E40864F3C30313700478240995
:1057E00064F3041313700478640964F345131370AD
:1057F0000078800960F38613137031B10878C1070F
:1058000001D1800701D5012000E0002060F3C7131B
:10581000137010BD4278530702D002F0070306E070
:1058200012F0380F02D0C2F3C20300E001234A781D
:1058300063F302024A70407810F0380F02D0C0F3D0
:10584000C20005E0430702D000F0070000E001209D
:1058500060F3C5024A7070472DE9F04F95B00D0016
:10586000824612D01221284612F029FE4FF6FF7B05
:1058700005AA0121584605F01CFB002426463746A0
:105880004FF420586FF4205973E0102015B0BDE894
:10589000F08F00BF9DF81E0001280AD1BDF81C1032
:1058A00041450BD011EB09000AD001280CD0022889
:1058B0000CD0042C0ED0052C0FD10DE0012400E0FB
:1058C0000224BDF81A6008E0032406E00424BDF8B1
:1058D0001A7002E0052400E00624BDF81A105145B4
:1058E00047D12C74BEB34FF0000810AA4FF0070A3E
:1058F000CDE90282CDE900A80DF13C091023CDF8D5
:10590000109042463146584605F086FB08BBBDF86C
:105910003C002A46C0B210A90AF03DF9C8B9AE81D0
:10592000CFB1CDE900A80DF1080C0AAE40468CE8D5
:105930004102132300223946584605F06DFB40B959
:10594000BDF83C00F11CC01EC0B22A1D0AF023F9AC
:1059500010B103209AE70AE0BDF82900E881062C7F
:1059600005D19DF81E00A872BDF81C0028810020FA
:105970008CE705A805F0A9FA00288BD0FFF779FE7F
:1059800084E72DE9F0471C46DDE90978DDF8209031
:1059900015460E00824600D1FFDF0CB1208818B1F9
:1059A000D5B11120BDE8F087022D01D0012100E022
:1059B000002106F1140004F06BF9A8F8000002467B
:1059C0003B462946504605F0E1FCC9F8000008B9FD
:1059D000A41C3C600020E5E71320E3E7F0B4144684
:1059E000DDE904528DB1002314B1022C09D101E08C
:1059F000012306E00D7CEE0703D025F0010501230D
:105A00000D742146F0BC05F0F7BD1A80F0BC70475C
:105A10002DE9FE4F91461A881C468A468046FAB107
:105A200002AB494605F0B2FC050019D04046A61C61
:105A3000278808F067FC3246072629463B46009631
:105A400008F093F820882346CDE900504A46514695
:105A50004046FFF7C3FF002020800120BDE8FE8FF5
:105A60000020FBE72DE9F04786B082460EA890465D
:105A700090E8B000894604AA05A903A88DE80700AC
:105A80001E462A4621465046FFF77BFF039901B187
:105A900001213970002818D1F94904F1140204AB2E
:105AA0000860039805998DE807004246494650462C
:105AB00004F0A5FCA8B1092811D2DFE800F0050820
:105AC0000510100A0C0C0E00002006B06AE7112029
:105AD000FBE70720F9E70820F7E70D20F5E70320AB
:105AE000F3E7BDF810100398CDE9000133462A46CC
:105AF00021465046FFF772FFE6E72DE9F04389B0F3
:105B00000D46DDE9108781461C461646142103A880
:105B100012F0F7FC012002218DF810108DF80C0016
:105B20008DF81170ADF8146064B1A278D20709D075
:105B30008DF81600E088ADF81A00A088ADF81800BE
:105B4000A068079008A80095CDE90110424603A976
:105B500048466B68FFF786FF09B0BDE8F083F0B5F3
:105B60008BB000240646069407940727089405A8DE
:105B70000994019400970294CDE903400D46102347
:105B80002246304605F048FA78B90AA806A90194D9
:105B900000970294CDE90310BDF814300022294685
:105BA000304605F00FF8002801D0FFF762FD0BB07A
:105BB000F0BD04F0AFBE2DE9FC410C468046002646
:105BC00002F074F9054620780D287DD2DFE800F058
:105BD000BC0713B325BD49496383AF959B00A84813
:105BE000006820B1417841F010014170ADE04046BD
:105BF00002F08CF9A9E00421404608F03FFA0700C2
:105C000000D1FFDF07F11401404603F0D5FFA5BB2B
:105C100013214046FCF762FD97E00421404608F05E
:105C20002DFA070000D1FFDFE088ADF8000000206A
:105C3000B8819DF80000010704D5C00602D5A088F0
:105C4000B88105E09DF8010040067ED5A088F88166
:105C500005B9FFDF22462946404601F0BDFC022679
:105C600073E0E188ADF800109DF8011009060FD52A
:105C7000072803D006280AD00AE024E00421404681
:105C800008F0FCF9060000D1FFDFA088F0810226B1
:105C9000CDB9FFDF17E00421404608F0EFF9070017
:105CA00000D1FFDF07F1140004F06BFE90F0010F4C
:105CB00002D1E079000648D5387C022640F0020087
:105CC000387405B9FFDF00E03EE022462946404631
:105CD00001F082FC39E00421404608F0CFF9017C54
:105CE000002D01F00206C1F340016171017C21F039
:105CF00002010174E7D1FFDFE5E7022601214046FA
:105D000002F036F921E00421404608F0B7F90546D3
:105D1000606800902089ADF8040001226946404681
:105D200002F047F9287C20F0020028740DE0002DD5
:105D3000C9D1FFDFC7E7022600214046FFF766FA18
:105D4000002DC0D1FFDFBEE7FFDF3046BDE8FC819C
:105D50003EB50C0009D001466B4601AA002005F0B3
:105D6000DDF920B1FFF785FC3EBD10203EBD0020CF
:105D70002080A0709DF8050002A900F00700FDF743
:105D8000A7FF50B99DF8080020709DF8050002A9F2
:105D9000C0F3C200FDF79CFF08B103203EBD9DF893
:105DA000080060709DF80500C109A07861F3041037
:105DB000A0709DF80510890961F3C300A0709DF8DB
:105DC0000410890601D5022100E0012161F342009F
:105DD0009DF8001061F30000A07000203EBD70B57A
:105DE000144606460D4651EA040005D075B1084632
:105DF000FBF793FA78B901E0072070BD29463046D9
:105E000005F0EDF910B1BDE8704032E454B1204620
:105E1000FBF783FA08B1102070BD21463046BDE87B
:105E2000704095E7002070BD2DE9FC5F0C46904660
:105E30000546002701780822007A3E46B2EB111F82
:105E40007ED104F10A0100910A31821E4FF0020A4C
:105E500004F1080B0191092A73D2DFE802F0ECDFAC
:105E600005F427277AA9CD006888042108F006F9EF
:105E7000060000D1FFDFB08920B152270726C2E01B
:105E80003802002051271026002C7DD06888A08081
:105E90000120A071A88900220099FFF7A0FF002827
:105EA00073D1A8892081288AE081D1E0B5F81290C9
:105EB000072824D1E87B000621D5512709F11400D9
:105EC00086B2002CE1D0A88900220099FFF787FF55
:105ED00000285AD16888A08084F806A0A88920816B
:105EE0000120A073288A2082A4F81290A88A00902A
:105EF00068884B46A969019A01F04BFBA8E050273E
:105F000009F1120086B2002C3ED0A8890022594621
:105F1000FFF765FF002838D16888A080A889E08055
:105F2000287A072813D002202073288AE081E87B92
:105F3000C0096073A4F81090A88A0090688801E0F6
:105F400083E080E04B4604F11202A969D4E7012006
:105F5000EAE7B5F81290512709F1140086B2002C37
:105F600066D06888042108F089F883466888A08094
:105F7000A88900220099FFF732FF00286ED184F82B
:105F800006A0A889208101E052E067E00420A07308
:105F9000288A2082A4F81290A88A009068884B462C
:105FA000A969019A01F0F5FAA989ABF80E104FE042
:105FB0006888FBF7DDFB07466888042108F05EF877
:105FC000064607B9FFDF06B9FFDF687BC00702D0CE
:105FD0005127142601E0502712264CB36888A08070
:105FE000502F06D084F806A0287B594601F0E1FA2C
:105FF0002EE0287BA11DF9E7FE49A8894989814245
:1060000005D1542706269CB16888A08020E053273C
:106010000BE06888A080A889E08019E068880421E6
:1060200008F02CF800B9FFDF55270826002CF0D126
:10603000A8F8006011E056270726002CF8D06888E1
:10604000A080002013E0FFDF02E0012808D0FFDF7E
:10605000A8F800600CB1278066800020BDE8FC9F96
:1060600057270726002CE3D06888A080687AA071A3
:10607000EEE7401D20F0030009B14143091D01EB8B
:106080004000704713B5DB4A00201071009848B1FA
:106090000024684607F02DFE002C02D1D64A009954
:1060A00011601CBD01240020F4E770B50D460646C2
:1060B00086B014465C21284612F023FA04B9FFDFAB
:1060C000A0786874A2782188284601F09CFA002004
:1060D000A881E881228805F11401304603F051FDC2
:1060E0006A460121304604F0E4FE19E09DF8030001
:1060F000000715D5BDF806103046FFF730FD9DF8B6
:106100000300BDF8061040F010008DF80300BDF844
:106110000300ADF81400FF233046059A05F02AF875
:10612000684604F0D2FE0028E0D006B070BD10B57D
:106130000C4601F1140003F05BFD0146627C204631
:10614000BDE8104001F094BA30B50446A94891B0BA
:106150004FF6FF75C18905AA284604F0AAFE30E073
:106160009DF81E00A0422AD001282AD1BDF81C00AB
:10617000B0F5205F03D042F60101884221D1002012
:1061800002AB0AAA0CA9019083E80700072000903F
:10619000BDF81A1010230022284604F03DFF38B93C
:1061A000BDF828000BAAC0B20CA909F0F4FC10B18C
:1061B000032011B030BD9DF82E00A04201D1002077
:1061C000F7E705A804F081FE0028C9D00520F0E714
:1061D00070B50546042107F051FF040000D1FFDF30
:1061E00004F114010C46284603F0E6FC214628463B
:1061F000BDE8704003F0E7BC70B58AB00C460646B7
:10620000FBF7B6FA050014D02878222827D30CB162
:10621000A08890B101208DF80C0003208DF81000AB
:1062200000208DF8110054B1A088ADF81800206846
:1062300007E043F202000AB070BD0920FBE7ADF8A9
:10624000180005900421304607F018FF040000D123
:10625000FFDF04F1140003F0E2FC000701D4082082
:10626000E9E701F023FE60B108A802210094CDE91E
:10627000011095F8232003A930466368FFF7F2FB6D
:10628000D9E71120D7E72DE9F04FB2F802A08346F5
:1062900089B0154689465046FBF76AFA074604213D
:1062A000504607F0EBFE0026044605964FF0020824
:1062B0000696ADF81C6007B9FFDF04B9FFDF414661
:1062C000504605F01BFB50B907AA06A905A88DE8A2
:1062D00007004246214650466368FFF752FB454897
:1062E00007AB0660DDE9051204F11400CDF800905B
:1062F000CDE90320CDE9013197F8232059465046D6
:106300006B6803F0D5FC06000AD0022E04D0032EE1
:1063100014D0042E00D0FFDF09B03046BDE8F08F66
:10632000BDF81C000028F7D00599CDE900104246C1
:10633000214650466368FFF751FBEDE7687840F06F
:1063400008006870E8E72DE9F04F99B004464FF077
:1063500000082848ADF81C80ADF82080ADF82480F6
:10636000A0F80880ADF81480ADF81880ADF82C8046
:10637000ADF82880007916460D464746012808D01A
:10638000022806D0032804D0042802D0082019B01F
:10639000C4E72046FAF77DFF80BB2846FAF779FF6D
:1063A00060BB6068FAF7C2FF40BB606848B16089B3
:1063B0002189884202D8B1F5007F01D90C20E6E797
:1063C00080460EAA06A92846FFF7CCF90028DED1A0
:1063D00068688078C0F34100022808D19DF8190050
:1063E00010F0380F03D02869FAF797FF30B905A9E4
:1063F000206904E0380200201400002020E0FFF7AC
:1064000069F90028C3D1206948B1607880079DF8F8
:10641000150000F0380001D5F0B300E0E0BB9DF8B6
:10642000140080060ED59DF8150010F0380F03D02B
:106430006068FAF772FF18B96068FAF777FF08B179
:106440001020A4E70AA96069FFF744F900289ED14B
:10645000606940B19DF8290000F0070101293CD195
:1064600010F0380F39D00BA9A069FFF733F90028D5
:106470008DD19DF8280080062FD49DF82C00800631
:106480002BD4A06950B19DF82D0000F0070101291F
:1064900023D110F0380F00E01FE01ED0E06818B1E3
:1064A0000078D0B11C2818D20FAA611C2046FFF733
:1064B00080F90121384661F30F2082468DF8521091
:1064C000B94642F603000F46ADF850000DF13F0209
:1064D00018A9286809F07EFB08B1072057E79DF846
:1064E000600015A9CDF80090C01CCDE9019100F025
:1064F000FF0B00230BF20122514614A804F01CFCF0
:10650000F0BBBDF854000C90FD492A89286900921F
:10651000CDE901016B89BDF838202868069904F09F
:106520000BFC01007ED120784FF0020AC10601D495
:1065300080062BD5ADF80C90606950B90AA906A861
:10654000FFF768F99DF8290020F00700401C8DF83E
:1065500029009DF8280008A940F0C8008DF82800FF
:106560008DF8527042F60210ADF8500003AACDF833
:1065700000A0CDE90121002340F2032214A800E08D
:106580001EE00A9904F0D8FB01004BD1DC484D46CF
:1065900008385B460089ADF83D000FA8CDE90290B0
:1065A000CDF80490CDF810904FF007090022CDF8F7
:1065B0000090BDF854104FF6FF7004F003FB10B1CB
:1065C000FFF757F8E3E69DF83C00000625D529467D
:1065D000012060F30F218DF852704FF42450ADF874
:1065E0005000ADF80C5062789DF80C00002362F367
:1065F00000008DF80C006278CDF800A0520862F31C
:1066000041008DF80C0003AACDE9012540F20322D8
:1066100014A804F091FB010004D1606888B32069DC
:10662000A8B900E086E005A906A8FFF7F3F86078AE
:10663000800706D49DF8150020F038008DF815006D
:1066400005E09DF8140040F040008DF814008DF82E
:10665000527042F60110ADF85000208940F201213D
:10666000B0FBF1F201FB1202606809ABCDF80080CB
:10667000CDE90103002314A8059904F05DFB010096
:1066800058D12078C00729D0ADF80C50A06950B976
:106690000BA906A8FFF7BEF89DF82D0020F0070013
:1066A000401C8DF82D009DF82C008DF8527040F0A4
:1066B00040008DF82C0042F60310ADF8500007A9F9
:1066C00003AACDF800A0CDE90121002340F2032266
:1066D00014A80B9904F030FB01002BD1E06868B3DB
:1066E0002946012060F30F218DF8527042F6041004
:1066F000ADF85000E068002302788DF8582040780B
:106700008DF85900E06816AA4088ADF85A00E06894
:1067100000798DF85C00E068C088ADF85D00CDF8C8
:106720000090CDE901254FF4027214A804F004FB97
:10673000010003D00C9800F0C7FF28E67048032141
:106740000838017156B100893080BDF8240070808E
:10675000BDF82000B080BDF81C00F080002016E6D7
:1067600070B501258AB016460B46012802D00228D2
:1067700016D104E08DF80E504FF4205003E08DF850
:106780000E5042F60100ADF80C005BB10024601C15
:1067900060F30F2404AA08A9184609F01BFA18B1DF
:1067A000072048E5102046E504A99DF8202054481C
:1067B000CDE90021801E02900023214603A802F2A9
:1067C000012204F0B9FA10B1FEF753FF33E54C484B
:1067D00008380EB1C1883180057100202BE5F0B575
:1067E00093B0074601268DF83E6041F60100ADF8F2
:1067F0003C0012AA0FA93046FFF7B2FF002848D18B
:106800003F4C0025083CE7B31C2102A811F079FE9B
:106810009DF808008DF83E6040F020008DF80800DB
:1068200042F60520ADF83C000E959DF83A00119512
:1068300020F00600801C8DF83A009DF838006A466A
:1068400020F0FF008DF838009DF8390009A920F0EC
:10685000FF008DF839000420ADF82C00ADF83000B1
:106860000EA80A9011A80D900FA80990ADF82E500F
:1068700002A8FFF768FD00280BD1BDF80000608179
:1068800000E008E0BDF80400A081401CE081257113
:10689000002013B0F0BD6581A581BDF84800F4E784
:1068A0002DE9F74F1649A0B00024083917940A794A
:1068B000A146012A04D0022A02D0082023B02DE5E7
:1068C000CA88824201D00620F8E721988A4682428F
:1068D00001D10720F2E701202146ADF848004FF62C
:1068E000FF788DF86E0042F6020B60F30F21ADF8D1
:1068F0004A80ADF86CB006918DF8724002E000005D
:10690000400200201CA9ADF870401391ADF85080F2
:1069100012A804F0FEFA00252E462F460DAB0722E2
:1069200012A9404604F0F8FA78B10A285DD195B36F
:106930008EB3ADF86450ADF866609DF85E008DF8DA
:10694000144019AC012864D06BE09DF83A001FB3E5
:10695000012859D1BDF8381059451FD118A809A9E7
:1069600001940294CDE9031007200090BDF8361081
:1069700010230022404604F04FFBB0BBBDF860007E
:10698000042801D006284AD1BDF82410219881425C
:106990003AD10F2092E73AE0012835D1BDF838000E
:1069A000B0F5205F03D042F6010188422CD1BAF83D
:1069B0000600BDF83610884201D1012700E000270B
:1069C00005B19EB1219881421ED118A809AA01944F
:1069D0000294CDE90320072000900D4610230022E9
:1069E000404604F019FB00B902E02DE04E460BE0F2
:1069F000BDF86000022801D0102810D1C0B217AA3B
:106A000009A909F0C8F850B9BDF8369086E7052005
:106A100054E705A917A8221D09F0DCF808B10320E6
:106A20004CE79DF814000023001DC2B28DF814201D
:106A300022980092CDE901401BA8069904F07CF948
:106A400010B902228AF80420FEF713FE36E710B5CB
:106A50000B46401E88B084B205AA00211846FEF7F6
:106A6000A8FE00200DF1080C06AA05A901908CE8EB
:106A70000700072000900123002221464FF6FF70F7
:106A800004F0A0F80446BDF81800012800D0FFDF8C
:106A90002046FEF7EEFD08B010BDF0B5F74F0446F6
:106AA00087B038790E46032804D0042802D0082085
:106AB00007B0F0BD04AA03A92046FEF753FE050067
:106AC000F6D160688078C0F3410002280AD19DF8B1
:106AD0000D0010F0380F05D02069FAF71EFC08B140
:106AE0001020E5E7208905AA21698DE80700638960
:106AF000BDF810202068039904F01EF910B1FEF7CC
:106B0000B8FDD5E716B1BDF8140030800420387107
:106B10002846CDE7F8B50C0006460CD001464FF6E6
:106B2000FF7500236A46284604F0F8FA28B100BF32
:106B3000FEF79FFDF8BD1020F8BD69462046FEF720
:106B4000C9FD0028F8D1A078314600F0010328469D
:106B5000009A04F00FFBEBE730B587B01446002233
:106B60000DF1080C05AD01928CE82C000722009273
:106B70000A46014623884FF6FF7004F023F8BDF85B
:106B800014102180FEF775FD07B030BD70B50D46BD
:106B9000042107F073FA040000D1FFDF294604F155
:106BA0001400BDE8704003F033B870B50D46042101
:106BB00007F064FA040000D1FFDF294604F1140055
:106BC000BDE8704003F047B870B50D46042107F0EA
:106BD00055FA040000D1FFDF294604F11400BDE896
:106BE000704003F05FB870B50546042107F046FA1F
:106BF000040000D1FFDF214628462368BDE870402D
:106C00000122FEF705BF70B50646042107F036FAEB
:106C1000040000D1FFDF04F1140002F0E9FF401D81
:106C200020F0030511E0011D0088002243182146D1
:106C30003046FEF7EDFE00280BD0607CABB2684317
:106C400082B2A068011D07F0F4F8A068418800290D
:106C5000E9D170BD70B50546042107F00FFA0400B4
:106C600000D1FFDF214628466368BDE8704002225C
:106C7000FEF7CEBE70B50E46054601F017F90400CA
:106C800000D1FFDF0120207266726580207820F03D
:106C90000F00001D20F0F00040302070BDE8704073
:106CA00001F007B910B50446012900D0FFDF2046E6
:106CB000BDE810400121FEF7A9BA2DE9F04F97B0C9
:106CC0004FF0000A0C008346ADF814A0D04619D04E
:106CD000E06830B1A068A8B10188ADF81410A0F840
:106CE00000A05846FAF744FD070043F2020961D0BC
:106CF000387822285CD30421584607F0BFF90500F4
:106D000005D103E0102017B0BDE8F08FFFDF05F1DB
:106D1000140002F06DFF401D20F00306A07801284A
:106D200003D0022801D00720EDE7218807AA5846A2
:106D300004F0BFF830BB07A804F0C7F810BB07A8E1
:106D400004F0C3F848B99DF82600012805D1BDF824
:106D50002400A0F52451023902D04FF45050D2E75C
:106D6000E068B0B1CDE902A00720009005AACDF8F7
:106D700004A00492A2882188BDF81430584603F07C
:106D800021FF10B1FEF775FCBDE7A168BDF8140046
:106D900008809DF81F00C00602D543F20140B2E70B
:106DA0000B9838B1A1780078012905D080071AD452
:106DB0000820A8E74846A6E7C007F9D002208DF8CA
:106DC0003C00A8684FF00009A0B1697C428871437B
:106DD00091420FD98AB2B3B2011D06F0E0FF80469E
:106DE000A0F800A006E003208DF83C00D5F8008054
:106DF0004FF001099DF8200010F0380F00D1FFDF9F
:106E00009DF820001E49C0F3C200084497F82310E3
:106E100010F8010C884201D90F2074E72088ADF8E2
:106E2000400014A90095CDE90191434607220FA91E
:106E30005846FEF717FE002891D19DF8500050B932
:106E4000A078012807D1687CB3B2704382B2A868E9
:106E5000011D06F0B8FF002055E770B5064615463F
:106E60000C460846FEF7C4FB002805D12A462146F9
:106E70003046BDE8704073E470BD11E53802002073
:106E80008E88010070B51E4614460D0009D044B12D
:106E9000616831B138B1FC49C988814203D007200B
:106EA00070BD102070BD2068FEF7A2FB0028F9D14C
:106EB000324621462846BDE87040FFF744BA70B517
:106EC00015460C0006D038B1EF490989814203D03C
:106ED000072070BD102070BD2068FEF789FB0028D8
:106EE000F9D129462046BDE87040D6E570B5064682
:106EF00086B00D4614461046FAF7F1F9D0BB60682B
:106F0000FAF714FAB0BBA6F57F40FF3803D030463D
:106F1000FAF72EFC80B128466946FEF79DFC002852
:106F20000CD19DF810100F2008293DD2DFE801F0A8
:106F300008060606060A0A0843F2020006B070BDFB
:106F40000320FBE79DF80210012908D1BDF80010CD
:106F5000B1F5C05FF2D06FF4C052D142EED09DF8CF
:106F6000061001290DD1BDF80410A1F528510629FC
:106F700007D200E029E0DFE801F003030403030384
:106F8000DCE79DF80A1001290FD1BDF80810B1F512
:106F9000245FD3D0A1F60211B1F50051CED0012962
:106FA000CCD0022901D1C9E7FFDF606878B900239E
:106FB00005AA2946304604F0B1F810B1FEF759FB96
:106FC000BCE79DF81400800601D41020B6E7618864
:106FD000224628466368FFF7BFFDAFE72DE9F0437F
:106FE000814687B0884614461046FAF778F918B1FA
:106FF000102007B0BDE8F083002306AA41464846AA
:1070000004F08CF818B100BFFEF733FBF1E79DF8F0
:107010001800C00602D543F20140EAE70025072721
:1070200005A8019500970295CDE9035062884FF6B7
:10703000FF734146484603F0EFFF060013D1606836
:10704000FAF74DF960B960680195CDE902500097F3
:107050000495238862884146484603F0DDFF0646D2
:10706000BDF8140020803046CEE739B1864B0A883F
:107070009B899A4202D843F2030070471DE610B57F
:1070800086B0814C0423ADF81430638943B1A489E0
:107090008C4201D2914205D943F2030006B010BDE3
:1070A0000620FBE7ADF81010002100910191ADF82A
:1070B000003002218DF8021005A9029104A9039164
:1070C000ADF812206946FFF7F8FDE7E72DE9FC4728
:1070D00081460D460846FAF7DCF888BB4846FAF7C1
:1070E00047FB5FEA00080AD098F80000222829D35D
:1070F0000421484606F0C2FF070005D103E043F231
:107100000200BDE8FC87FFDF07F1140002F087FDF5
:1071100006462878012803D0022804D00720F0E78B
:10712000B0070FD502E016F01C0F0BD0A8792C1D6C
:10713000C00709D0E08838B1A068FAF7AAF818B1FA
:107140001020DEE70820DCE721882A780720B1F547
:10715000847F35D01EDC40F20315A1F20313A9424F
:1071600026D00EDCB1F5807FCBD003DCF9B101294C
:1071700026D1C6E7A1F58073013BC2D0012B1FD1F8
:1071800013E0012BBDD0022B1AD0032BB9D0042B56
:1071900016D112E0A1F20912082A11D2DFE802F09A
:1071A0000B04041010101004ABE7022AA9D007E06A
:1071B000012AA6D004E0320700E0F206002AA0DA95
:1071C000CDB200F073FE50B198F82300CDE9000570
:1071D000FA89234639464846FEF78FFC91E711208D
:1071E0008FE72DE9F04F8BB01F4615460C468346BE
:1071F0000026FAF7BDFA28B10078222805D2082027
:107200000BB081E543F20200FAE7B80801D007208D
:10721000F6E7032F00D100274FF6FF79CCB1022DFE
:1072200073D32046FAF782F830B904EB0508A8F1C9
:107230000100FAF77BF808B11020E1E7AD1EAAB211
:107240002146484604F038F838F8021C88425CD1E0
:10725000ADB20D49B80702D58889401C00E0012075
:107260001FFA80F8F80701D08F8900E04F4605AA81
:107270004146584603F01DFE4FF0070A4FF0000943
:10728000DCB320460BE000003802002040881028C4
:107290003BD8361D304486B2AE4236D2A0190288A1
:1072A0004245F3D351E000BF9DF8170002074CD5CB
:1072B00094B304EB0608361DB8F80230B6B2102BB2
:1072C00023D89A19AA4220D8B8F8002091421CD19C
:1072D000C0061CD5CDE900A90DF1080C0AAAA11918
:1072E00048468CE80700B8F800100022584603F022
:1072F00069FC20B1FEF7BDF982E726E005E0B8F8A9
:107300000200BDF82810884201D00B2078E7B8F8B9
:107310000200304486B207E0FFE7C00604D55846B5
:10732000FEF71DFC002888D19DF81700BDF81A1043
:1073300020F010008DF81700BDF81700ADF8000020
:10734000FF235846009A03F015FF05A803F0BDFD82
:1073500018B9BDF81A10B942A6D90421584606F04A
:107360008DFE040000D1FFDFA2895AB1CDE900A94A
:107370004D46002321465846FEF7BFFB0028BBD1EF
:10738000A5813DE700203BE72DE9FF4F8BB01E466E
:1073900017000D464FF0000412D0B00802D00720AD
:1073A0000FB0B1E4032E00D100265DB10846F9F715
:1073B000B4FF28B93888691E0844F9F7AEFF08B150
:1073C0001020EDE7C64AB00701D5D18900E00121C0
:1073D000F0074FF6FF7802D0D089401E00E040460B
:1073E00086B206AA0B9803F064FD4FF000094FF037
:1073F000070B0DF1140A38E09DF81B00000734D587
:10740000CDF80490CDF800B0CDF80890CDE9039AFE
:10741000434600220B9803F0FFFD60BB05B3BDF8A7
:1074200014103A8821442819091D8A4230D3BDF826
:107430001E2020F8022BBDF8142020F8022BCDE9E5
:1074400000B9CDE90290CDF810A0BDF81E10BDF82E
:10745000143000220B9803F0DFFD08B103209FE7F2
:10746000BDF814002044001D84B206A803F02DFDD1
:1074700020B10A2806D0FEF7FCF891E7BDF81E10EF
:10748000B142B9D934B17DB13888A11C884203D248
:107490000C2085E7052083E722462946404603F075
:1074A0000BFF014628190180A41C3C80002077E7CF
:1074B00010B50446F9F713FF08B1102010BD884835
:1074C000C0892080002010BDF0B58BB00D46064667
:1074D000142103A811F015F801208DF80C008DF887
:1074E000100000208DF81100ADF814503046FAF766
:1074F0003FF948B10078222812D30421304606F023
:10750000BDFD040005D103E043F202000BB0F0BD65
:10751000FFDF04F11400074602F081FB800601D46E
:107520000820F3E7207C022140F00100207409A824
:107530000094CDE90110072203A930466368FEF7E5
:1075400091FA20B1217C21F001012174DEE7294666
:107550003046FDF74CFE08A9384602F04FFB00B15B
:10756000FFDFBDF82040172C01D2172000E0204695
:10757000A84201D92C4602E0172C00D2172421463C
:107580003046FFF712FB21463046FDF756FB002040
:10759000BCE7F8B51C4615460E46069F06F0A0FE51
:1075A0002346FF1DBCB231462A46009406F0A9FAD4
:1075B000F8BD70B50C4605460E21204610F07FFF41
:1075C000002020802DB1012D01D0FFDF70BD0620ED
:1075D00000E00520A07170BD10B548800878134602
:1075E00020F00F00001D20F0F00080300C460870E5
:1075F0001422194604F1080010F027FF00F059FC8E
:107600003748046010BD2DE9F047DFF8D890491DD8
:10761000064621F0030117460C46D9F8000006F093
:1076200086FB050000D1FFDF4FF000083560A5F8AC
:1076300000802146D9F8000006F079FB050000D152
:10764000FFDF7560A5F800807FB104FB07F1091D1D
:107650000BD0D9F8000006F06AFB040000D1FFDF70
:10766000B460C4F80080BDE8F087C6F80880FAE787
:107670002DE9F0411746491D21F00302194D064638
:1076800001681446286806F07DFB22467168286868
:1076900006F078FB3FB104FB07F2121D03D0B1687E
:1076A000286806F06FFB042006F094FC04460420D2
:1076B00006F098FC201A012804D12868BDE8F041A2
:1076C00006F02ABBBDE8F08110B50C4603F0BDFB07
:1076D00000B1FFDF2046BDE81040FDF7CABF000043
:1076E000380200201400002038B582880A800C4639
:1076F000C188121D90B26A4605F0CBFDBDF80000AE
:10770000032800D30320C1B2208800F0A6FF38BDB3
:1077100038B582880A800C46C188121D90B26A462C
:1077200005F0B7FDBDF80000022800D30220C1B269
:10773000208800F092FF401CC0B238BD2DE9FE4FFA
:1077400082468B46F74814460BF10302D0E900103D
:10775000CDE9011022F0030268462C21009206F0C8
:10776000C8FAF14E002C02D1F04A009991600099BC
:1077700001440091357E05F1010504D1E8B208F01D
:10778000A3F900B1FFDF009800EB0510C01C20F04A
:107790000301009144B9727A00200870B08B80B266
:1077A00003F0DBF900B1FFDF0098F16908440090B5
:1077B0002146684600F015FF80460098C01C20F066
:1077C00003000090717A04B1002006F07CFB009960
:1077D000084400902146684600F04AFFD24800273E
:1077E0003D4690F801900CE0284600F0DDFE06468C
:1077F00081788088FDF7B8FA71786D1C00FB0177FD
:10780000EDB24D45F0D10098C01C20F0030000906F
:1078100004B100203946FDF7B2FA00990027084468
:107820000090C1483D4690F801900CE0284600F0D9
:10783000BBFE0646C1788088FEF71BFC71786D1C84
:1078400000FB0177EDB24D45F0D10098C01C20F04F
:107850000300009004B100203946FEF713FC0099A4
:10786000084400210090084603F070FE2146684657
:1078700000F07DFE0098C01D20F007000090DAF8AF
:107880000010814204D3A0EB0B01B1F5803F04DB73
:107890004FF00408CAF8000004E0CAF80000B8F18C
:1078A000000F02D04046BDE8FE8F34BBA049002047
:1078B000009AFBF70FFBFAF7E6FB9B4801AA0021B1
:1078C0000C30FBF707F800B1FFDF9748407EFEF76A
:1078D00086FF00B1FFDF94484FF4F671343010F0AA
:1078E00010FE91480421343080F8E91180F8EA1143
:1078F000062180F8EB11032101710020D3E770B558
:10790000894C06463434207804EB4015E07808357D
:1079100090B9A01990F8E80100280ED0A0780F289F
:1079200000D3FFDF2021284610F0EBFD687866F3D6
:10793000020068700120E070284670BD2DE9F0411A
:1079400005460C4600270078052190463E46B1EBDF
:10795000101F00D0FFDF287A50B101280ED0FFDFC2
:10796000A8F800600CB1278066800020BDE8F08197
:107970000127092674B16888A08008E00227142630
:1079800044B16888A0802869E060A88A2082287BAA
:107990002072E5E7A8F80060E7E730B5624C012007
:1079A0000021207061702072607221730521A18214
:1079B0001F21E18260735FA121610A212176607637
:1079C0005A4D4FF4B060E0616868C11C21F00301BA
:1079D000814200D0FFDF6868606030BD30B5534C35
:1079E0001568636808339D4202D20420136030BDDD
:1079F0004D4B5D785A6802EBC50210705170032040
:107A0000D080172090800120D07090705878401C52
:107A10005870606808306060002030BD70B5064660
:107A200041480024457807E0204600F0BDFD01787C
:107A3000B14204D0641CE4B2AC42F5D1002070BD68
:107A4000F7B5064608780C46F8B1FFF7E7FF05469C
:107A5000202E06D0212E1AD0222E18D0232E14D15B
:107A600010E000F0ACFD0DB1697800E00021401A93
:107A700081B2A0780144FF2907D830B1A08802283C
:107A800005D202E06088172801D20720FEBD65B943
:107A9000207802AA0121FFF7A1FF0028F6D1207863
:107AA000FFF7BCFF050000D1FFDF202E08D0212EFC
:107AB0000ED0222E0FD0232E07D0FFDF0020FEBDD8
:107AC000A0786870A088E880F8E76088A880F5E76B
:107AD000A078A870F2E7A078E870EFE71A2841D004
:107AE0000DDC13283ED2DFE800F01B3D2C3D3D337A
:107AF000332F31393D3D353D3D3D3D3B0F00302875
:107B000002D003DC1E282DD1072070473A380928FF
:107B100028D2DFE800F021271B272727272713007B
:107B20000020704794880100740200201800002093
:107B3000000000206E5246357800000043F2040039
:107B4000EFE743F20200ECE70420EAE70D20E8E764
:107B50000F20E6E70820E4E71120E2E71320E0E742
:107B60000620DEE70320DCE710B5007800F0010016
:107B700005F085FBBDE81040B0E710B5007800F0D7
:107B8000010005F081FBBDE81040A7E70EB50178C4
:107B900001F001018DF80010417801F001018DF82C
:107BA00001100178C1F340018DF802104178C1F352
:107BB00040018DF80310017889088DF80410417890
:107BC00089088DF8051081788DF80610C1788DF838
:107BD000071000798DF80800684605F007F8FFF7F0
:107BE0007DFF0EBD2DE9F84FDFF8F883FE4C00262F
:107BF0001FE0012000F07FFD0120FFF780FE054619
:107C00002C214746D8F8080006F091F8686000B9C2
:107C1000FFDF686804F0DDFEA8B12846F9F7FAFE38
:107C2000284600F06EFD20B92C226968B86806F07D
:107C3000A9F894F9E9010428DBDA022006F0CAF970
:107C400007460025A5E02C226968D8F8080006F050
:107C500099F8F2E7B8F802104046491C89B2A8F832
:107C60000210B94201D3002141800221B8F802007C
:107C700006F004FA002864D0B8F80200694605F05E
:107C80007CFAFFF72BFF00B1FFDF9DF8000078B111
:107C9000B8F8020006F036FB5FEA000900D1FFDF0A
:107CA000484605F0C2FD18B1B8F8020003F015FE11
:107CB000B8F8020006F014FB5FEA000900D1FFDF0C
:107CC000484605F0AAFDE0BB0321B8F8020006F023
:107CD000D5F95FEA000B47D1FFDF45E0DBF80C0088
:107CE00010B10078FF2849D0022000F004FD0220E6
:107CF000FFF705FE8246484605F09BFECAF80400E1
:107D000000B9FFDFDAF8040005F063FF00210090FE
:107D10000170B8F802105046AAF8021003F0B3FC44
:107D2000484605F058FF00B9FFDF504600F0E9FC77
:107D300018B99AF80100000704D50099CBF80C1087
:107D400012E024E0DBF80C0038B10178491C11F096
:107D5000FF01017008D1FFDF06E00022114648460E
:107D600000F003FC00B9FFDF94F9EA01022805DB0B
:107D7000B8F8020003F062FC0028AFD194F9E901E1
:107D8000042804DB484605F08AFF00B101266D1C7B
:107D9000EDB2BD4204D294F9EA010228BFF65AAF0F
:107DA000002E7FF424AFBDE8F84F032000F0A3BC01
:107DB00010B58C4CE06008682061AFF2D710FBF77B
:107DC000A2F8607010BD88480021343801708548E1
:107DD000017086494160A4E670B505464FF08050B9
:107DE0000C46D0F8A410491C05D1D0F8A810C943FE
:107DF0000904090C0BD050F8A01F01F001012970F3
:107E0000416821608068A080287830B970BD062163
:107E1000204609F06EFB01202870607940F0C00018
:107E2000607170BD70B54FF080540D46D4F880106D
:107E3000491C0BD1D4F88410491C07D1D4F8881000
:107E4000491C03D1D4F88C10491C0CD0D4F88010F4
:107E50000160D4F884104160D4F888108160D4F8AF
:107E60008C10C16002E0102109F043FBD4F89000AF
:107E7000401C0BD1D4F89400401C07D1D4F89800D2
:107E8000401C03D1D4F89C00401C09D054F8900F3A
:107E9000286060686860A068A860E068E86070BDFD
:107EA0002846BDE87040102109F023BB4E480079F8
:107EB00025E570B54C4CE07830B3207804EB4010E9
:107EC000407A00F00700204490F9E801002800DC27
:107ED000FFDF2078002504EB4010407A00F0070017
:107EE000011991F8E801401E81F8E8012078401C52
:107EF000C0B220700F2800D12570A078401CA0705F
:107F000009F0EEF9E57070BDFFDF70BD3EB50546C6
:107F1000032106F0B3F80446284606F0E1F90546C9
:107F200004B9FFDFE06818B10078FF2800D1FFDF57
:107F300001AA6946284600F018FB60B9FFDF0AE095
:107F4000002202A9284600F010FB00B9FFDF9DF8CF
:107F5000080000B1FFDF9DF80000411E8DF8001001
:107F6000EED2E0680199884201D10020E0603EBD78
:107F700070B50546A0F57F400C46FF3800D1FFDF05
:107F8000012C01D0FFDF70BDFFF790FF040000D18E
:107F9000FFDF207820F00F00401D20F0F00050306F
:107FA000207065800020207201202073BDE87040A1
:107FB0007FE72DE9F04116460D460746FFF776FFAD
:107FC000040000D1FFDF207820F00F00401D20F0DA
:107FD000F0005030207067800120207228682061F6
:107FE000A88805E018000020A8020020340E002018
:107FF000A0822673BDE8F0415BE77FB5FFF70EFD79
:10800000040000D1FFDF02A92046FFF76DFB054603
:1080100003A92046FFF77CFB8DF800508DF8010086
:10802000BDF80800001DADF80200BDF80C00001DF1
:10803000ADF80400E088ADF80600684605F007F9E1
:10804000002800D0FFDF7FBD2DE9F05FFA4F8046AA
:10805000387810B10820BDE8F09F4046F9F73FF9A5
:1080600008B11020F7E7F54D287808B9FFF795FC1F
:108070006C7A464600F0A3FAA04207D2201AC1B299
:1080800032460020FFF7AAFC0028E4D17968BB46FD
:10809000C91C21F0030179600027E8483E46B94633
:1080A000BA463C46457807E0204600F07DFA407825
:1080B000641C0644E4B27F1CAC42F5D1C6EBC60199
:1080C000DE4E0AEB870000EB8100717A00EB89003D
:1080D00000EBC100DBF804105C464518012229467C
:1080E0004046FFF72BFB070012D00020FFF796FC5D
:1080F00005000BD005F10B00616820F003008842F9
:1081000000D0FFDF7078401E707065603846A2E7CF
:10811000002229464046FFF711FB00B1FFDFD8F8E7
:10812000000060604FF6FF7060800120207000202A
:1081300091E72DE9F0410446BF4817460D46007807
:1081400008B1082012E40846F9F7A3F808B1102096
:108150000CE4BA4E307808B9FFF71FFC601E1E28E9
:1081600007D8012C3DD12878FE283AD83076002057
:10817000E8E7A4F120001F2805D8E0B23A462946D6
:10818000BDE8F0415CE4A4F140004FF000081F2876
:108190001FD8402C02D0412C23D115E028786C78D0
:1081A000012801D91320CDE7FF2C08D807F07CFE69
:1081B000074609F04DF8381A401EA04201DA122095
:1081C000C0E72888308124E02846BDE8F04100F06F
:1081D000C0BAA4F1A0001F2803D8A02C03D0A12C62
:1081E00006D00720AEE7287800F00100707610E096
:1081F00029680920F829A5D38A07A3D1727B02F048
:108200000302012A04D1F28AD73293B28B4299D861
:10821000F161404696E72DE9F04781460E46084653
:10822000F9F75DF848B94846F9F777F828B909F140
:10823000030020F00301494502D01020BDE8F0877B
:108240007E484FF0000A3430817869B14178804629
:1082500000EB41140834378832460021204600F0F4
:108260005EFA050004D027E0A6F800A00520E5E7A7
:10827000B9F1000F24D03088B84201D90C251FE095
:10828000607800F00705284600F035FA08EB05078E
:10829000324697F8E8014946401C87F8E801204635
:1082A00007F5F47700F03BFA05463878401E387041
:1082B000032000F020FA2DB10C2D01D0A6F800A06B
:1082C0002846BBE760785C4E00F00701012923D007
:1082D00002290CD0032933D0FFDF98F80110404663
:1082E000491CC9B288F801100F2934D035E0616803
:1082F00021B1000702D46088FFF708FE98F8EA0170
:108300004746012802D17078FAF71CFE97F9EA0176
:108310000428E2DBFFDFE0E7616819B12C22B068D6
:1083200005F030FD98F8E9014746032802D170783E
:10833000FAF708FE97F9E9010428CEDBFFDFCCE766
:10834000C00602D56088FFF7E1FD98F9EB01062829
:10835000C3DBFFDFC1E780F801A08178491E81708F
:10836000617801F0070101EB080090F8E811491C61
:1083700080F8E811A4E770B50D460446F8F789FFC8
:1083800018B92846F8F7ABFF08B1102070BD294690
:108390002046BDE8704007F0CEBB70B5054607F03B
:1083A000EDFBC4B22846F8F7B8FF08B1102070BD45
:1083B00035B128782C7018B1A04201D0072070BDCB
:1083C0002046FDF7C1FE052805D107F0DBFB01289B
:1083D00001D0002070BD0F2070BD70B50446154659
:1083E0000E460846F8F755FF18B92846F8F777FF04
:1083F00008B1102070BD022C03D0102C01D0092030
:1084000070BD2A463146204607F0C5FB0028F7D04C
:10841000052070BD70B514460D460646F8F739FFC5
:1084200038B92846F8F75BFF18B92046F8F775FF0A
:1084300030B1102070BD0000180000207402002030
:1084400022462946304607F0C5FB0028F2D0072017
:10845000F0E73EB50446F8F742FF08B110203EBDF4
:10846000684604F052FBFFF739FB0028F7D19DF86E
:1084700006002070BDF808006080BDF80A00A080EA
:1084800000203EBD70B505460C460846F8F745FF8E
:1084900020B93CB12068F8F722FF08B11020C9E7E5
:1084A000A08828B121462846BDE87040FDF7A4BE4B
:1084B0000920BFE770B504460D460846F8F7E9FE07
:1084C00030B9601E1E2814D82846F8F7E2FE08B11D
:1084D0001020AFE7032C01D90720ABE704B9FFDF79
:1084E000C14800EB840050F8041C2846BDE87040E9
:1084F0000847A4F120001F2805D829462046BDE8DA
:108500007040F9F763BDF02CE6D1A868F8F7C1FE1A
:108510000028DDD1284604F0F2FEBDE87040FFF7E8
:10852000DDBA70B504460D460846F8F7D8FE30B9F6
:10853000601E1E280FD82846F8F7ABFE08B11020A1
:1085400078E7012C03D0022C01D0032C01D10620A6
:1085500070E707206EE7A4F120001F28F9D829460C
:108560002046BDE87040F9F76EBD05F025B908B5A5
:10857000002918D102F052FE9C4800224178C068C0
:1085800004F0FBF999481030C0788DF8000010B164
:10859000012802D004E0012000E000208DF8000056
:1085A000684604F00AFB08BD30B5914D0446687872
:1085B000A04200D8FFDF686800EBC40030BD70B592
:1085C0008B4800252C46467807E02046FFF7ECFF55
:1085D0004078641C2844C5B2E4B2B442F5D12846C0
:1085E00028E72DE9F041054681484FF00008427A1E
:1085F0009600FF2E01D94FF013082868C01C20F008
:1086000003022A6051EA080121D17948F3B2052119
:10861000203009F073F9002408E0052C0FD2DFE8C0
:1086200004F0050307070900724804E0724802E0FD
:10863000724800E0724809F081F9074600E0FFDF68
:10864000A74200D0FFDF641CE4B2052CE5D3286804
:1086500000EB06102860404674E5021D5143452991
:1086600000D245210844C01CB0FBF2F0C0B27047F4
:108670002DE9FC5F06465E484FF000088B464746F2
:10868000444690F8019022E02046FFF78DFF050058
:1086900000D1FFDF687869463844C7B22846FFF743
:1086A00023F8824601A92846FFF732F80346BDF8B1
:1086B00004005246001D81B2BDF80000001D80B2CA
:1086C00005F05AFD6A78641C00FB0288E4B24C4550
:1086D000DAD13068C01C20F003003060BBF1000F1D
:1086E00000D000204246394605F054FD3168084468
:1086F0003060BDE8FC9F3E49343108710020C870ED
:1087000070473B493431CA782AB10A7801EB4211EB
:108710000831814201D001207047002070472DE9C7
:10872000F04106460078154600F00F040020108046
:10873000601E0F46052800D3FFDF2B482A46183855
:1087400000EB8400394650F8043C3046BDE8F04167
:10875000184738B50446407800F00300012803D0DC
:1087600002280BD0072038BD606858B1F8F7DEFD4D
:10877000D0B96068F8F7D1FD20B915E06068F8F766
:1087800088FD88B969462046FBF786FA0028EAD1B9
:10879000607800F00300022808D19DF8000028B19D
:1087A0006068F8F7BAFD08B1102038BD6189F82972
:1087B0000DD8208988420AD8607800F003020C485E
:1087C000012A06D1D731C26989B28A4201D2092071
:1087D00038BD94E80E0000F10C0585E80E000AB9DA
:1087E00000218182002038BDB488010018000020DB
:1087F00074020020011F000097B500009190000056
:10880000BBF8000070B50B2000F0B9F9082000F0AB
:10881000B6F900210B2000F0D0F90021082000F06B
:10882000CCF9EE4C01256560A5600020C4F840013C
:10883000C4F84401C4F848010B2000F0B1F9082045
:1088400000F0AEF90B2000F08DF9256070BD10B579
:108850000B2000F094F9082000F091F9DF48012185
:1088600041608160DE490A68002AFCD10021C0F81D
:108870004011C0F84411C0F848110B2000F090F9E5
:10888000BDE81040082000F08BB910B50B2000F0B7
:1088900087F9BDE81040082000F082B900B530B17A
:1088A000012806D0022806D0FFDF002000BDCD48F9
:1088B00000BDCD4800BDCC48001D00BD70B5CB4902
:1088C0004FF000400860CA4DC00BC5F80803C94806
:1088D00000240460C5F840410820C43500F04FF979
:1088E000C5F83C41C448047070BD08B5BB4A0021BE
:1088F00028B1012811D002281CD0FFDF08BD4FF499
:108900008030C2F80803C2F84803B5483C30016023
:10891000C2F84011BDE80840D0E74FF40030C2F87B
:108920000803C2F84803AE4840300160C2F8441161
:10893000AD480CE04FF48020C2F80803C2F84803A9
:10894000A74844300160C2F84811A748001D0068DC
:10895000009008BD70B516460D460446022800D9A1
:10896000FFDF00229D48012304F110018B4000EB42
:108970008401C1F8405526B1C1F84021C0F8043344
:1089800003E0C0F80833C1F84021C0F8443370BD9B
:108990002DE9F0411D46144630B1012833D002289C
:1089A00038D0FFDFBDE8F081891E002221F07F4131
:1089B0001046FFF7CFFF012D23D000208E4D8C4FA6
:1089C000012668703E618B4900203C390860022016
:1089D000091D0860874904203039086085483D3406
:1089E000046008206C6000F0DBF83004C7F8040372
:1089F000082000F0B7F87D49F007091F08602E70C5
:108A0000D0E70120DAE7012B02D00022012005E0A7
:108A10000122FBE7012B04D000220220BDE8F04137
:108A200098E70122F9E76E480068704770B56B4C13
:108A3000D4F840010025012809D1D4F80803C00367
:108A400005D54FF48030C4F80803C4F84051D4F879
:108A5000440101280CD1D4F80803800308D54FF451
:108A60000030C4F80803C4F84451012008F07FF82E
:108A7000D4F8480101280ED1D4F8080340030AD5E0
:108A80004FF48020C4F80803C4F84851BDE8704092
:108A9000022008F06CB870BD10B5574C207850B16A
:108AA000FFF70CFF6078002807D000206070BDE859
:108AB000104008F05CB80320F9E710BD4FF0E0214A
:108AC0004FF40010C1F800027047152000F068B89C
:108AD000474901200861082000F062B844494FF47A
:108AE0007C10C1F8080300204FEA000201EB80036C
:108AF000C3F84025C3F84021401CC0B20628F5D376
:108B00007047410A43F609525143C0F3080010FB75
:108B100002F000F5807001EB5020704710B5430B58
:108B200048F2376463431B0C5C020C60334C03FB5C
:108B30000400334B4CF2F72443435B0D13FB04F466
:108B400004EB402000F58070401210700868184453
:108B5000086010BD28484068704725490120C1F8C9
:108B600000027047002809DB00F01F02012191403C
:108B70004009800000F1E020C0F800117047002893
:108B80000DDB00F01F02012191404009800000F13F
:108B9000E020C0F88011BFF34F8FBFF36F8F704795
:108BA000002809DB00F01F020121914040098000EC
:108BB00000F1E020C0F8801270474907090E002834
:108BC00004DB00F1E02080F80014704700F00F0093
:108BD00000F1E02080F8141D7047000000B0004054
:108BE00004B500404081004044B1004008F5014018
:108BF00000800040408500402C000020F7C2FFFFAD
:108C00006F0C010010B5EFF3108000F0010472B694
:108C1000FE484178491C41704078012801D108F094
:108C200087FB002C00D162B610BD70B5F74CA07860
:108C300048B90125A570FFF7E5FF08F08AFB20B1D0
:108C4000002008F054FB002070BD4FF08040E5701C
:108C5000C0F80453F7E770B5EFF3108000F001059A
:108C600072B6EA4C607800B9FFDF6078401E607031
:108C7000607808B908F060FB002D00D162B670BDC5
:108C8000E24810B5817821B10021C1708170FFF7F1
:108C9000E2FF002010BD10B5044608F05AFBDB4986
:108CA0008978084000D001202060002010BD10B558
:108CB000FFF7A8FF08F04DFB02220123D349540718
:108CC00028B1D348026023610320087202E00A72CF
:108CD000C4F804330020887110BD2DE9F84FDFF887
:108CE0002C934278817889F80420002689F80510B1
:108CF000074689F806600078DFF818B3354620B1DA
:108D0000012811D0022811D0FFDF08F034FB4FF00A
:108D1000804498B108F036FBB0420FD1304608F0DD
:108D200035FB0028FAD041E00126EEE7FFF76AFFA5
:108D300058460168C907FCD00226E6E70120E0603A
:108D4000C4F80451B4490E600107D1F84412B24A84
:108D5000C1F3423124321160AF49343108604FF021
:108D6000020AC4F804A3A060AC480168C94341F3F7
:108D7000001101F10108016841F01001016000E0FB
:108D800020BFD4F804010028FAD0304608F0FEFADB
:108D90000028FAD0B8F1000F04D1A048016821F0F2
:108DA00010010160C4F808A3C4F8045199F8050043
:108DB0004E4680B1387870B908F0CBFA804608F09A
:108DC0005FFC6FF00042B8F1000F02D0C6E903204B
:108DD00001E0C6E90302DBF80000C00701D008F09B
:108DE000B4FA387810B13572BDE8F88F4FF0180832
:108DF000C4F808830127A7614FF4A070ADF8000004
:108E0000BDF80000411EADF80010F9D2C4F80C51B5
:108E1000C4F810517D48C01D08F0CAFA3570FFF73C
:108E200046FF67617C49307920310860C4F80483CB
:108E3000DAE770B5050000D1FFDF4FF080424FF058
:108E4000FF30C2F808030021C2F80011C2F8041173
:108E5000C2F80C11C2F810116C4C617008F085FA60
:108E600010B10120A07060706A480068C00701D08E
:108E700008F06BFA2846BDE870402EE76348007A98
:108E8000002800D0012070472DE9F84F4FF08044B2
:108E9000D4F8080100B10120D4F8001111B14FF04D
:108EA000010801E04FF00008D4F8041101B10121DC
:108EB0008B46D4F80C1101B101218A46D4F8101167
:108EC00001B10121514D894629780026009120B138
:108ED000C4F80861012008F00AFA4C48C01D08F0E7
:108EE0006FFA00B1FFDF0127B8F1000F10D0C4F80E
:108EF0000873E87818B1EE70002008F0F8F9287AC5
:108F0000022805D10320287241480221016027610F
:108F1000BBF1000F01D0C4F80461BAF1000F0AD010
:108F2000C4F80C61287A032800D0FFDF38480660B7
:108F30002F72FFF790FEB9F1000F07D0C4F810614F
:108F4000287A012801D100F049F86761009838B10A
:108F50002E70287A012801D1FFF7A9FEFFF77BFECA
:108F6000BDE8F84F2948C01D08F040BA274810B5A1
:108F7000C01D08F025FA254940B1012008704FF0C6
:108F8000E021C1F80002BDE810403BE6087A012864
:108F900001D1FFF78CFE1D48BDE81040C01D08F050
:108FA00025BA70B5194CA07808B908F0C5F90120A8
:108FB0008507A861207A0026032809D1D5F80C017D
:108FC00020B9002008F0E2F90028F7D1C5F80C61BB
:108FD00026724FF0FF30C5F8080370BD70B50B4C1A
:108FE000607930B3012803D0A179401E814222DA92
:108FF00008F0AFF9054608F043FB6179012902D971
:10900000A179491CA1715DB121690AE034000020F9
:10901000340C00400C0400401805004010ED00E046
:10902000E168411A022902DA11F1020F06DC0DB1E2
:10903000206100E0E060BDE8704038E670BD0000EF
:109040000F4A12680D498A420CD118470C4A12681F
:109050000A4B9A4206D101B508F0E4FAF9F738FF55
:10906000BDE801400749096809580847064807490B
:10907000054A064B7047000000000000BEBAFECA59
:109080004C00002004000020D80C0020D80C002048
:1090900070B50C46054600F045FB21462846BDE864
:1090A000704001F02ABC0000F8B51D46DDE9064716
:1090B0000E000AD005F026F92346FF1DBCB231464A
:1090C0002A46009404F051FDF8BDD01922461946F5
:1090D0000FF076F92046F8BD70B50D460446102114
:1090E0000FF0EDF9258117206081A07B40F00A0088
:1090F000A07370BD4FF6FF720A800146022008F08F
:10910000D7BC704700897047827BD30701D1920793
:1091100003D4808908800020704705207047827B37
:10912000920700D58181704701460020098841F6E9
:10913000FE52114200D00120704700B50346807BEB
:10914000C00701D0052000BD59811846FFF7ECFF8C
:10915000C00703D0987B40F004009873987B40F0E0
:1091600001009873002000BD827B520700D509B131
:109170004089704717207047827B61F3C302827376
:1091800070472DE9FC5F0E460446017896460120A3
:1091900000FA01F14DF6FF5201EA020962684FF64A
:1091A000FF7B1188594502D10920BDE8FC9FB9F128
:1091B000000F05D041F6FE55294201D00120F4E709
:1091C00041EA090111801D0014D000232B7094F88E
:1091D00000C0052103221F464FF0020ABCF10E0F0A
:1091E00076D2DFE80CF0F909252F47646B774791B9
:1091F00093B4D1D80420D8E7616820898B7B9B0782
:1092000067D517284AD30B89834247D38989172901
:1092100001D3814242D185F800A0A5F80100328037
:10922000616888816068817B21F002018173C6E0FA
:10923000042028702089A5F801006089A5F80300A2
:109240003180BCE0208A3188C01D1FFA80F841457A
:1092500024D3062028702089A5F801006089A5F88C
:109260000300A089A5F805000721208ACDE90001A7
:10927000636941E00CF0FF00082810D00820287036
:109280002089A5F801006089A5F8030031806A1DD6
:10929000694604F10C0006F09DFC10B15EE0102060
:1092A000EDE730889DF800100844308087E00A2000
:1092B00028702089A5F80100328044E00C20287035
:1092C0002089A5F801006089A5F8030031803AE003
:1092D00082E064E02189338800EB41021FFA82F8C2
:1092E00043453BD3B8F1050F38D30E222A700BEA61
:1092F0004101CDE90010E36860882A467146FFF716
:10930000D3FEA6F800805AE040202870608931889A
:10931000C01C1FFA80F8414520D32878714620F000
:109320003F00123028702089A5F801006089CDE93E
:10933000000260882A46E368FFF7B6FEA6F80080C0
:10934000287840063BD461682089888037E0A0896E
:109350003288401D1FFA80F8424501D204273DE0C3
:10936000162028702089A5F801006089A5F803005F
:10937000A089CDE9000160882A4671462369FFF77C
:1093800093FEA6F80080DEE718202870207A687027
:10939000A6F800A013E061680A88920401D40527AA
:1093A0001CE0C9882289914201D0062716E01E21BF
:1093B000297030806068018821F400510180B9F182
:1093C000000F0BD0618878230022022008F0C6FA33
:1093D00061682078887006E0338003276068018820
:1093E00021EA090101803846DFE62DE9FF4F85B00B
:1093F0001746129C0D001E461CD03078C10703D0C2
:1094000000F03F00192801D9012100E00021204689
:10941000FFF7AAFEA8420DD32088A0F57F41FF39AF
:1094200008D03078410601D4000605D5082009B0DF
:10943000BDE8F08F0720FAE700208DF800008DF8D6
:10944000010030786B1E00F03F0C0121A81E4FF088
:10945000050A4FF002094FF0030B9AB2BCF1200F3E
:1094600075D2DFE80CF08B10745E7468748C749C99
:1094700074B674BB74C974D574E2747474F274F005
:1094800074EF74EE748B052D78D18DF80090A07870
:109490008DF804007088ADF8060030798DF8010071
:1094A000707800F03F000C2829D00ADCA0F10200FF
:1094B000092863D2DFE800F0126215621A621D62A9
:1094C0002000122824D004DC0E281BD01028DBD169
:1094D0001BE016281FD01828D6D11FE0207880075F
:1094E00001E020784007002848DAEFE02078000704
:1094F000F9E72078C006F6E720788006F3E72078C1
:109500004006F0E720780006EDE72088C005EAE78E
:1095100020884005E7E720880005E4E72088C004AC
:10952000E1E72078800729D5032D27D18DF800B0F9
:10953000B6F8010082E0217849071FD5062D1DD31A
:1095400081B27078012803D0022817D102E0CAE066
:10955000022000E0102004228DF8002072788DF89F
:109560000420801CB1FBF0F2ADF8062092B2424319
:109570008A4203D10397ADF80890A7E07AE02078FB
:10958000000777D598B282088DF800A0ADF80420C6
:10959000B0EB820F6ED10297ADF8061096E02178FD
:1095A000C90667D5022D65D381B206208DF800006B
:1095B000707802285ED300BFB1FBF0F28DF8040092
:1095C000ADF8062092B242438A4253D1ADF80890DA
:1095D0007BE0207880064DD5072003E02078400608
:1095E0007FD508208DF80000A088ADF80400ADF804
:1095F0000620ADF8081068E02078000671D5092033
:10960000ADF804208DF80000ADF8061002975DE07B
:109610002188C90565D5022D63D381B20A208DF852
:109620000000707804285CD3C6E72088400558D530
:10963000012D56D10B208DF80000A088ADF8040054
:1096400044E021E026E016E0FFE72088000548D549
:10965000052D46D30C208DF80000A088ADF804003D
:10966000B6F803006D1FADF80850ADF80600ADF870
:109670000AA02AE035E02088C00432D5012D30D17F
:109680000D208DF8000021E02088800429D4B6F850
:109690000100E080A07B000723D5032D21D3307883
:1096A00000F03F001B2818D00F208DF80000208804
:1096B00040F40050A4F80000B6F80100ADF8040032
:1096C000ED1EADF80650ADF808B003976946059851
:1096D000FBF7C2FA050008D016E00E208DF8000056
:1096E000EAE7072510E008250EE0307800F03F009B
:1096F0001B2809D01D2807D00220059908F0D8F9A9
:10970000208800F400502080A07B400708D5204628
:10971000FFF70AFDC00703D1A07B20F00400A0736F
:10972000284684E61FB5022806D101208DF80000E6
:1097300088B26946FBF790FA1FBD0000F8B51D46D8
:10974000DDE906470E000AD004F0DCFD2346FF1DCC
:10975000BCB231462A46009404F007FAF8BDD0198D
:10976000224619460EF02CFE2046F8BD2DE9FF4F8B
:109770008DB09B46DDE91B57DDF87CA00C46082B1D
:1097800005D0E06901F002F950B11020D2E028883C
:10979000092140F0100028808AF80010022617E006
:1097A000E16901208871E2694FF420519180E169FB
:1097B0008872E06942F601010181E069002181734C
:1097C0002888112140F0200028808AF80010042603
:1097D00038780A900A2038704FF0020904F1180016
:1097E0004D460C9001F095FBB04681E0BBF1100FA7
:1097F0000ED1022D0CD0A9EB0800801C80B20221F2
:10980000CDE9001005AB52461E990D98FFF796FF63
:10981000BDF816101A98814203D9F74800790F90C5
:1098200004E003D10A9808B138702FE04FF002012C
:10983000CDE900190DF1160352461E990D98FFF758
:109840007DFF1D980088401B801B83B2C6F1FF007E
:10985000984200D203461E990BA8D9B15FF00002CE
:10986000DDF878C0CDE9032009EB060189B2CDE926
:1098700001C10F980090BDF8161000220D9801F05C
:10988000CBFB387070B1C0B2832807D0BDF816008A
:1098900020833AE00AEB09018A19E1E7022011B0BE
:1098A000BDE8F08FBDF82C00811901F0FF08022DF2
:1098B0000DD09AF80120424506D1BDF82010814212
:1098C00007D0B8F1FF0F04D09AF801801FE08AF8A2
:1098D0000180C94800680178052902D1BDF8161039
:1098E000818009EB08001FFA80F905EB080085B2BA
:1098F000DDE90C1005AB0F9A01F00EFB28B91D989D
:109900000088411B4145BFF671AF022D13D0BBF15A
:10991000100F0CD1A9EB0800801C81B20220CDE908
:10992000000105AB52461E990D98FFF707FF1D98E1
:109930000580002038700020B1E72DE9F8439C46EF
:10994000089E13460027B26B9AB3491F8CB2F18F61
:10995000A1F57F45FF3D05D05518AD882944891DE7
:109960008DB200E000252919B6F83C800831414548
:1099700020D82A44BCF8011022F8021BBCF80310BE
:1099800022F8021B984622F8024B914604F0A8FCEC
:109990004FF00C0C41464A462346CDF800C004F077
:1099A000B0F8F587B16B00202944A41D214408803C
:1099B00003E001E0092700E083273846BDE8F8838B
:1099C00010B50B88848F9C420CD9846BE0180488F6
:1099D00044B1848824F40044A41D23440B80106007
:1099E000002010BD0A2010BD2DE9F0478AB00025E7
:1099F000904689468246ADF8185007274BE00598F7
:109A000006888088000446D4A8F8006007A801955D
:109A100000970295CDE903504FF4007300223146C0
:109A2000504601F0F9FA04003CD1BDF81800ADF839
:109A30002000059804888188B44216D10A0414D401
:109A400001950295039521F400410097049541F496
:109A5000804342882146504601F0B4F804000BD1FF
:109A60000598818841F40041818005AA08A94846EB
:109A7000FFF7A6FF0400DCD000970598029501953A
:109A8000039504950188BDF81C300022504601F072
:109A900099F80A2C06D105AA06A94846FFF790FFB7
:109AA0000400ACD0ADF8185004E00598818821F48A
:109AB0000041818005AA06A94846FFF781FF0028DA
:109AC000F3D00A2C03D020460AB0BDE8F08700206E
:109AD000FAE710B50C46896B86B051B10C218DF8B0
:109AE0000010A18FADF80810A16B01916946FCF739
:109AF00062F800204FF6FF71A063E187A08706B0EF
:109B000010BD2DE9F0410D460746896B0020069EE9
:109B10001446002911D0012B0FD132462946384670
:109B2000FFF762FF002808D1002C06D032462946F4
:109B30003846BDE8F04100F038BFBDE8F0812DE9BE
:109B4000FC411446DDE9087C0E46DDE90A15521D8C
:109B5000BCF800E092B2964502D20720BDE8FC8135
:109B6000ACF8002017222A70A5F80160A5F8033090
:109B70000522CDE900423B462A46FFF7DFFD0020E3
:109B8000ECE770B50C461546482120460EF0B9FCAE
:109B900004F1080044F81C0F00204FF6FF71E0614B
:109BA00061842084A5841720E08494F82A0040F082
:109BB0000A0084F82A0070BD4FF6FF720A80014641
:109BC000032007F075BF30B585B00C460546FFF79A
:109BD00080FFA18E284629B101218DF80010694629
:109BE000FBF7E9FF0020E0622063606305B030BD51
:109BF000B0F84000704700005000002090F8462068
:109C0000920703D4408808800020F3E70620F1E79C
:109C100090F846209207EDD5A0F84410EAE70146F7
:109C2000002009880A0700D5012011F0F00F01D0AB
:109C300040F00200CA0501D540F004008A0501D5B4
:109C400040F008004A0501D540F010000905D1D5C3
:109C500040F02000CEE700B5034690F84600C0076C
:109C600001D0062000BDA3F842101846FFF7D7FF29
:109C700010F03E0F05D093F8460040F0040083F842
:109C8000460013F8460F40F001001870002000BD98
:109C900090F84620520700D511B1B0F84200A9E76C
:109CA0001720A7E710F8462F61F3C3020270A1E75F
:109CB0002DE9FF4F9BB00E00DDE92B34DDE929785B
:109CC000289D24D02878C10703D000F03F00192830
:109CD00001D9012100E000212046FFF7D9FFB04261
:109CE00015D32878410600F03F010CD41E290CD072
:109CF000218811F47F6F0AD13A8842B1A1F57F42E1
:109D0000FF3A04D001E0122901D1000602D5042057
:109D10001FB0C5E5F9491D984FF0000A08718DF88C
:109D200018A08DF83CA00FAA0A60ADF81CA0ADF8F1
:109D300050A02978994601F03F02701F5B1C04F186
:109D4000180C4FF0060E4FF0040BCDF858C01F2A28
:109D50007ED2DFE802F07D7D107D267DAC7DF47D36
:109D6000F37DF27DF17DF47DF07D7D7DEF7DEE7DF7
:109D70007D7D7D7DED0094F84610B5F801008907E2
:109D800001D5032E02D08DF818B022E34FF4006104
:109D9000ADF85010608003218DF83C10ADF8400004
:109DA000D8E2052EEFD1B5F801002083ADF81C00F4
:109DB000B5F80310618308B1884201D901207FE121
:109DC0000020A07220814FF6FF702084169801F0C9
:109DD000A0F8052089F800000220029083460AAB13
:109DE0001D9A16991B9801F097F890BB9DF82E00CC
:109DF000012804D0022089F80100102003E001208E
:109E000089F8010002200590002203A90BA805F0A3
:109E1000E1FEE8BB9DF80C00059981423DD13A88EE
:109E2000801CA2EB0B01814237DB02990220CDE9B5
:109E300000010DF12A034A4641461B98FFF77EFCBC
:109E400002980BF1020B801C80B217AA03A901E053
:109E5000A0E228E002900BA805F0BCFE02999DF854
:109E60000C00CDE9000117AB4A4641461B98FFF7AD
:109E700065FC9DF80C100AAB0BEB01001FFA80FB90
:109E800002981D9A084480B2029016991B9800E02F
:109E900003E001F041F80028B6D0BBF1020F02D078
:109EA000A7F800B053E20A208DF818004FE2002115
:109EB0000391072EFFF467AFB5F801002083ADF8DA
:109EC0001C00B5F80320628300283FF477AF90426E
:109ED0003FF674AF0120A072B5F805002081002084
:109EE000A073E06900F052FD78B9E1690120887142
:109EF000E2694FF420519180E1698872E06942F68D
:109F000001010181E06900218173F01F20841E9806
:109F1000606207206084169800F0FBFF072089F834
:109F200000000120049002900020ADF82A0028E0F3
:109F30001DE2A3E13AE1EAE016E2AEE086E049E0A4
:109F40000298012814D0E0698079012803D1BDF876
:109F50002800ADF80E00049803ABCDE900B04A46E6
:109F600041461B98FFF7EAFB0498001D80B204905D
:109F7000BDF82A00ADF80C00ADF80E00059880B2CF
:109F800002900AAB1D9A16991B9800F0C5FF28B9DC
:109F900002983988001D05908142D1D2029801288B
:109FA00081D0E0698079012805D0BDF82810A1F59D
:109FB0007F40FF3803D1BDF82800ADF80E000498AB
:109FC00003ABCDE900B04A4641461B98FFF7B6FB0C
:109FD0000298BBE1072E02D0152E7FF4D4AEB5F85F
:109FE00001102183ADF81C10B5F80320628300290D
:109FF0003FF4E4AE91423FF6E1AE0121A1724FF091
:10A00000000BA4F808B084F80EB0052E07D0C0B23B
:10A01000691DE26905F0BFFD00287FF444AF4FF6EB
:10A02000FF70208401A906AA14A8CDF800B081E829
:10A0300085032878214600F03F031D9A1B98FFF7FF
:10A0400095FB8246208BADF81C0080E10120032E99
:10A05000C3D14021ADF85010B5F801102183ADF8FF
:10A060001C100AAAB8F1000F00D00023CDE90203AA
:10A0700004921D98CDF80480009038880022401E7C
:10A0800083B21B9800F0C8FF8DF8180090BB0B201E
:10A0900089F80000BDF8280037E04FF0010C052ECC
:10A0A0009BD18020ADF85000B5F801102183B5F8A0
:10A0B00003002084ADF81C10B0F5007F03D9072001
:10A0C0008DF8180085E140F47C4222840CA8B8F198
:10A0D000000F00D00023CDE90330CDE9018C1D989D
:10A0E00000903888401E83B21B9800F095FF8DF8D1
:10A0F000180028B18328A8D10220BDE0500000201C
:10A100000D2189F80010BDF83000401C1EE1032E1F
:10A1100004D248067FF537AE002017E1B5F80110EC
:10A12000ADF81C102878400602D58DF83CE002E01E
:10A1300007208DF83C004FF000080320CDE902080D
:10A140001E9BCDF810801D980193A6F1030B009083
:10A150001FFA8BF342461B9800F034FD8DF818006F
:10A160008DF83C80297849060DD52088C00506D594
:10A17000208BBDF81C10884201D1C4F824804046D1
:10A180008DF81880E2E0832801D14FF0020A4FF4E5
:10A190008070ADF85000BDF81C002083A4F820B0FA
:10A1A0001E986062032060841321CCE0052EFFF42A
:10A1B000EAADB5F80110ADF81C10A28F62B3A2F59C
:10A1C0007F43FE3B28D008228DF83C204FF0000B47
:10A1D0000523CDE9023BDDF878C0CDF810B01D9A1B
:10A1E00080B2CDF804C040F400430092B5F80320DB
:10A1F0001B9800F0E7FC8DF83CB04FF400718DF82F
:10A200001800ADF85010832810D0F8B1A18FA1F537
:10A210007F40FE3807D0DCE00B228DF83C204FF663
:10A22000FE72A287D2E7A4F83CB0D2E000942B469D
:10A2300031461E9A1B98FFF780FB8DF8180008B175
:10A2400083284BD1BDF81C00208355E700942B4692
:10A2500031461E9A1B98FFF770FB8DF81800E8BB7B
:10A26000E18FA06B0844811D8DE8820343888288BA
:10A2700001881B98FFF763FC824668E095F801802F
:10A28000022E70D15FEA080002D0B8F1010F6AD146
:10A2900009208DF83C0007A800908DF840804346C7
:10A2A000002221461B98FFF72CFC8DF842004FF04E
:10A2B000000B8DF843B050B9B8F1010F12D0B8F1CE
:10A2C000000F04D1A18FA1F57F40FF380AD0A08FE5
:10A2D00040B18DF83CB04FF4806000E037E0ADF85D
:10A2E00050000DE00FA91B98FBF765FC82468DF826
:10A2F0003CB04FF48060ADF85000BAF1020F06D0C8
:10A30000FC480068C07928B18DF8180027E0A4F84F
:10A31000188044E0BAF1000F03D081208DF81800B6
:10A320003DE007A800904346012221461B98FFF715
:10A33000E8FB8DF8180021461B98FFF7CAFB9DF833
:10A34000180020B9192189F80010012038809DF8E3
:10A350003C0020B10FA91B98FBF72DFC8246BAF1F7
:10A36000000F33D01BE018E08DF818E031E02078C2
:10A37000000712D5012E10D10A208DF83C00E0888C
:10A38000ADF8400003201B9907F092FB0820ADF8C0
:10A390005000C1E648067FF5F6AC4FF0040A20886D
:10A3A000BDF8501008432080BDF8500080050BD543
:10A3B000A18FA1F57F40FE3806D11E98E062289853
:10A3C0002063A6864FF0030A5046A1E49DF81800CA
:10A3D00078B1012089F80000297889F80110BDF8CA
:10A3E0001C10A9F802109DF8181089F80410052017
:10A3F00038802088BDF8501088432080E4E72DE99C
:10A40000FF4F8846087895B0012181404FF209003E
:10A41000249C0140ADF820102088DDF88890A0F53C
:10A420007F424FF0000AFF3A06D039B1000705D548
:10A43000012019B0BDE8F08F0820FAE7239E4FF005
:10A44000000B0EA886F800B018995D460988ADF893
:10A450003410A8498DF81CB0179A0A718DF838B0DD
:10A46000086098F8000001283BD0022809D0032892
:10A470006FD1307820F03F001D303070B8F8040004
:10A48000E08098F800100320022904D1317821F0EF
:10A490003F011B31317094F84610090759D505ABBF
:10A4A000B9F1000F13D0002102AA82E80B000720A7
:10A4B000CDE90009BDF83400B8F80410C01E83B21D
:10A4C0000022159800F0A8FD0028D1D101E0F11C70
:10A4D000EAE7B8F80400A6F80100BDF81400C01CB3
:10A4E00004E198F805108DF81C1098F80400012874
:10A4F00006D04FF4007A02282CD00328B8D16CE1A2
:10A500002188B8F8080011F40061ADF8201020D0BF
:10A5100017281CD3B4F84010814218D3B4F8441063
:10A52000172901D3814212D1317821F03F01C91C92
:10A530003170A6F801000321ADF83410A4F84400EE
:10A5400094F8460020F0020084F8460065E10525F5
:10A550007EE177E1208808F1080700F4FE60ADF89D
:10A56000200010F0F00F1BD010F0C00F03D038887F
:10A57000228B9042EBD199B9B878C00710D0B96856
:10A580000720CDE902B1CDF804B00090CDF810B0AD
:10A59000FB88BA883988159800F014FB0028D6D1BA
:10A5A0002398BDF82010401C80294ED006DC1029CD
:10A5B0000DD020290BD0402987D124E0B1F5807F30
:10A5C0006ED051457ED0B1F5806F97D1DEE0C806E0
:10A5D00001D5082000E0102082460DA907AA052019
:10A5E000CDE902218DF83800ADF83CB0CDE90496F4
:10A5F00008A93888CDE9000153460722214615985D
:10A60000FFF7B4F8A8E09DF81C2001214FF00A0ADA
:10A61000002A9BD105ABB9F1000F00D00020CDE995
:10A6200002100720CDE90009BDF834000493401E54
:10A6300083B2218B0022159800F0EEFC8DF81C00EF
:10A640000B203070BDF8140020E09DF81C20012183
:10A650004FF00C0A002A22D113ABB9F1000F00D041
:10A660000020CDE902100720CDE900090493BDF8D0
:10A670003400228C401E83B2218B159800F0CCFC54
:10A680008DF81C000D203070BDF84C00401CADF85A
:10A69000340005208DF83800208BADF83C00BCE07C
:10A6A0003888218B88427FF452AF9DF81C004FF010
:10A6B000120A00281CD1606AA8B1B878C0073FF41C
:10A6C00046AF00E018E0BA680720CDE902B2CDF845
:10A6D00004B00090CDF810B0FB88BA88159800F04F
:10A6E00071FA8DF81C00132030700120ADF8340091
:10A6F00093E00000500000203988208B8142D2D1A5
:10A700009DF81C004FF0160A0028A06B08D0E0B39B
:10A710004FF6FF7000215F46ADF808B0019027E0CA
:10A7200068B1B978C907BED1E18F0DAB0844821D6D
:10A7300003968DE80C0243888288018809E0B87886
:10A74000C007BCD0BA680DAB03968DE80C02BB887D
:10A75000FA881598FFF7F3F905005ED0072D72D03F
:10A7600076E0019005AA02A92046FFF729F90146E3
:10A77000E28FBDF80800824201D00029F1D0E08FBD
:10A78000A16B084407800198E08746E09DF81C0013
:10A790004FF0180A40B1208BC8B138882083214679
:10A7A0001598FFF796F938E004F118000090237E21
:10A7B000012221461598FFF7A4F98DF81C00002806
:10A7C000EDD1192030700120ADF83400E7E7052500
:10A7D00021461598FFF77DF93AE0208800F40070D3
:10A7E000ADF8200050452DD1A08FA0F57F41FE3956
:10A7F00001D006252CE0D8F808004FF0160A48B121
:10A80000A063B8F80C10A1874FF6FF71E187A0F89C
:10A8100000B002E04FF6FF70A087BDF8200030F4D2
:10A820007F611AD0782300220320159907F096F84B
:10A8300098F8000020712088BDF82010084320807F
:10A840000EE000E007252088BDF820108843208016
:10A85000208810F47F6F1CD03AE02188814321804A
:10A860009DF8380020B10EA91598FBF7A4F905460C
:10A870009DF81C000028EBD086F801A00120307064
:10A88000208B70809DF81C0030710520ADF83400DD
:10A89000DEE7A18EE1B118980DAB0088ADF8340069
:10A8A0002398CDE90304CDE90139206B0090E36AD8
:10A8B000179A1598FFF7FCF9054601208DF8380026
:10A8C0000EA91598FBF777F900B10546A4F834B046
:10A8D00094F8460040070AD52046FFF7A0F910F08B
:10A8E0003E0F04D114F8460F20F004002070189891
:10A8F000BDF83410018028469BE500B585B00328DB
:10A9000006D102208DF8000088B26946FBF753F9A2
:10A9100005B000BD10B5384C0B782268012B02D071
:10A92000022B2AD111E013780BB1052B01D104239E
:10A93000137023688A889A802268CB88D380226823
:10A940000B891381498951810DE08B88938022689E
:10A95000CB88D38022680B8913814B8953818B89E3
:10A960009381096911612168FBF725F922680021AB
:10A970000228117003D0002800D0812010BD832050
:10A9800010BD806B002800D001207047817801291C
:10A9900009D10088B0F5205F03D042F6010188425A
:10A9A00001D10020704707207047F0B587B0002420
:10A9B00015460E460746ADF8184011E00598008888
:10A9C000288005980194811DCDE902410721049456
:10A9D0000091838842880188384600F0F3F830B946
:10A9E00005AA06A93046FEF7EBFF0028E6D00A28A4
:10A9F00000D1002007B0F0BD5000002010B58B78CA
:10AA000083B102789A4205D10B885BB102E08B7961
:10AA1000091D4BB18B789A42F9D1B0F801300C88FE
:10AA2000A342F4D1002010BD812010BD072826D0FC
:10AA300012B1012A27D103E0497801F0070102E0B1
:10AA40004978C1F3C20105291DD2DFE801F00318DE
:10AA5000080C12000AB10320704702207047042836
:10AA60000DD250B10DE0052809D2801E022808D36E
:10AA700003E0062803D0032803D0052070470020F8
:10AA800070470F20704781207047C0B282060BD4F8
:10AA9000000607D5FE48807A4143C01D01EBD00077
:10AAA00080B27047084670470020704770B5138821
:10AAB0000B800B781C0625D5F54CA47A844204D86B
:10AAC00043F010000870002070BD956800F0070684
:10AAD00005EBD0052D78F54065F304130B70137862
:10AAE000D17803F0030341EA032140F20123B1FBD3
:10AAF000F3F503FB15119268E41D00FB012000EB48
:10AB0000D40070BD906870BD37B51446BDF8041010
:10AB100011809DF804100A061ED5C1F30013DC490C
:10AB2000A568897A814208D8FE2811D1C91DC908B3
:10AB30005A4228460DF0BBFC0AE005EBD00100F0BC
:10AB40000702012508789540A843934018430870F0
:10AB5000207820F0100020703EBD2DE9F04107461E
:10AB6000C81C0E4620F00300B04202D08620BDE88B
:10AB7000F081C74D002034462E60AF802881AA7234
:10AB8000E8801AE0E988491CE980810614D4E1785C
:10AB900000F0030041EA002040F20121B0FBF1F295
:10ABA00001FB12012068FFF770FF2989084480B279
:10ABB0002881381A3044A0600C3420784107E1D451
:10ABC0000020D4E72DE9FF4F89B01646DDE9168A4B
:10ABD0000F46994623F44045084600F00DFB04005B
:10ABE0000FD0099803F014FA0290207800060AD5D5
:10ABF000A748817A0298814205D887200DB0BDE828
:10AC0000F08F0120FAE7224601A90298FFF74EFFD4
:10AC1000834600208DF80C004046B8F1070F1AD08B
:10AC200001222146FFF702FF0028E7D120784006E5
:10AC300011D502208DF80C00ADF81070BDF804009D
:10AC4000ADF81200ADF814601898ADF81650CDF8B4
:10AC50001CA0ADF818005FEA094004D500252E4677
:10AC6000A84601270CE02178E07801F0030140EAD2
:10AC7000012040F20121B0FBF1F2804601FB128776
:10AC80005FEA494009D5B84507D1A178207901F09C
:10AC9000030140EA0120B04201D3BE4201D907209E
:10ACA000ACE7A8191FFA80F9B94501D90D20A5E72D
:10ACB0009DF80C0028B103A90998FAF77AFF00283B
:10ACC0009CD1B84507D1A0784FEA192161F3010062
:10ACD000A07084F804901A9800B10580199850EA81
:10ACE0000A0027D0199830B10BEB06002A461999B3
:10ACF0000DF066FB0EE00BEB06085746189E099810
:10AD000003F0EEFA2B46F61DB5B2394642460095E1
:10AD100002F0F7FE224601A90298FFF7C7FE9DF850
:10AD20000400224620F010008DF80400DDE9011037
:10AD3000FFF7EAFE002061E72DE9FF4FDFF85091B1
:10AD400082461746B9F80610D9F8000001EB410118
:10AD500000EB810440F20120B2FBF0F185B000FB72
:10AD600011764D46DDF84C8031460698FFF78DFE92
:10AD700029682A898B46611A0C3101441144AB8839
:10AD800089B28B4202D8842009B038E70699CDB247
:10AD9000290603D5A90601D50620F5E7B9F806C0AE
:10ADA0000CF1010C1FFA8CFCA9F806C0149909B12A
:10ADB000A1F800C0A90602D5C4F8088007E0104435
:10ADC00080B2A9F80800191A01EB0B00A060224616
:10ADD000FE200699FFF798FEE77026712078390A61
:10ADE00061F30100320AA17840F0040062F301012E
:10ADF000A17020709AF802006071BAF80000E0803B
:10AE000000262673280602D599F80A7000E001276B
:10AE1000A80601D54FF000084D4600244FF0070961
:10AE20000FE0CDE902680196CDF800900496E9881C
:10AE30002046129B089AFFF7C5FE0028A4D1641C87
:10AE4000E4B2BC42EDD300209EE72DE9F0478046F6
:10AE500000F0D2F9070005D0002644460C4D40F220
:10AE6000012919E00120BDE8F087204600F0C4F96F
:10AE70000278C17802F0030241EA0222B2FBF9F340
:10AE800009FB13210068FFF700FE304486B201E0A1
:10AE9000B4040020641CA4B2E988601E8142E4DC92
:10AEA000A8F10100E8802889801B288100203870E3
:10AEB000D9E710B5144631B1491E218003F0A8F836
:10AEC000A070002010BD012010BD10B5D24904466D
:10AED0000088CA88904201D30A2010BD096800EB9F
:10AEE000400001EB80025079A072D08820819178D7
:10AEF000107901F0030140EA0120A081A078E11C53
:10AF0000FFF7D4FD20612088401C2080E0800020D5
:10AF100010BD0121018270472DE9FF4F85B04FF62A
:10AF2000FF788246A3F8008048681F460D46807867
:10AF30008DF8060048680088ADF8040000208DF800
:10AF40000A00088A0C88A04200D304462C8241E003
:10AF5000288A401C2882701D6968FFF74FFDB8BB26
:10AF60003988414501D1601E38806888A04236D3B7
:10AF7000B178307901F0030140EA012901A9701D7F
:10AF8000FFF73CFD20BB298941452CD000223146EA
:10AF90000798FFF74BFDD8B92989494518D1E968C9
:10AFA0000391B5F80AC0D6F808B05046CDF800C0F5
:10AFB00003F096F9DDF800C05A460CF1070C1FFAB1
:10AFC0008CFC4B460399CDF800C002F064FD50B1F3
:10AFD000641CA4B2204600F00FF90600B8D1641E2C
:10AFE0002C820A20D0E67C807079B871F088B88015
:10AFF0003178F07801F0030140EA01207881A7F868
:10B000000C90504603F004F8324607F10801FFF7B0
:10B010004DFD38610020B7E62DE9FF4F87B081462E
:10B020001C469246DDF860B0DDF85480089800F0C8
:10B03000E3F805000CD0484602F0EAFF297809063B
:10B0400008D57549897A814204D887200BB0D6E5A6
:10B050000120FBE7CAF309062A4601A9FFF726FDEE
:10B060000746149807281CD000222946FFF7DEFC6B
:10B070000028EBD12878400613D501208DF8080070
:10B080000898ADF80C00BDF80400ADF80E00ADF85E
:10B090001060ADF8124002A94846FAF78AFD002870
:10B0A000D4D12978E87801F0030140EA0121AA7897
:10B0B000287902F0030240EA0220564507D0B1F594
:10B0C000007F04D9611E814201DD0B20BEE786426C
:10B0D00001D90720BAE7801B85B2A54200D92546D1
:10B0E000BBF1000F01D0ABF80050179818B1B91997
:10B0F0002A460DF065F9B8F1000F0DD03E444846E0
:10B100004446169F03F0FEF82146FF1DBCB23246AE
:10B110002B46009402F029FD002097E72DE9F0412D
:10B1200007461D461646084600F066F804000BD098
:10B13000384602F06DFF2178090607D53649897A2D
:10B14000814203D8872012E5012010E522463146CE
:10B15000FFF7ACFC65B12178E07801F0030140EA2B
:10B160000120B0F5007F01D8012000E00020287008
:10B170000020FCE42DE9F04107461D46164608462E
:10B1800000F03AF804000BD0384602F041FF217875
:10B19000090607D52049897A814203D88720E6E449
:10B1A0000120E4E422463146FFF7AEFCFF2D14D027
:10B1B0002178E07801F0030240EA022040F2012207
:10B1C000B0FBF2F302FB130015B900F2012080B2CC
:10B1D000E070000A60F3010121700020C7E410B59F
:10B1E0000C4600F009F828B1C18821804079A07090
:10B1F000002010BD012010BD0749CA88824209D332
:10B2000040B1096800EB40006FF00B0202EB8000D8
:10B210000844704700207047B404002010B506F0C1
:10B22000E1FDF7F781FD06F08FFCBDE8104006F068
:10B2300021BD202801D20120704700207047012243
:10B240004FF0A043824011B1C3F80C257047C3F8FA
:10B25000082570474FF0A04101228240C1F818250F
:10B26000704770B50346002002466FF02F050EE0D0
:10B270009C5CA4F130060A2E02D34FF0FF3070BD63
:10B2800000EB800005EB4000521C2044D2B28A4201
:10B29000EED370BD30B50A230BE0B0FBF3F403FB33
:10B2A0001404B0FBF3F08D183034521E05F8014C35
:10B2B000D2B2002AF1D130BD30B500234FF6FF7570
:10B2C00010E0040A44EA002084B2C85C6040C0F385
:10B2D0000314604005EA00344440E0B25B1C84EA99
:10B2E00040109BB29342ECD330BD000070B51446C1
:10B2F0000B880122A240134207D113430B80012384
:10B300000922011D02F05FFD047070BD2DE9FF4FA1
:10B3100081B00878DDE90E7B9A4691460E464007DB
:10B320002CD4019802F0EEFF040000D1FFDF07F1FA
:10B33000040820461FFA88F102F04BF9050000D1FD
:10B34000FFDF204629466A4602F095FB0098A0F8E8
:10B350000370A0F805A0284602F03BFC017869F3D1
:10B3600006016BF3C711017020461FFA88F102F045
:10B3700073F900B9FFDF019801F0B0FA06EB09009C
:10B38000017E491C017605B0BDE8F08F2DE9F84F2C
:10B390000E469A4691460746032102F06FFE044688
:10B3A000808CDFF89085002518B198F80000B04235
:10B3B0001ED1384602F0A6FF070000D1FFDF09F1D9
:10B3C0000401384689B202F004F9050010D038466D
:10B3D00029466A4602F04FFB009800210A46018088
:10B3E000817001F0E7FA0098C01DCAF8000021E062
:10B3F00098F80000B04216D104F1220734F8301F4B
:10B40000012000FA06F911EA090F00D0FFDF2088B9
:10B41000012340EA090020800922391D384602F044
:10B42000EDFC067006E0324604F1300104F1220022
:10B43000FFF75CFF092188F800102846BDE8F88F67
:10B44000FEB515460C46064602AB0C220621FFF758
:10B450009DFF002827D00299607812220A70801C74
:10B46000487008224A80A0700298298805238180AC
:10B470006988C180A9880181E988418100250C2063
:10B48000CDE90005062221463046FFF73FFF294659
:10B49000002266F31F41F023104606F05FFA607841
:10B4A000801C60700120FEBD10B50446032102F02F
:10B4B000E5FD014600F110022046BDE81040BFE75F
:10B4C0002DE9FE43814650781646884640B1FFDF9D
:10B4D0003168C8F804107168C8F80810BDE8FE8328
:10B4E000B778022417B1022F13D0FFDF251D2A469B
:10B4F00002AB07214846FFF749FF0028E8D0029831
:10B500000121022F0170317841704480878002D080
:10B5100005E00624EAE7B188C180F18801810024B2
:10B52000CDE900540523072241464846FFF7EEFEC9
:10B5300088F80440D2E710B50446032102F09EFDCE
:10B540000146021D2046BDE81040B9E7F94A002037
:10B5500009211170704770B50C46154634212046FC
:10B560000CF0CFFF01206070092104F118000CF0ED
:10B57000C8FF05B9FFDF2978207861F3010020704A
:10B5800070BD7047002110B560F31F41002006F028
:10B590008FFA002010BDFEB506460F0CFCF786FCA6
:10B5A000050007D06F800321384602F067FD0400D4
:10B5B00008D106E003B03846BDE8F0401321F7F7A4
:10B5C0008DB8FFDF0EB1FFDFFEBD20782A4620F0E8
:10B5D0000800207002208DF800004FF6FF70ADF8D3
:10B5E0000200ADF8040069463846F6F7B2FCFEBD2D
:10B5F00000B5FFDF002000BD2DE9FC410C461E46D2
:10B6000017468046032102F039FD0546092C0AD26F
:10B61000DFE804F005050505050509090700042311
:10B6200003E0062301E0FFDF0023CDE90076224698
:10B6300029464046FFF76AFEBDE8FC8138B505465D
:10B64000A0F57F40FF381CD0284602F049FE0400D8
:10B6500000D1FFDF204602F0ECF9002810D00146AF
:10B660006A46204602F007FA00980321B0F8054028
:10B67000284602F003FD052C03D1007908B1002013
:10B6800038BD012038BD2DE9F041054686B040881F
:10B6900002F026FE040000D1FFDF03AA20466968FD
:10B6A00000F037F9039C001F80B234F8031F21809B
:10B6B00061886180228882420AD104290BD0052941
:10B6C00018D0062904D16888211D6B68F7F7F0FFB0
:10B6D00006B0BDE8F0811646241D2A4621463046B4
:10B6E000F9F76FFD0828F3D12A4621463046FAF7CC
:10B6F000CAFDEDE716466888032102F0BFFC002171
:10B700008DF80010042EE3D36279002AE0D023796B
:10B7100002274FF6FF78012B28D0122B01D0132BD4
:10B720000BD00491059161798DF810106B8801465A
:10B7300004AA1846FFF7C4FECAE783789342C7D12C
:10B7400002781307C4D5062EC2D122F00802027077
:10B75000688860F31F41002006F0AAF98DF8007098
:10B76000ADF802802089ADF8040017E0062EAFD3B3
:10B7700083789342ACD102781307A9D522F008024E
:10B780000270688860F31F41002006F091F98DF87F
:10B7900000702089ADF80200ADF8048068882A4660
:10B7A0006946F6F7D6FB93E770B50D4606460321CA
:10B7B00002F064FC040004D02078000704D51120B6
:10B7C00070BD43F2020070BD2A4621463046FFF7A5
:10B7D00037FE18B92868206168686061207840F0F9
:10B7E00008002070002070BD2DE9F04F0E4691B08A
:10B7F0008046032102F042FC0446404602F082FDEE
:10B8000007460020079008900990ADF830000A9094
:10B8100002900390049004B9FFDF0DF10809FFB90D
:10B82000FFDF1DE038460BA9002201F0C5FF9DF89F
:10B830002C0000F07F05092D00D3FFDF6019017E89
:10B84000491E01769DF82C00000609D52A460CA950
:10B8500007A8FFF74BFD19F80510491C09F805105A
:10B86000761EF6B2DED204F13000324D04F1220B26
:10B87000DFF8C4A004F12607069010E058460699A8
:10B8800000F049F806462870092800D3FFDF5AF86F
:10B89000261040468847608CC05DB04202D0A08C24
:10B8A0000028EBD109202870234D4E4624350EE0A8
:10B8B0000CA907A800F02FF80446375D55F82400BE
:10B8C00000B9FFDF55F82420394640469047BDF8BF
:10B8D0001E000028ECD111B056E510B5032102F08E
:10B8E000CDFB040000D1FFDF092104F118000CF0AA
:10B8F00008FE207840F00400207010BD10B50C4602
:10B90000032102F0BBFB2044007E002800D0012070
:10B9100010BD02F0B0B810B50C4601230922011D7C
:10B9200002F087FA00782188012282409143218029
:10B9300010BD000058000020C0880100FE4A1378A6
:10B9400082F88730A2F8880082F88610012082F8F9
:10B95000840092F8600008B192F85C0082F88A00D6
:10B96000704710B50B46114658B11846FFF7E6FF71
:10B97000F2488068008802F0B3FCBDE8104002F095
:10B9800067B9BDE810404FF6FF70D7E770B5EB4ED2
:10B990000446316891F89200002501280DD091F8F5
:10B9A0008C00012818D091F8620001281ED091F86F
:10B9B0008400012838D0002070BD657017202070E9
:10B9C00051F8930FC4F802004868C4F80600087ADA
:10B9D000A07201F8015C32E0657005202070D1F89A
:10B9E0008E00C4F8020081F88C5028E065701120A8
:10B9F00020702022A01C64310CF0E2FC0121A17116
:10BA0000306880F86250CC48B0F86620A0F88E20EC
:10BA1000B268537B80F8903080F88C10108802F068
:10BA20005FFC02F024F90AE065701320207051F8E1
:10BA3000860FC4F802008888E08001F8025C0120CB
:10BA400070BDBE48006890F8621011B1B0F8660091
:10BA500070474FF6FF70704770B5B84C206800B95A
:10BA6000FFDF2068417811B10C25284670BD002504
:10BA70009C210CF046FD2168FF2008707F2081F892
:10BA8000360013204884282081F86100012081F8C5
:10BA90005800002081F85B0006F05CFD06F07CF8A1
:10BAA000E3E770B5A54C0546206800B9FFDF2168C3
:10BAB000002048706560FFF7CFFF002800D0FFDF4F
:10BAC00070BD9E4909680978814201D10120704703
:10BAD00000207047994800B5016891F82400498C0E
:10BAE000C0F38002C0F340031A4400F00100104488
:10BAF000132915D004DC102909D0122904D10FE034
:10BB0000152908D01D2904D0FFDF002000BD8C4975
:10BB100003E08C4800BD8A49083131F8100000BDAF
:10BB200087490839F9E7854840F271210068806A41
:10BB3000484370478148006890F83500002800D0DD
:10BB40000120704710B57C4C207B00F033FD40B1E4
:10BB5000207D04F115010AF009FD082801D001201B
:10BB600010BD207B30B1022804D00120BDE8104078
:10BB700007F075B80020F9E76F49087370476F49FF
:10BB8000096881F83000704770B506466A4890F839
:10BB90002D000AF079FC050018D010210AF02BFFC7
:10BBA000002813D1654C012032462168C87628460A
:10BBB0001C3107F061F8D4E900101C310BF09CF93E
:10BBC0006068BDE8704001210BF0A5B970BD2DE99A
:10BBD000F041594C074694F82D000AF0D2FC064675
:10BBE00094F82F0004F10E0528B126B194F82D0029
:10BBF0000AF0EDFBA0B194F83000002824D094F8AE
:10BC00002E00002820D0607B294600F0E4FCA8B17B
:10BC10000AF05FFD3A462946BDE8F04107F02CB82E
:10BC2000012060733A462946304607F025F894F81B
:10BC30002D102846BDE8F0410AF03ABD39462846A5
:10BC4000BDE8F04107F04CB8BDE8F08170B53B4C61
:10BC50002168087BB0B1022814D0012048730E314E
:10BC600006F0E7FF2068007B00F0A4FC216881F863
:10BC70002F00082081F82D00487B0E3100F0A2FC37
:10BC800040B901E00020E9E72168487B0E3100F06F
:10BC9000A2FC00B10120216881F82E0091F82F004C
:10BCA00018B991F82200400706D5087D15310AF031
:10BCB0005DFC216881F82D0020680025456004F0B6
:10BCC0001FFB216888600020FFF781FF2068C57690
:10BCD00090F82200400703D5BDE87040002053E7EC
:10BCE00070BD164A1268137B0370D2F80E0008600C
:10BCF000508A8880704778B50F4904460F4D407BC5
:10BD000008732A68207810706088ADF8000080B24F
:10BD100000F00101C0F3400341EA4301C0F3800396
:10BD200041EA8301C0F3C00341EAC301C0F3001339
:10BD300041EA031108E00000C00400205C0000207C
:10BD4000188901008E891300C0F3401341EA4311A2
:10BD5000C0F3801041EA80105084E07D012825D096
:10BD6000022825D0FFDF286880F85A60217B80F800
:10BD70002410418C1D291DD061688162617D80F88D
:10BD80003510A17BC1B1022916D00121017554F8EB
:10BD90000F1FC0F81510A188A0F81910217B0129E8
:10BDA00000D0002180F83410002078BD0126DAE7A9
:10BDB0000226D8E70021E0E70021E7E7F94800681C
:10BDC00090F82200C0F38000704700B5FFF7F6FF3F
:10BDD00008B1002000BD1F2000BD00B5FFF7F5FF32
:10BDE000002800D0012000BDEE4900220968CA6584
:10BDF0004B8C1D2B02D081F86000704781F86020C9
:10BE00007047E84A0023126882F8593042F8481F08
:10BE10009080012050747047E24A0023126882F833
:10BE20005830A2F8540042F8501F01201072704799
:10BE3000DC49096881F85B007047DA48006890F9CE
:10BE40005B007047D748006890F8220000F00100BE
:10BE50007047D448006890F82200C0F34000704753
:10BE600000207047CF48006890F82200C0F3C0005F
:10BE7000704701207047012070470120704770B55E
:10BE800000F0BDFBC74C2068C16D491CC16590F82E
:10BE90003300002530B106F05DFB05F07DFE206823
:10BEA00080F833502068457090F8371009B10220AF
:10BEB0001AE090F86010B1B1C06D814213D8022031
:10BEC00007F02EFB206890F82200C00704D0A0687D
:10BED00043220188012003E043224FF6FF71002036
:10BEE000BDE870403DE50020BDE8704007F018BB9C
:10BEF00010B501280DD002280DD004280FD0FFDF87
:10BF0000A848006890F85A10BDE81040252005F0B8
:10BF1000CFBF252000E0262006F097F8F0E7272085
:10BF2000FAE702460020D30701D0CB0705D09307DC
:10BF300005D58B0703D402207047012070475207B4
:10BF4000FCD54907FAD4042070472DE9F041954CFF
:10BF5000206800B9FFDF20684178D1BB0178FF2954
:10BF600038D0002580F83150A0F85650857080F800
:10BF70003750284606F050FA05F0A6FF206890F9E1
:10BF80005B0006F052F8884806F055F88648C01E57
:10BF900006F02DFA606806F042FA2068002190F859
:10BFA0002400FFF7BEFFFFF7A3FF206880F82C50A6
:10BFB00006F02CFA206890F85A10002006F0CEF80F
:10BFC0000F21052006F008F8206890F82E1051B9CE
:10BFD00002E0FFE70C2037E690F82F1019B990F82F
:10BFE000220040072BD504F08BF98046206841469B
:10BFF000806804F0A1FE6D4F064690FBF7F007FB4A
:10C0000010604142404603F07CFE2168886096FB48
:10C01000F7F04A68104448600AF0A4FA21684A68B8
:10C0200090420CD8C1E901580120FFF7D0FD2068EB
:10C0300090F82200400702D50120FFF7A5FD2068F7
:10C04000417B0E3005F0BCFF206890F8581039B1E4
:10C05000B0F85410A0F84410016D016480F85850F5
:10C0600090F8591031B1B0F84C108187816C816320
:10C0700080F859500AF0E3FA032160680AF016FBD1
:10C08000216881F833000020DEE54649886070476A
:10C090002DE9F041434C0746002620683146C57E15
:10C0A0006068068000F0A2FA2068408C132837D020
:10C0B00004DC102858D0122804D153E0152838D0B9
:10C0C0001D2836D0FFDF00BF00F0A4FA2068418CA5
:10C0D0001D2907D0152905D0B0F84420016C6068EF
:10C0E0000AF020FF206890F82C1090F82400FFF749
:10C0F00018FF05463FB1FFF7FBFE01224FF4967192
:10C10000002006F0EBF8206890F82C10294380F806
:10C110002C1090F824208A434FF0010129D02DE003
:10C12000002160680AF0BCFE0121606800F05EFA40
:10C13000CAE7012160680AF0B3FE0121606800F0DF
:10C1400055FAD4E9001025B11C310AF0D5FE0121C1
:10C1500004E015310AF0D0FE2068017D60680AF025
:10C16000DAFEB1E7062100E0022160680AF098FEDD
:10C17000AAE7428C1D2A0BD080F831104170418C07
:10C18000132915D007DC10290AD0122907D10FE096
:10C1900080F82C60F2E715290AD01D2908D0FFDFAE
:10C1A00052E500005C0000200B89010040420F00B6
:10C1B00090F85A20BDE8F0410121084606F007BA80
:10C1C000FA4810B50068417841B90078FF2805D0D9
:10C1D0000021084600F02CFA002010BD00F00FFAF4
:10C1E0000C2010BD10B5F14C206890F82200C0075B
:10C1F00004D0A0683C220188012003E03C224FF6D5
:10C20000FF710020FFF7ADFB2168012081F83700A6
:10C2100010BDE649096881F83200704770B5002505
:10C2200007F0E3F850B1E14C20684178012908D0CB
:10C23000022901D0032936D0FFDF70BDBDE8704070
:10C240001DE681780029F8D1418C102913D090F88F
:10C25000330020B105F092FC402006F068F9206818
:10C2600090F82210490710D490F83510012904D015
:10C27000032902D002E0002119E0102590F85A208D
:10C2800045F00E01002006F0A2F9206890F8340075
:10C2900008B106F079F90021962006F0ECF8216843
:10C2A0000220487070BD81780029FBD18178BDE8FB
:10C2B0007040012000F0BCB9E1E510B5BB4C20682E
:10C2C00090F8340008B100F0C6F9206890F8330007
:10C2D00018B106F03FF905F05FFC07F086F888B169
:10C2E00020684078022800D0FFDF0021012000F004
:10C2F0009FF920684178002903D04078012800D0B8
:10C30000FFDF10BDBDE81040B9E510B50AF02EF909
:10C3100004460AF0E0F938B120460AF0B5F818B141
:10C3200010210AF068FB08B1002010BD012010BDEB
:10C330002DE9F0419D4C05460F46206890F86200BB
:10C3400000B1FFDF2168002681F864602888A1F829
:10C3500066006888A1F87C00A888A1F87E00E888BB
:10C36000A1F8800095F84C0181F8820091F82F0027
:10C3700020B1487B0E3100F02EF940B9216891F8C8
:10C38000300060B1487B0E3100F01CF938B12068F4
:10C39000D0F80E100167418AA0F8741003E02068FD
:10C3A0000667A0F874606168FF2F0878C0F38010FA
:10C3B0006876D1F80300C5F81A00B1F80710E983D0
:10C3C00014D0216801F16A02C1F87600E88BA1F867
:10C3D0007A00384669310AF0DEF800B9FFDF2068DC
:10C3E00010F8691F41F0020101702DE42068C0F8C7
:10C3F0007660A0F87A60697E80F86910D5F81A1026
:10C4000040F86A1FE98B81801EE42DE9F047DFF8D0
:10C410009C910E460746032809D0FFF713FD0446FA
:10C42000D9F8000090F8320020B1012003E0FFF7B6
:10C4300010FD04460020804605F0F9FD0546032F57
:10C440002BD0012734EA080453D0D9F800004C4619
:10C4500090F8330068B10AF0D8F830700146FF2830
:10C4600007D06068C01C0AF0ADF830780AF0D7F841
:10C47000054360680178C1F3801221680B7D9A4200
:10C4800005D10622C01C15310BF06EFF38B100201B
:10C490003178FF290BD0D8B903E00227D2E7012079
:10C4A000F6E7206890F82D00884211D008E038B1F6
:10C4B000616811F8030BC0F38010FFF726FF38B155
:10C4C0000020216891F82210490703D5A0B910E097
:10C4D0000120F6E785B9364890F8350008B1B84232
:10C4E00007D1616811F8030BC0F38010FFF70DFF4F
:10C4F00010B10020BDE8F0870120FBE72DE9F041F5
:10C500002A4C0746002520684078022800D0FFDF2B
:10C51000206890F8340008B100F09DF860680AF0D7
:10C52000E1FC06469FB160680AF01CFD78B105F099
:10C530004FFD60B1062E0AD2DFE806F009090903B3
:10C54000090600F0CAF801E000F094F800B90125EE
:10C55000206890F8330018B105F0FCFF05F01CFBD3
:10C560001DB10021012000F063F820684178002906
:10C5700006D04178012903D04078032800D0FFDF9E
:10C5800029E570B5094E05460C46306880780028CC
:10C590000BD105F055FC03463068214690F85A202F
:10C5A0002846BDE8704007F0B8B970BD5C000020B7
:10C5B000C0040020022803D0032801D000207047C7
:10C5C00001207047012802D14879800901D000205C
:10C5D000704701207047012806D148790121B1EB4D
:10C5E000901F01D10120704700207047027820235E
:10C5F00022F0200203EA41110A430270704710B58D
:10C6000005F088FF05F067FF05F0BCFEBDE81040AF
:10C6100005F0F3BE10B57A4C784960680AF066FC04
:10C6200076480E38417B6068BDE810400AF06ABC6D
:10C63000734A10B5126892F8313033B1508C1D280E
:10C6400000D1FFDFBDE8104019E4002902D1BDE8A8
:10C6500010401DE510BD10B5694C2068363005F05E
:10C660009EFF18B921687F2081F83600BDE8104090
:10C6700005F080BF38B5FF208DF800000125694620
:10C680000520FFF7C2FE28B35D4C2068807800BB10
:10C690006268A0681278417BC2F340121140417376
:10C6A000012100F048F89DF80010A068FFF740FE57
:10C6B0002068012100F8621F827881880120FFF73D
:10C6C00050F9216800204870FFF799FF012006F01B
:10C6D00027FF00E00025284638BD38B5FF208DF83B
:10C6E0000000012569460320FFF78FFE444C002817
:10C6F00020681BD090F8341031B190F8920018B92E
:10C700009DF8000000F046F86068002101800421D7
:10C710000AF0C6FBFFF77EFF2068828F816B60689E
:10C720000AF010FC21680320487002E0807800B90C
:10C730000025284638BD324B10B55A6852F80F4FC5
:10C74000C0F80E409488448294790475D479447575
:10C750001489C4825489448094898480D489C48093
:10C7600014698460147D0473547D04F01F040476FE
:10C77000527D520980F84C2180F8341080F8351031
:10C78000196891F8612080F8362091F85B1080F8E4
:10C79000371010BD70B51A4C0122216881F8922023
:10C7A0000A7881F89320FF280DD001F19502943189
:10C7B00009F0F1FE00B9FFDF206810F8941F41F086
:10C7C000020101700CE060680278C2F3801281F807
:10C7D0009420D0F8032041F8952FB0F80700888006
:10C7E000256895F836009B357F2800D1FFDF20684B
:10C7F00010F8361F29707F210170D6E6CE04002084
:10C800005C0000202DE9FC470C460646694600F016
:10C81000CEFD002860D1FFF714F9B0425CD021466C
:10C82000304608F072FA28BB019D95F8EC003835C7
:10C8300018B9E87E08B1012000E00020814695F893
:10C8400037004FF000084FF0010AA0B195F838000A
:10C85000800710D584F8018084F800A084F8028055
:10C86000A68095F83910A171698F2181A98F618106
:10C8700085F837802DE0304601F044FD070000D1F7
:10C88000FFDF384600F072FF40B184F801800D21CF
:10C890002170A680E08084F802A01AE0304601F002
:10C8A0001FFD070000D1FFDFB9F1000F14D038469B
:10C8B00000F0B3FF80B1304606F037F984F801800C
:10C8C0000A21217084F80280A680297FA17185F851
:10C8D0001B800120BDE8FC870020FBE71CB56946F2
:10C8E00000F065FD00B1FFDF684600F071FDFC4916
:10C8F00000208968A1F8B2001CBD2DE9FC41044666
:10C900000E46062001F066FB00250746A8460644B1
:10C9100017E02088401C80B22080B04202D34046FD
:10C92000A4F8008080B2B84204D3B04202D2002002
:10C93000BDE8FC81694600F03AFD0028F8D06D1C86
:10C94000EDB2AE42E5D84FF6FF7020801220EFE73F
:10C9500010B506F05BF909F044FDE2484FF6FF71AF
:10C960000422418181810021017003218170C27004
:10C970001B228280C280018110BD70B5D84C0D464B
:10C980006060217006F0CFF800F02EFDFFF7E0FFA9
:10C99000207808F0E9FF284606F038FED14828380C
:10C9A000FFF77FF82178606808F071FABDE8704001
:10C9B00009F017BD10B501240AB1002010BD21B146
:10C9C000012903D00024204610BD02210AF0FAFA02
:10C9D000F9E72DE9F041040000D1FFDFC148022151
:10C9E0000C308046FFF789FF00B1FFDFBD4D062008
:10C9F000AF8901F0EFFA0646A889B04217D1204668
:10CA0000FEF7C4FFD0B12078132814D1A07890B1DC
:10CA1000A088062101F032FB68B1008806F085F895
:10CA2000A088062101F03CFB28B1FFDF03E021468E
:10CA3000FFF7E8FE10B10120BDE8F0810221404679
:10CA4000FFF75BFF10B9A889B842D5D10020F3E702
:10CA500010B500F08DFC08B10C2010BD09F0FBFCF6
:10CA6000002010BD10B50446007818B1012801D08F
:10CA7000122010BD00F087FC20B109F063FD08B161
:10CA80000C2010BD207800F05DFCE21D04F11703BE
:10CA9000611CBDE8104009F001BD10B5044600F06E
:10CAA00067FC08B10C2010BD207818B1012801D016
:10CAB000122010BD00F046FC611C09F0A6FC08B174
:10CAC000002010BD072010BD10B509F03FFD08B1D2
:10CAD000002010BD302010BD10B5044600F053FCFE
:10CAE00008B10C2010BD204609F028FD002010BD23
:10CAF00010B500F048FC20B109F024FD08B10C206D
:10CB000010BD09F00DFD002010BDFF2181704FF612
:10CB1000FF718180724949680A7882718A8802812E
:10CB20004988418101214170002070471CB50024D3
:10CB300012F1080F15D00CDC12F1280F11D012F1F0
:10CB4000140F0ED012F1100F0BD012F10C0F0CD1EC
:10CB500007E012F1040F04D01AB1032A01D0042A0D
:10CB600003D1012804D0032806D0122420461CBD7E
:10CB70001046FFF75DF9F9E708461446694600F0EC
:10CB800016FC08B10224F1E7019880F83740002430
:10CB9000ECE710B51346012209F049FF002010BD53
:10CBA00010B5044600F0EFFB08B10C2010BD214683
:10CBB000002006F02CF8002010BD10B5044606F049
:10CBC000D7FE20B1207806F048FD002010BD0C20D3
:10CBD00010BD10B5044600F0D6FB08B10C2010BD06
:10CBE0002146012006F013F8002010BD38B5044698
:10CBF0004FF6FF70ADF80000A079E179884216D0B9
:10CC00002079FEF716FB90B16079FEF712FB70B148
:10CC10000022A07911460AF033FE40B90022E079E3
:10CC200011460AF02DFE10B9207A072801D91220EA
:10CC300038BD06F0A9FE48B900216846FFF75DFE41
:10CC400020B1204605F00DF9002038BD0C2038BD7C
:10CC50002DE9FC41817804461A2925D00EDC1629DD
:10CC60002DD2DFE801F02C2C2C2C2C212C2C2C2C60
:10CC70002C2C2C2C2C2C2C2C2C2121212A291ED084
:10CC80000BDCA1F11E010C2919D2DFE801F0181804
:10CC90001818181818181818180D3A3904290ED22F
:10CCA000DFE801F00D020D022088B0F5706F06D2AA
:10CCB0000127694600F07BFB18B1022038E61220FC
:10CCC00036E6019D68462E4605F5A87506F2511612
:10CCD00000F060FB08B1287830B10C2028E6000095
:10CCE00068000020840500202F70A078307068460E
:10CCF00000F06EFB00201BE61CB50C46694600F0F8
:10CD000056FB002118B12160217102201CBD019841
:10CD10000246383080F8401093682360137B2371FB
:10CD200090F84030002BF5D100201CBD10B5044612
:10CD300000F029FB20B109F005FC08B10C2010BD62
:10CD4000207800F0FFFAE279611C09F0D0FC08B10C
:10CD5000002010BD022010BD887800B90320C978DA
:10CD600001B9032110701970002070471FB50446E7
:10CD7000008801A900F01BFB002806D1A08830B173
:10CD8000012804D0022802D0122004B010BD6B4646
:10CD900003AA214601A8FFF7DFFF0028F5D1029A78
:10CDA000012182F87B11029A92F8AE213AB9029AD7
:10CDB00092F87A211AB9029A92F85D200AB13A20C3
:10CDC0000CE0029A82F87A11029A9DF80C1082F80F
:10CDD0007C11029A9DF8001082F87D11029A0021C0
:10CDE00082F87B11D1E710B504460020A17801B983
:10CDF0000120E2780AB940F0020000F009FB0028A7
:10CE000003D12046BDE81040B0E710BDF0B544881E
:10CE10008188C288038945898089A71F40F67B469F
:10CE2000B74215D28F1FB74212D28C4210D8B2F53A
:10CE3000FA7F0DD2A3F10A04361FB44208D2521C65
:10CE40004A43B2EB830F03DA854201D80020F0BDDC
:10CE50003020F0BDF8B515460E46044606F094FDA8
:10CE600008B10C20F8BD204600F0E2FA0028F9D104
:10CE7000A078C1064FF01100F4D5E17D0329F1D06F
:10CE8000FEF7DBFF3070A07555B9FF208DF800006C
:10CE900069460020FEF7C0FF69460020FEF7B1FF9B
:10CEA0002046BDE8F840FEF726BF0022D2E770B565
:10CEB0000C46054612B11F2907D80CE0FF2C04D8F8
:10CEC000FEF7D9FF18B11F2C01D9122070BD2846DA
:10CED000FEF7F7FD08B1002070BD422070BD10B50F
:10CEE0000446408810B1FEF778FF78B12078618859
:10CEF00000F001026078FFF7DAFF002805D1FEF7A5
:10CF000064FF6288824203D9072010BD122010BD41
:10CF100010466168FEF780FF002010BD10B5044682
:10CF2000408810B1FEF795FF70B12078618800F05D
:10CF300001026078FFF7BBFF002804D160886168B8
:10CF4000FEF75FFF002010BD122010BD7CB5044627
:10CF500040784225012808D8A078FEF7B2FD20B11C
:10CF600020781225012802D090B128467CBDFEF71A
:10CF700079FF20B1A0880028F7D08028F5D8FEF7E7
:10CF800078FF60B160780028EFD02078012808D0C1
:10CF900005F0B8FE044606F00FFB002864D00C2014
:10CFA0007CBDFEF7CFFD10B9FEF75AFF60B306F067
:10CFB000EBFC0028F3D1FEF744FDA0F57F41FF39DB
:10CFC000EDD1FEF743FEA68842F210704643A079E9
:10CFD000FEF70AFFFEF736FFC0B10022062101A8C6
:10CFE00001F01EF8040018D0F748032184602046A1
:10CFF00009F060FC2046FFF748F8FEF73CFFF34DD0
:10D0000068B1288901210EE012207CBD3146002044
:10D0100006F026FB38B3FFDF30E009207CBDFEF7C9
:10D020002CFF0146288906F0B5FB0146A0620022CC
:10D03000204605F06AFEFEF71EFF08B9FEF71DFF49
:10D04000E8780090AB78EA88A988208801F0D1F8C8
:10D0500000B1FFDF208805F067FD3146204606F06D
:10D06000FFFA00B1FFDF09E044B1208805F05DFD63
:10D070002088062101F014F800B1FFDF00207CBDFC
:10D08000002163E770B50D46062100F0F7FF0400AC
:10D0900003D094F8530110B10AE0022070BD94F857
:10D0A0004500142801D0152802D194F8940108B144
:10D0B0000C2070BD1022294604F5AA700BF080F9EF
:10D0C000012084F85301002070BD10B5062100F046
:10D0D000D5FF18B190F8531111B107E0022010BD2F
:10D0E00090F84510142903D0152901D00C2010BD4B
:10D0F000022180F85311002010BD2DE9FC410D469E
:10D100004BF680321221954213D895B1694600F052
:10D110004EF900280CD1019EB41C383627882A46C7
:10D120003946304609F087FB2088B842F6D1002006
:10D130000DE408460BE41CB504460088694600F07F
:10D1400036F9002808D10199A378084691F82C20D7
:10D1500038319A4201D10C201CBD7F220A728A729A
:10D160000022CA72E17880F82D10217980F82E1003
:10D17000A17880F82C1010461CBD1CB50C466946E1
:10D1800000F015F9002806D1019890F8530000B17D
:10D190000120207000201CBD7CB50D461446694658
:10D1A00000F005F9002805D1019890F82C0001281D
:10D1B00001D00C207CBD019890F84010297090F8A7
:10D1C0004100207000207CBD70B50D46164606213A
:10D1D00000F054FF18B381880124C388428804EB0F
:10D1E0004104AC4217D842F210746343A410624366
:10D1F000B3FBF2F2521E94B24FF4FA72944200D989
:10D200001446A54200D22C46491C641CB4FBF1F222
:10D210004A43521E91B290F880211AB901E00220CF
:10D2200070BD01843180002070BD10B50C46062110
:10D2300000F024FF48B180F8BF4024B190F8BD1041
:10D2400009B106F0BEFA002010BD022010BD017821
:10D2500099B1417889B141881B290ED381881B2956
:10D260000BD3C188022908D358490268283941F8EC
:10D270002A2F40684860002070471220704710B580
:10D2800006F05AFA002010BD10B506F058FA00203A
:10D2900010BD70B515460A46064600240121104609
:10D2A00006F078FA002800D9044601213046653C92
:10D2B00000F04FF806460121002000F04AF831182E
:10D2C000012096318C4206D901F19600611AB1FB1A
:10D2D000F0F0401C80B22880002070BD10B50446DC
:10D2E00000F051F808B10C2010BD601C09F0ECF9F9
:10D2F000207800F00100FEF742FC002010BD10B5C0
:10D300000446062000F058FE08B10C2010BD20781D
:10D31000C00711D00022607811460AF0B1FA08B1B6
:10D32000122010BDA06808F006F96078D4F8041047
:10D3300008F00AF9002010BD002008F0FCF80021D8
:10D340000846F5E718B1022801D0012070470020F7
:10D35000704710B5012904D0022905D0FFDF20460F
:10D3600010BDC000503001E080002C3084B2F6E7E0
:10D3700010B506F009FB20B1FEF7DCFB08B1012077
:10D3800010BD002010BD10B506F0FEFA002800D038
:10D39000012010BD416891F8EC0091F8531021B9BB
:10D3A00018B1042801D0012070470020704710B543
:10D3B0000C46062100F062FE606018B1012020706A
:10D3C000002010BD022010BD680000208405002050
:10D3D000416891F8BD20002A05D0002281F8BD20C7
:10D3E000406806F0EEB9704708B54FF6FF70ADF82B
:10D3F000000006E00621BDF8000000F051FE00B17B
:10D40000FFDF00216846FFF778FA0028F2D008BD58
:10D4100070B514460546012200F055F8002806D1E3
:10D4200021462846BDE87040002200F04CB870BD8F
:10D4300038B504460078EF2841D86088ADF8000080
:10D44000009800F04DF888B36188080708D4D4E943
:10D450000120824233D8202A31D3B0F5804F2ED814
:10D46000207B18B307282AD8607B28B1012803D075
:10D47000022801D0032822D14A0703D4022801D070
:10D48000032805D1A07B08B1012818D1480707D48B
:10D49000607D28B1012803D0022801D003280ED1D5
:10D4A000C806E07D03D5012809D104E007E0012882
:10D4B00001D0032803D1E07E18B1012801D0122049
:10D4C00038BD002038BD0AB1012200E0022202422C
:10D4D00002D1880802D109B100207047112070479D
:10D4E00080B2C1060BD401071CD481064FEAC0717B
:10D4F00001D5B9B900E099B1800713D410E0410615
:10D5000010D481060ED4C1074FEA807104D00029DF
:10D5100002DB400704D405E0010703D4400701D42F
:10D52000012070470020704730B5058825F400447D
:10D5300021448CB24FF4004194420AD2121B92B2A1
:10D540001B339A4201D2A94307E005F4004121436D
:10D5500003E0A21A92B2A9431143018030BD0844EE
:10D56000083050434A31084480B2704770B51D46B8
:10D5700016460B46044629463046049AFFF7EFFF4D
:10D580000646B34200D2FFDF282120460AF0B9FF49
:10D590004FF6FF70A082283EB0B265776080B0F58C
:10D5A000004F00D9FFDF618805F13C00814200D2C5
:10D5B000FFDF60880835401B343880B220801B288C
:10D5C00000D21B2020800020A07770BD816188617F
:10D5D00070472DE9F05F0D46C188044600F1280927
:10D5E000008921F4004620F4004800F062FB10B1ED
:10D5F0000020BDE8F09F4FF0000A4FF0010BB0454E
:10D600000CD9617FA8EB0600401A0838854219DC66
:10D6100009EB06000021058041801AE06088617FE7
:10D62000801B471A083F0DD41B2F00DAFFDFBD42D5
:10D6300001DC294600E0B9B2681A0204120C04D0D9
:10D64000424502DD84F817A0D2E709EB060001800D
:10D65000428084F817B0CCE770B5044600F1280288
:10D66000C088E37D20F400402BB110440288438839
:10D6700013448B4201D2002070BD00258A4202D3A0
:10D680000180458008E0891A0904090C418003D013
:10D69000A01D00F01EFB08E0637F008808331844DB
:10D6A00081B26288A01DFFF73FFFE575012070BDC4
:10D6B00070B5034600F12804C588808820F4004630
:10D6C0002644A84202D10020188270BD988935886E
:10D6D000A84206D3401B75882D1A2044ADB2C01E47
:10D6E00005E02C1AA5B25C7F20443044401D0C8814
:10D6F000AC4200D90D809C8924B1002414700988A3
:10D70000198270BD0124F9E770B5044600F12801C3
:10D71000808820F400404518208A002825D0A1895F
:10D72000084480B2A08129886A881144814200D2CD
:10D73000FFDF2888698800260844A189884212D121
:10D74000A069807F2871698819B1201D00F0C1FA95
:10D7500008E0637F28880833184481B26288201D5E
:10D76000FFF7E2FEA6812682012070BD2DE9F0417F
:10D77000418987880026044600F12805B94218D05F
:10D7800004F10A0821F400402844418819B14046B8
:10D7900000F09FFA08E0637F00880833184481B2E4
:10D7A00062884046FFF7C0FE761C6189B6B2B94276
:10D7B000E8D13046BDE8F0812DE9F04104460B4642
:10D7C00027892830A68827F40041B4F80A8001444C
:10D7D0000D46B74201D10020ECE70AB1481D1060A8
:10D7E00023B1627F691D18460AF0EAFD2E88698818
:10D7F00004F1080021B18A1996B200F06AFA06E035
:10D80000637F62880833991989B2FFF78DFE474517
:10D8100001D1208960813046CCE78188C08881426F
:10D8200001D1012070470020704701898088814222
:10D8300001D1012070470020704770B58588C388EA
:10D8400000F1280425F4004223F4004114449D42D1
:10D850001AD08389058A5E1925886388EC18A64248
:10D8600014D313B18B4211D30EE0437F08325C19FD
:10D870002244408892B2801A80B22333984201D267
:10D8800011B103E08A4201D1002070BD012070BDBA
:10D890002DE9F0478846C1880446008921F40046F6
:10D8A00004F1280720F4004507EB060900F001FA0F
:10D8B000002178BBB54204D9627FA81B801A0025DD
:10D8C00003E06088627F801B801A083823D4E289D5
:10D8D00062B1B9F80020B9F802303BB1E81A2177FB
:10D8E000404518DBE0893844801A09E0801A217726
:10D8F00040450ADB607FE189083030443944084400
:10D90000C01EA4F81280BDE8F087454503DB012066
:10D910002077E7E7FFE761820020F4E72DE9F74F82
:10D92000044600F12805C088884620F4004A608A31
:10D9300005EB0A0608B1404502D20020BDE8FE8F83
:10D94000E08978B13788B6F8029007EB0901884280
:10D9500000D0FFDF207F4FF0000B50EA090106D016
:10D9600088B33BE00027A07FB9463071F2E7E18938
:10D9700059B1607F2944083050440844B4F81F105E
:10D9800020F8031D94F821108170E28907EB08004C
:10D9900002EB0801E1813080A6F802B002985F46F0
:10D9A00050B1637F30880833184481B26288A01D6B
:10D9B000FFF7BAFDE78121E0607FE189083050443C
:10D9C000294408442DE0FFE7E089B4F81F102844FB
:10D9D000C01B20F8031D94F82110817009EB08008A
:10D9E000E28981B202EB0800E08137807180029801
:10D9F000A0B1A01D00F06DF9A4F80EB0A07F401CEE
:10DA0000A077A07D08B1E088A08284F816B000BF9E
:10DA1000A4F812B084F817B001208FE7E0892844F9
:10DA2000C01B30F8031DA4F81F10807884F8210073
:10DA3000EEE710B5818800F1280321F40044234467
:10DA4000848AC288A14212D0914210D0818971B9D2
:10DA5000826972B11046FFF7E8FE50B9108928328A
:10DA600020F40040104419790079884201D1002047
:10DA700010BD184610BD00F12803407F083008444F
:10DA8000C01E1060088808B9DB1E1360088849882A
:10DA9000084480B270472DE9F04100F12806407F2C
:10DAA0001C4608309046431808884D88069ADB1EAD
:10DAB000A0B1C01C80B2904214D9801AA04200DBF1
:10DAC000204687B298183A4641460AF04DFC002895
:10DAD00016D1E01B84B2B844002005E0ED1CADB2C5
:10DAE000F61EE8E7101A80B20119A94206D83044A0
:10DAF00022464146BDE8F0410AF036BC4FF0FF3007
:10DB000058E62DE9F04100F12804407F1E46083018
:10DB100090464318002508884F88069ADB1E90B16E
:10DB2000C01C80B2904212D9801AB04200DB30464D
:10DB300085B299182A4640460AF042FC701B86B20C
:10DB4000A844002005E0FF1CBFB2E41EEAE7101A5B
:10DB500080B28119B94206D82118324640460AF0EF
:10DB60002FFCA81985B2284624E62DE9F04100F1E2
:10DB70002804407F1E460830904643180025088838
:10DB80004F88069ADB1E90B1C01C80B2904212D919
:10DB9000801AB04200DB304685B298182A464146CA
:10DBA0000AF00EFC701B86B2A844002005E0FF1CA2
:10DBB000BFB2E41EEAE7101A80B28119B94206D852
:10DBC0002044324641460AF0FBFBA81985B228469C
:10DBD000F0E5401D704710B5044600F12801C288E9
:10DBE000808820F400431944904206D0A28922B9CB
:10DBF000228A12B9A28A904201D1002010BD088861
:10DC0000498831B1201D00F064F8002020820120F5
:10DC100010BD637F62880833184481B2201DFFF76E
:10DC200083FCF2E70021C18101774182C1758175D2
:10DC3000704703881380C28942B1C28822F400432E
:10DC400000F128021A440A60C0897047002070471A
:10DC500010B50446808AA0F57F41FF3900D0FFDF70
:10DC6000E088A082E08900B10120A07510BD4FF6C8
:10DC7000FF71818200218175704710B50446808A4A
:10DC8000A0F57F41FF3900D1FFDFA07D28B9A08832
:10DC9000A18A884201D1002010BD012010BD8188D9
:10DCA000828A914201D1807D08B100207047012015
:10DCB000704720F4004221F400439A4207D100F457
:10DCC000004001F40041884201D00120704700204B
:10DCD000704730B5044600880D4620F40040A84245
:10DCE00000D2FFDF21884FF4004088432843208082
:10DCF00030BD70B50C00054609D0082C00D2FFDFFE
:10DD00001DB1A1B2286800F044F8201D70BD0DB10E
:10DD100000202860002070BD0021026803E0938885
:10DD20001268194489B2002AF9D100F032B870B5EE
:10DD300000260D460446082900D2FFDF206808B9F6
:10DD40001EE0044620688188A94202D001680029AB
:10DD5000F7D181880646A94201D100680DE005F19E
:10DD6000080293B20022994209D32844491B026059
:10DD700081802168096821600160206000E0002640
:10DD8000304670BD00230B608A8002680A60016023
:10DD9000704700234360021D018102607047F0B5A7
:10DDA0000F460188408815460C181E46AC4200D329
:10DDB000641B3044A84200D9FFDFA019A84200D953
:10DDC000FFDF3819F0BD2DE9F0418846064601888D
:10DDD000408815460C181F46AC4200D3641B3844DB
:10DDE000A84200D9FFDFE019A84200D9FFDF708800
:10DDF0003844708008EB0400BDE8F0812DE9F04163
:10DE0000054600881E461746841B8846BC4200D340
:10DE10003C442C8068883044B84200D9FFDFA01908
:10DE2000B84200D9FFDF68883044688008EB0400FE
:10DE3000E2E72DE9F04106881D460446701980B2DC
:10DE4000174688462080B84201D3C01B20806088D6
:10DE5000A84200D2FFDF7019B84200D9FFDF608806
:10DE6000401B608008EB0600C6E700002DE9F0418A
:10DE7000BF4D04469046A8780E46A04200D8FFDF6A
:10DE800005EB8607786A50F8240000B1FFDFB86818
:10DE9000002816D0304600F032F90146B868FFF786
:10DEA00046FF05000CD0786A072E40F8245000D3B6
:10DEB000FFDFB0484246294650F8263020469847B2
:10DEC0002846BDE8F0812DE9F84305000C46009591
:10DED00024D00026E81C20F00300A84200D0FFDF79
:10DEE000DFF88C820027314688F8007088F80140FE
:10DEF00088F8024088F8034088F8044088F8054014
:10DF000088F80640684600F003F900204246009970
:10DF1000C91C21F00301009116B10FE00126D9E7D9
:10DF200002EB80035962002106E000BFD3F824C051
:10DF30004CF82170491CC9B2A142F7D30099401C8A
:10DF400001EB8401C0B200910728E0D3481BBDE873
:10DF5000F88310B50446F3F7C2F908B1102010BDDC
:10DF60002078834A618802EB800092780EE0436A51
:10DF700053F8213043B14A1C6280A180406A50F8B6
:10DF80002100A060002010BD491C89B28A42EED851
:10DF90006180052010BD70B505460C460846F3F7B4
:10DFA0009EF908B1102070BD072D01D3072070BD68
:10DFB00025700020608070BD0EB56946FFF7EBFF4D
:10DFC00000B1FFDF6846FFF7C4FF08B100200EBDB7
:10DFD00001200EBD10B50446072800D3FFDF6448BA
:10DFE000005D10BD3EB5054600246946FFF7D3FF2E
:10DFF00018B1FFDF01E0641CE4B26846FFF7A9FF37
:10E000000028F8D02846FFF7E5FF001BC0B23EBD50
:10E0100057498978814201D9C0B27047FF207047C3
:10E020002DE9F04106291BD1514C00273B464FF604
:10E03000FF7604EB810514F801C00AE0DC19D5F87D
:10E0400024E0A4B25EF824E0BEF1000F04D05B1C13
:10E050009BB29C45F2D8344604802046B44201D19C
:10E0600000202EE7BDE8F04100E7A0F57F43FF3B2D
:10E0700001D0072901D300207047F7E6A0F57F42C1
:10E08000FF3A0BD0072909D2394A9378834205D940
:10E0900002EB8101496A51F8200070470020704767
:10E0A0002DE9F04104460D46A4F57F4143F20200FC
:10E0B000FF3902D0072D01D3072002E72C494FF08A
:10E0C00000088A78A242F8D901EB8506726A52F8F4
:10E0D0002470002FF1D0274839461C3050F82520F5
:10E0E00020469047716A284641F8248000F007F8DE
:10E0F00002463946B068FFF745FE0020E1E61D49BB
:10E10000383131F810004FF6FC71C01C08407047E0
:10E110002DE9F843164E8846054600242868C01CA1
:10E1200020F0030028602046FFF7E9FF315D4843F7
:10E13000B8F1000F01D0002200E02A6801460092E9
:10E1400032B100274FEA0D00FFF7D3FD1FB106E003
:10E1500001270020F8E706EB8401009A8A6029680D
:10E16000641C0844E4B22860072CD7D3EFE6000013
:10E17000940500202889010070B50E461D46114601
:10E1800000F0D4F804462946304600F0D8F8204480
:10E19000001D70BD2DE9F04190460D4604004FF082
:10E1A000000610D00027E01C20F00300A04200D0A1
:10E1B000FFDFDDB141460020FFF79BFD0C3000EB97
:10E1C000850617B112E00127EDE7614F04F10C005D
:10E1D000A9003C602572606000EB850020606068EB
:10E1E0000AF08FF941463868FFF783FD3046BDE8F5
:10E1F000F0812DE9FF4F564C804681B020689A4649
:10E20000934600B9FFDF2068027A424503D941688E
:10E2100051F8280020B143F2020005B0BDE8F08FAC
:10E220005146029800F082F886B258460E9900F0E6
:10E2300086F885B27019001D87B22068A14639465C
:10E240000068FFF774FD04001FD067802580294611
:10E25000201D0E9D07465A4601230095FFF786F9BB
:10E260002088314638440123029ACDF800A0FFF7F8
:10E270007DF92088C1193846FFF7A8F9D9F80000C0
:10E280004168002041F82840C7E70420C5E770B581
:10E290002F4C0546206800B9FFDF2068017AA942AB
:10E2A0000ED9426852F8251051B1002342F82530AA
:10E2B0004A880068FFF766FD216800200A7A08E0B6
:10E2C00043F2020070BD4B6853F8203033B9401C54
:10E2D000C0B28242F7D80868FFF71EFD002070BD6B
:10E2E00070B51B4E05460024306800B9FFDF30686A
:10E2F000017AA94204D9406850F8250000B1041DF4
:10E30000204670BD70B5124E05460024306800B935
:10E31000FFDF3068017AA94206D9406850F825101D
:10E3200011B131F8040B4418204670BD10B50A46EF
:10E330000121FFF714F9C01C20F0030010BD10B537
:10E340000A460121FFF70BF9C01C20F0030010BDA5
:10E350007400002070B50446C2F1100528190AF0B7
:10E360002FF815F0FF0108D0491EC9B28020605473
:10E370002046BDE870400AF0A2B870BD30B505E097
:10E380005B1EDBB2CC5CD55C6C40C454002BF7D177
:10E3900030BD10B5002409E00B78521E44EA430357
:10E3A00000F8013B11F8013BD2B2DC09002AF3D19D
:10E3B00010BD2DE9F04389B01E46DDE91079904685
:10E3C0000D00044622D002460846F949FEF7E1FB5B
:10E3D000102221463846FFF7DCFFE07B000606D519
:10E3E000F34A3946102310320846FFF7C7FF1022C0
:10E3F00039464846FFF7CDFFF87B000606D5EC4AC4
:10E400004946102310320846FFF7B8FF1021204676
:10E410000AF055F80DE0103EB6B208EB06011023E5
:10E4200022466846FFF7AAFF224628466946FEF7BD
:10E43000B0FB102EEFD818D0F2B241466846FFF775
:10E4400089FF10234A46694604A8FFF797FF102367
:10E45000224604A96846FFF791FF224628466946EE
:10E46000FEF797FB09B0BDE8F08310233A4641461A
:10E47000EAE770B59CB01E460546134620980C4648
:10E480008DF80800202219460DF1090009F098FFC7
:10E49000202221460DF1290009F092FF17A913A8A7
:10E4A000CDE90001412302AA31462846FFF781FF4A
:10E4B0001CB070BD2DE9FF4F9FB014AEDDE92D54A7
:10E4C00010AFBB49CDE90076202320311AA8FFF711
:10E4D00070FF4FF000088DF808804FF001098DF8AB
:10E4E000099054F8010FCDF80A00A088ADF80E008D
:10E4F00014F8010C1022C0F340008DF8100055F8FC
:10E50000010FCDF81100A888ADF8150015F8010C21
:10E510002C99C0F340008DF8170006A8824609F038
:10E520004FFF0AA883461022229909F049FFA0480C
:10E530003523083802AA40688DF83C80CDE9007682
:10E540000E901AA91F98FFF734FF8DF808808DF8F8
:10E5500009902068CDF80A00A088ADF80E0014F8E4
:10E56000010C1022C0F340008DF810002868CDF88F
:10E570001100A888ADF8150015F8010C2C99C0F30E
:10E5800040008DF81700504609F01AFF5846102237
:10E59000229909F015FF86483523083802AA4068F9
:10E5A0008DF83C90CDE900760E901AA92098FFF7DF
:10E5B00000FF23B0BDE8F08FF0B59BB00C460546D8
:10E5C000DDE922101E461746DDE92032D0F801C0F1
:10E5D000CDF808C0B0F805C0ADF80CC00078C0F3A5
:10E5E00040008DF80E00D1F80100CDF80F00B1F811
:10E5F0000500ADF8130008781946C0F340008DF807
:10E6000015001088ADF8160090788DF818000DF1FF
:10E610001900102209F0D4FE0DF129001022314614
:10E6200009F0CEFE0DF139001022394609F0C8FE7E
:10E6300017A913A8CDE90001412302AA21462846C3
:10E64000FFF7B7FE1BB0F0BDF0B5A3B017460D46FF
:10E6500004461E46102202A8289909F0B1FE06A819
:10E660002022394609F0ACFE0EA82022294609F0E6
:10E67000A7FE1EA91AA8CDE90001502302AA31461F
:10E6800016A8FFF796FE1698206023B0F0BDF0B5EF
:10E6900089B00446DDE90E070D463978109EC1F3B6
:10E6A00040018DF8001031789446C1F340018DF897
:10E6B00001101968CDF802109988ADF80610997903
:10E6C0008DF808100168CDF809108188ADF80D109B
:10E6D00080798DF80F0010236A46614604A8FFF781
:10E6E0004DFE2246284604A9FEF753FAD6F801004B
:10E6F0000090B6F80500ADF80400D7F80100CDF899
:10E700000600B7F80500ADF80A00002003901023BA
:10E710006A46214604A8FFF731FE2246284604A98E
:10E72000FEF737FA09B0F0BD1FB51C6800945B68AE
:10E7300001931368029352680392024608466946A1
:10E74000FEF727FA1FBD10B588B004461068049084
:10E750005068059000200690079008466A4604A974
:10E76000FEF717FABDF80000208008B010BD1FB5F5
:10E770001288ADF800201A88ADF80220002201921C
:10E7800002920392024608466946FEF702FA1FBD4E
:10E790007FB5074B14460546083B9A1C6846FFF7B1
:10E7A000E6FF224669462846FFF7CDFF7FBD000001
:10E7B0007689010070B5044600780E46012813D012
:10E7C000052802D0092813D10EE0A06861690578F8
:10E7D000042003F06DF9052D0AD0782300220420CF
:10E7E000616903F0BBF803E00420616903F060F99C
:10E7F00031462046BDE8704001F084B810B500F104
:10E800002D03C2799C78411D144064F30102C2714A
:10E81000D2070DD04A795C7922404A710A791B7976
:10E820001A400A718278C9788A4200D9817010BD75
:10E8300000224A71F5E74178012900D00C210170CE
:10E8400070472DE9F04F93B04FF0000B0C690D4667
:10E850008DF820B0097801260C2017464FF00D08DE
:10E860004FF0110A4FF008091B2975D2DFE811F0AB
:10E870001B00C20205031D035C036F03A103B60363
:10E88000F7031804600492049F04EB042905330580
:10E8900051055C05ED053006330662067E06F80676
:10E8A0001C07E506EA0614B120781D282AD0D5F801
:10E8B00008805FEA08004FD001208DF82000686AC8
:10E8C00002220D908DF824200A208DF82500A869D9
:10E8D0000A90A8880028EED098F8001091B10F296E
:10E8E00010D27DD2DFE801F07C1349DEFCFBFAF99F
:10E8F000F8F738089CF6F50002282DD124B12078CD
:10E900000C2801D00026EEE38DF82020CAE1042077
:10E91000696A03F0CDF8A8880728EED1204600F0F8
:10E92000ECFF022809D0204600F0E7FF032807D9B2
:10E93000204600F0E2FF072802D20120207004E008
:10E94000002CB8D020780128D7D198F80400C11F36
:10E950000A2902D30A2061E0C3E1A070D8F80010B0
:10E96000E162B8F80410218698F8060084F83200B5
:10E97000012028700320207044E00728BDD1002C1E
:10E9800099D020780D28B8D198F8031094F82F204A
:10E99000C1F3C000C2F3C002104201D0062000E063
:10E9A0000720890707D198F805100142D2D198F8BD
:10E9B00006100142CED194F8312098F8051020EAD3
:10E9C00002021142C6D194F8322098F80610904302
:10E9D0000142BFD198F80400C11F0A29BAD200E051
:10E9E00006E2617D81427CD8D8F800106160B8F8F9
:10E9F0000410218198F80600A072012028700E20D2
:10EA0000207003208DF82000686A0D9004F12D001D
:10EA10000990601D0A900F300B9021E12875FDE3ED
:10EA2000412891D1204600F068FF042802D1E07807
:10EA3000C00704D1204600F060FF0F2884D1A88CC5
:10EA4000D5F80C8080B24FF0400BE669FFF748FC28
:10EA5000324641465B464E46CDF80090FFF751F8EE
:10EA60000B208DF82000686A0D90E0690990002164
:10EA700008A8FFF79FFE2078042806D0A07D58B193
:10EA8000012809D003280AD048E30520207003207C
:10EA900028708DF82060CCE184F800A032E71220C5
:10EAA0002070E8E11128BCD1204600F026FF0428A0
:10EAB00002D1E078C00719D0204600F01EFF0628DA
:10EAC00005D1E078C00711D1A07D02280ED02046E4
:10EAD00008E0CBE084E070E14FE122E102E1E8E010
:10EAE00019E0AEE100F009FF11289AD1102208F1D7
:10EAF000010104F13C0009F063FC607801286ED04C
:10EB000012202070E078C00760D0A07D0028C8D017
:10EB10000128C6D05AE0112890D1204600F0EDFE21
:10EB2000082804D0204600F0E8FE132886D104F11E
:10EB30006C00102208F10101064609F041FC207822
:10EB400008280DD014202070E178C8070DD0A07DD2
:10EB500002280AD06278022A04D00328A1D035E026
:10EB60000920F0E708B1012837D1C80713D0A07DEC
:10EB700002281DD000200090D4E9062133460EA8BB
:10EB8000FFF777FC10220EA904F13C0009F0ECFB22
:10EB9000C8B1042042E7D4E90912201D8DE807001E
:10EBA00004F12C0332460EA8616BFFF770FDE9E714
:10EBB000606BC1F34401491E0068C84000F00100C9
:10EBC00040F08000D7E72078092806D185F800902A
:10EBD0008DF8209032E32870EBE30920FBE79CE1FD
:10EBE000112899D1204600F088FE0A2802D1E07849
:10EBF000C00704D1204600F080FE15288CD104F116
:10EC00003C00102208F10101064609F0D9FB2078EA
:10EC10000A2816D016202070D4E90932606B611DD5
:10EC20008DE80F0004F15C0304F16C0247310EA87B
:10EC3000FFF7C2FC10220EA9304609F095FB18B16F
:10EC4000F6E20B20207071E22046FFF7D7FDA07896
:10EC5000216A0A18C0F11001104609F030FC23E3C4
:10EC6000394608A8FFF7A6FD06463BE20228B8D1C0
:10EC7000204600F042FE042804D3204600F03DFE6A
:10EC8000082809D3204600F038FE0E2829D3204654
:10EC900000F033FE122824D2A07D0228A1D10E203C
:10ECA0008DF82000686A0D9098F801008DF8240016
:10ECB000F0E3022895D1204600F01FFE002810D076
:10ECC000204600F01AFE0128F9D0204600F015FE7B
:10ECD0000C28F4D004208DF8240098F801008DF859
:10ECE00025005EE21128FCD1002CFAD020781728EC
:10ECF000F7D16178606A022911D0002101EB41014E
:10ED0000182606EBC1011022405808F1010109F054
:10ED100057FB0420696A00F0E3FD2670F2E501214B
:10ED2000ECE70B28DDD1002CDBD020781828D8D1D7
:10ED30006078616A02281CD05FF0000000EB40029E
:10ED4000102000EBC2000958B8F801000880607874
:10ED5000616A02280FD0002000EB4002142000EB73
:10ED6000C2000958404650F8032F0A6040684860C6
:10ED700039E00120E2E70120EEE71128B1D1002CB3
:10ED8000AFD020781928ACD16178606A022912D0FE
:10ED90005FF0000101EB41011C2202EBC1011022D6
:10EDA000405808F1010109F00BFB0420696A00F0EA
:10EDB00097FD1A20B6E00121ECE7082891D1002C3C
:10EDC0008FD020781A288CD1606A98F801200178B9
:10EDD00062F347010170616AD8F8022041F8012FFF
:10EDE000B8F8060088800420696A00F079FD8EE298
:10EDF000072013E63878012894D1182204F1140072
:10EE0000796809F022FBE079C10894F82F0001EA43
:10EE1000D001E07861F30000E070217D002974D119
:10EE20002178032909D0C00725D0032028708DF848
:10EE30002090686A0D90412004E3607DA1788842AB
:10EE400001D90620EAE502262671E179204621F063
:10EE5000E001E171617A21F0F0016172A17A21F0A3
:10EE6000F001A172FFF7CAFC2E708DF82090686A3D
:10EE70000D900720E6E20420ADE6387805289DD104
:10EE80008DF82000686A0D90B8680A900720ADF8E8
:10EE900024000A988DF830B0616801602189818072
:10EEA000A17A817104202070F4E23978052985D196
:10EEB0008DF82010696A0D91391D09AE0EC986E8DA
:10EEC0000E004121ADF824108DF830B01070A88CE0
:10EED000D7F80C8080B24026A769FFF713FA4146A5
:10EEE0003A463346C846CDF80090FEF73EFE002174
:10EEF00008A8FFF75FFCE07820F03E00801CE0707F
:10EF00002078052802D00F200CE049E1A07D20B137
:10EF1000012802D0032802D002E10720C0E584F8CE
:10EF20000080EFE42070EDE4102104F15C0002F0B9
:10EF3000E0FA606BB0BBA07D18B1012801D00520BC
:10EF4000FDE006202870F7486063A063BEE23878D1
:10EF5000022894D1387908B12875B3E3A07D02283E
:10EF600002D0032805D022E0B8680028F5D06063FD
:10EF70001CE06078012806D0A07994F82E100128B2
:10EF800005D0E84806E0A17994F82E00F7E7B868C4
:10EF90000028E2D06063E078C00701D0012902D0E8
:10EFA000E04803E003E0F8680028D6D0A06306201C
:10EFB00011E68DF82090696A0D91E1784846C907FD
:10EFC00009D06178022903D1A17D29B1012903D09B
:10EFD000A17D032900D00720287031E13878052869
:10EFE000BBD1207807281ED084F800A005208DF81A
:10EFF0002000686A0D90B8680A90ADF824A08DF8DA
:10F0000030B003210170E178CA070FD0A27D022A37
:10F010001AD000210091D4E9061204F15C03401CCF
:10F02000FFF727FA67E384F80090DFE7D4E90923C4
:10F03000211D8DE80E0004F12C0304F15C02401C3C
:10F04000616BFFF724FB56E3626BC1F34401491E79
:10F050001268CA4002F0010141F08001DAE7387815
:10F060000528BDD18DF82000686A0D90B8680A9017
:10F07000ADF824A08DF830B0042100F8011B102257
:10F0800004F15C0109F09CF9002108A8FFF792FB4C
:10F090002078092801D0132044E70A2020709CE53D
:10F0A000E078C10742D0A17D012902D0022927D0F2
:10F0B00038E0617808A8012916D004F16C010091AC
:10F0C000D4E9061204F15C03001DFFF7BDFA0A2023
:10F0D000287003268DF82080686A0D90002108A80A
:10F0E000FFF768FBDDE2C3E204F15C010091D4E9C3
:10F0F000062104F16C03001DFFF7A6FA0026E9E7DC
:10F10000C0F3440114290DD24FF0006101EBB0109F
:10F110004FEAB060E0706078012801D01020BFE4B1
:10F120000620FFE6607801283FF4B8AC0A2052E5DB
:10F13000E178C90708D0A17D012903D10B202870EF
:10F1400004202FE028702DE00E2028706078616B7D
:10F15000012817D004F15C0304F16C020EA8FFF73C
:10F16000E3FA2046FFF74AFBA0780EAEC0F110018B
:10F17000304409F0A4F906208DF82000686A099649
:10F180000D909AE004F16C0304F15C020EA8FFF705
:10F19000CBFAE9E73978022903D139790029D1D0AE
:10F1A00029758FE28DF82000686A0D9058E538784F
:10F1B0000728F6D1D4E909216078012809D000BFD9
:10F1C00004F16C00CDE90002029105D104F16C0359
:10F1D00004E004F15C00F5E704F15C0304F14C0089
:10F1E0007A680646216AFFF765F96078012821D11F
:10F1F000A078216A0A18C0F11001104609F05FF9E1
:10F20000D4E90923606B04F12D018DE80F0004F1AE
:10F210005C0304F16C0231460EA800E054E2FFF7F3
:10F22000CBF910220EA904F13C0009F09DF808B1B9
:10F230000B20AFE485F800808DF82090686A0D906F
:10F240008DF824A00CE538780528AAD18DF8200087
:10F25000686A0D90B8680A90ADF824A08DF830B0B7
:10F2600080F80080617801291AD0D4E9093204F1CC
:10F270002D01A66B03920096CDE9011304F16C03F6
:10F2800004F15C0204F14C01401CFFF795F90021E8
:10F2900008A8FFF78FFA6078012805D0152041E60D
:10F2A000D4E90923611DE4E70E20287006208DF8BB
:10F2B0002000686ACDF824B00D90A0788DF8280061
:10F2C000CEE438780328C0D1E079C00770D00F2091
:10F2D0002870072066E7387804286BD11422391D7E
:10F2E00004F1140009F0B1F8616A208CA1F809005A
:10F2F000616AA078C871E179626A01F00301117254
:10F30000616A627A0A73616AA07A81F82400162021
:10F3100061E485F800A08DF82090696A50460D914F
:10F3200090E00000768901003878052842D1B8685D
:10F33000A8616178606A022901D0012100E0002102
:10F3400001EB4101142606EBC1014058082102F0EF
:10F35000D0F86178606A022901D0012100E0002123
:10F3600001EB410106EBC101425802A8E169FFF738
:10F370000FFA6078626A022801D0012000E00020C4
:10F3800000EB4001102000EBC1000223105802A93D
:10F390000932FEF7F3FF626AFD4B0EA80932A1693C
:10F3A000FFF7E5F96178606A022904D0012103E0E2
:10F3B00042E18BE0BDE0002101EB4101182606EBA4
:10F3C000C101A27840580EA908F0FAFF6178606A7E
:10F3D000022901D0012100E0002101EB410106EBEF
:10F3E000C1014058A1780844C1F1100109F067F843
:10F3F00005208DF82000686A0D90A8690A90ADF884
:10F4000024A08DF830B0062101706278616A022A6A
:10F4100001D0012200E0002202EB420206EBC20210
:10F42000401C8958102208F0CBFF002108A8FFF7E4
:10F43000C1F91220C5F818B028708DF82090686ABC
:10F440000D900B208DF824000AE43878052870D13F
:10F450008DF82000686A0D90B8680A900B20ADF80E
:10F4600024000A98072101706178626A022901D09C
:10F47000012100E0002101EB4103102101EBC30158
:10F4800051580988A0F801106178626A022902D0F7
:10F49000012101E02FE1002101EB4103142101EBE7
:10F4A000C30151580A6840F8032F4968416059E088
:10F4B0001920287001208DF8300077E6162028707A
:10F4C0008DF830B0002108A8FFF774F9032617E182
:10F4D00014202870B0E6387805282AD18DF820004D
:10F4E000686A0D90B8680A90ADF824A08DF830B025
:10F4F00080F800906278616A4E46022A01D00122AB
:10F5000000E0002202EB42021C2303EBC202401C7B
:10F510008958102208F054FF002108A8FFF74AF983
:10F52000152028708DF82060686A0D908DF8246091
:10F530003CE680E0387805287DD18DF82000686AA7
:10F540000D90B8680A90ADF82490092101706169A6
:10F55000097849084170616951F8012FC0F802200B
:10F560008988C18020781C28A8D1A1E7E078C0074D
:10F5700002D04FF0060C01E04FF0070C6078022833
:10F580000AD000BF4FF0000000EB040101F10901B7
:10F5900005D04FF0010004E04FF00100F4E74FF018
:10F5A00000000B78204413EA0C030B7010F8092FAD
:10F5B00002EA0C02027004D14FF01B0C84F800C068
:10F5C000D2B394F801C0BCF1010F00D09BB990F800
:10F5D00000C0E0465FEACC7C04D028F0010606704B
:10F5E000102606E05FEA887C05D528F00206067042
:10F5F00013262E70032694F801C0BCF1020F00D030
:10F6000092B991F800C05FEACC7804D02CF00106E2
:10F610000E70172106E05FEA8C7805D52CF0020603
:10F620000E701921217000260078D0BBCAB3C3BB6D
:10F630001C20207035E012E002E03878062841D125
:10F640001A2019E4207801283CD00C283AD0204612
:10F65000FFF7F1F809208DF82000686A0D9031E07D
:10F660003878052805D00620387003261820287021
:10F6700046E005218DF82010686A0D90B8680A9060
:10F680000220ADF8240001208DF830000A980170A6
:10F69000297D4170394608A8FFF78CF806461820E6
:10F6A0002870012E0ED02BE001208DF82000686A12
:10F6B0000D9003208DF82400287D8DF8250085F815
:10F6C00014B012E0287D80B11D2020701720287012
:10F6D0008DF82090686A0D9002208DF8240039463C
:10F6E00008A8FFF767F806460AE00CB1FE20207074
:10F6F0009DF8200020B1002108A8FFF75BF810E476
:10F7000013B03046BDE8F08F2DE9F04387B00C46CA
:10F710004E6900218DF80410012025780346022748
:10F720004FF007094FF0050C85B1012D53D0022D84
:10F7300039D1FE2030708DF80030606A05900320CA
:10F740008DF80400207E8DF8050063E02179012901
:10F7500025D002292DD0032928D0042923D1B17D19
:10F76000022920D131780D1F042D04D30A3D032D29
:10F7700001D31D2917D12189022914D38DF80470D2
:10F78000237020899DF8041088421BD2082001E0D4
:10F790006E8901008DF80000606A059057E070786E
:10F7A0000128EBD0052007B0BDE8F0831D203070A4
:10F7B000E4E771780229F5D131780C29F3D18DF87D
:10F7C0000490DDE7083402F804CB94E80B0082E8EB
:10F7D0000B000320E7E71578052DE4D18DF800C074
:10F7E000656A0595956802958DF8101094F8048067
:10F7F000B8F1010F13D0B8F1020F2DD0B8F1030FFB
:10F800001CD0B8F1040FCED1ADF804700E202870D2
:10F81000207E687000216846FEF7CCFF0CE0ADF852
:10F8200004700B202870207E002100F01F006870FB
:10F830006846FEF7BFFF37700020B4E7ADF80470EC
:10F840008DF8103085F800C0207E68702770114652
:10F850006846FEF7AFFFA6E7ADF804902B70207F57
:10F860006870607F00F00100A870A07F00F01F00AA
:10F87000E870E27F2A71C0071CD094F8200000F0E5
:10F880000700687194F8210000F00700A8710021BA
:10F890006846FEF78FFF2868F062A8883086A8794E
:10F8A00086F83200A069407870752879B0700D2014
:10F8B0003070C1E7A9716971E9E700B587B0042824
:10F8C0000CD101208DF800008DF804000020059176
:10F8D0008DF8050001466846FEF76CFF07B000BDD5
:10F8E00070B50C46054602F0E3F821462846BDE80F
:10F8F00070407823002202F031B808B100787047D8
:10F900000C20704770B50C0005784FF000010CD04A
:10F9100021702146F3F780FC69482178405D8842D8
:10F9200001D1032070BD022070BDF3F775FC0020EB
:10F9300070BD0279012A05D000220A704B78012B94
:10F9400002D003E0042070470A758A6102799300AF
:10F95000521C0271C15003207047F0B587B00F46AA
:10F9600005460124287905EB800050F8046C707876
:10F97000411E02290AD252493A46083901EB800059
:10F98000314650F8043C2846984704460CB1012CF7
:10F9900011D12879401E10F0FF00287101D00324F6
:10F9A000E0E70A208DF80000706A059000210196BA
:10F9B0006846FFF7A7FF032CD4D007B02046F0BD60
:10F9C00070B515460A46044629461046FFF7C5FF9E
:10F9D000064674B12078FE280BD1207C30B100207F
:10F9E0002870294604F10C00FFF7B7FF2046FEF708
:10F9F00022FF304670BD704770B50E4604467C212C
:10FA000008F07FFD0225012E03D0022E04D0052030
:10FA100070BD0120607000E065702046FEF70BFFAE
:10FA2000A575002070BD28B1027C1AB10A4600F10C
:10FA30000C01C5E70120704710B5044686B00420CC
:10FA400002F036F82078FE2806D000208DF800005D
:10FA500069462046FFF7E7FF06B010BD7CB50E46AD
:10FA600000218DF804104178012903D0022903D028
:10FA7000002405E0046900E044690CB1217C89B1EF
:10FA80006D4601462846FFF754FF032809D1324648
:10FA900029462046FFF794FF9DF80410002900D066
:10FAA00004207CBD04F10C05EBE730B40C460146A4
:10FAB000034A204630BC034B0C3AFEF758BE000008
:10FAC000B48901006E89010070B50D46040011D0A3
:10FAD00085B12101284608F0F2FC1022544928463D
:10FAE00008F06EFC524801210838018044804560CE
:10FAF000002070BD012070BD70B54D4E002405463C
:10FB0000083E10E07068AA7B00EB0410817B9142F4
:10FB100008D1C17BEA7B914204D10C22294608F02E
:10FB200023FC30B1641C30888442EBDB4FF0FF30A3
:10FB300070BD204670BD70B50D46060006D02DB1D3
:10FB4000FFF7DAFF002803DB401C14E0102070BD33
:10FB5000374C083C20886288411C914201D904201E
:10FB600070BD6168102201EB0010314608F028FCDE
:10FB70002088401C20802870002070BD2C48083848
:10FB8000008870472A4908390888012802D0401E99
:10FB900008800020704770B514460D0018D0BCB125
:10FBA0000021A170022802D0102811D105E0288878
:10FBB00070B10121A170108008E02846FFF79CFF7A
:10FBC000002805DB401CA070A8892080002070BDA3
:10FBD000012070BD70B5054614460E000BD0002004
:10FBE0003070A878012808D005D91149A1F1080181
:10FBF0000A8890420AD9012070BD24B1287820706B
:10FC00002888000A5070022008700FE064B149682B
:10FC1000102201EB00112046103908F0D1FB2878A2
:10FC200020732888000A607310203070002070BD97
:10FC3000800000202DE9F04190460C460746002543
:10FC4000FE48072F00EB881607D2DFE807F007070A
:10FC5000070704040400012500E0FFDF06F8147024
:10FC6000002D13D0F548803000EB880191F8270073
:10FC7000202803D006EB4000447001E081F82640C4
:10FC800006EB44022020507081F82740BDE8F08147
:10FC9000F0B51F4614460E460546202A00D1FFDF68
:10FCA000E649E648803100EB871C0CEB440001EB91
:10FCB0008702202E07D00CEB460140784B78487025
:10FCC000184620210AE092F82530407882F8250075
:10FCD000F6E701460CEB410005704078A142F8D1EF
:10FCE00092F82740202C03D00CEB4404637001E011
:10FCF00082F826300CEB41042023637082F8271031
:10FD0000F0BD30B50D46CE4B44190022181A72EBE7
:10FD1000020100D2FFDFCB48854200DDFFDFC9488A
:10FD20004042854200DAFFDFC548401C844207DAC2
:10FD3000002C01DB204630BDC148401C201830BDDE
:10FD4000BF48C043FAE710B504460168407ABE4A8E
:10FD500052F82020114450B10220084420F07F4086
:10FD6000F8F7CFFE94F90810BDE81040C9E7042069
:10FD7000F3E72DE9F047B14E803696F82D50DFF8C5
:10FD8000BC9206EB850090F8264034E009EB85171D
:10FD90004FF0070817F81400012806D004282ED0C9
:10FDA00005282ED0062800D0FFDF01F000F901461B
:10FDB00007EB4400427806EB850080F8262090F897
:10FDC0002720A24202D1202280F82720084601F0F5
:10FDD000F9F82A4621460120FFF72CFF9B484146AF
:10FDE00000EB041002682046904796F82D5006EB71
:10FDF000850090F82640202CC8D1BDE8F08702206D
:10FE000000E003208046D0E710B58C4C20218034E0
:10FE100084F8251084F8261084F82710002084F830
:10FE2000280084F82D0084F82E10411EA16044F8AB
:10FE3000100B2074607420736073A0738449E077A2
:10FE400020750870487000217C4A103C02F81100AF
:10FE5000491CC9B22029F9D30120F8F746FD00203A
:10FE6000F8F743FD012084F82200F3F737F87948CA
:10FE7000F3F749F8764CA41E20707748F3F743F85F
:10FE80006070BDE81040F8F7BDBC10B5F8F7DFFCB6
:10FE90006F4CA41E2078F3F74FF86078F3F74CF816
:10FEA000BDE8104001F0BBB8202070472DE9F34FAA
:10FEB000624C0025803404EB810A89B09AF8250051
:10FEC000202821D0691E02916049009501EB00179E
:10FED000391D03AB07C983E80700A18BADF81C10DF
:10FEE000A07F8DF81E009DF81500A046C8B102261F
:10FEF000554951F820400399A219114421F07F413E
:10FF0000019184B102210FE00120F8F7EEFC0020FE
:10FF1000F8F7EBFCF8F7B9FC01F081F884F82F5002
:10FF2000A7E00426E4E700218DF81810022801D08C
:10FF3000012820D1039801190998081A801C9DF8FE
:10FF40001C1020F07F4001B10221353181420BD2DB
:10FF500003208DF815000398C4F13201401A20F0F7
:10FF60007F40322403900CE098F8240018B901F087
:10FF7000F0F900284DD0322C03D214B101F043F82F
:10FF800001E001F04CF8324A107820B393465278E1
:10FF9000039B121B00219DF81840994601281BD095
:10FFA000032819D05FF000008DF81E00002A04DD40
:10FFB000981A039001208DF818009DF81C0000B1DC
:10FFC00002210398254A20F07F40039003AB099853
:10FFD00001F031F810B110E00120E5E79DF81D00B7
:10FFE00018B99BF80000032812D08DF81C50CDF8EA
:10FFF0000C908DF818408DF81E509DF8180058B1DF
:020000040001F9
:1000000003980123811900221846F8F7C1FC06E085
:1000100000200BB0BDE8F08F0120F8F766FC97F9DF
:100020000C20012300200199F8F7B2FCF87BC007EF
:1000300001D0F8F792FD012112E00000D407002062
:10004000FF7F841E0020A107C4890100D405002081
:10005000920000200B18010073FD0000FFFF3F001D
:1000600088F82F108AF8285020226946F74808F0AF
:10007000ECF90120CDE72DE9F05FDFF8D0830646EB
:1000800008EB860090F82550202D1FD0A8F18000A5
:100090002C4600EB8617A0F50079DFF8B4B305E035
:1000A000A24607EB4A004478202C0AD0F8F7BBFCA4
:1000B00009EB04135A4601211B1D00F0BCFF002868
:1000C000EED0AC4202D0334652461EE0E14808B1C1
:1000D000AFF30080F8F7A7FC98F82F206AB1D8F8A2
:1000E0000C20411C891A0902CA1701EB126109127E
:1000F000002902DD0020BDE8F09F3146FFF7D6FE63
:1001000008B10120F7E733462A4620210420FFF7F3
:10011000BFFDEFE72DE9F041CC4C2569F8F783FCF2
:10012000401B0002C11700EB1160001200D4FFDF7A
:1001300094F8220000B1FFDF012784F8227094F8C0
:100140002E00202800D1FFDF94F82E60202084F8B4
:100150002E00002584F82F5084F8205084F8215078
:10016000BD4825600078022833D0032831D0002014
:100170002077A068401C05D04FF0FF30A060012020
:10018000F8F7B3FB0020F8F7B0FBF8F7A7FCF8F797
:100190009FFCF8F77AFB07F00FFCB048056005609C
:1001A0004FF0E0214FF40040B846C1F88002F2F76A
:1001B000FBFD94F82D703846FFF75DFF0028FAD05C
:1001C000A248803800EB871010F81600022802D0F1
:1001D00006E00120CCE73A4631460620FFF72AFD2B
:1001E00084F8238004EB870090F82600202804D0B0
:1001F0009948801E4078F2F7A5FE207F002803D0A2
:10020000F8F75CFC2577657740E5904910B591F8E3
:100210002D200024803901EB821100BF11F8143029
:100220002BB1641CE4B2202CF8D3202010BD8C49E3
:1002300001EB041108600020C87321460120FFF77C
:10024000F9FC204610BD10B5012801D0032800D1CB
:1002500071B37E4A92F82D307C4C0022803C04EB36
:10026000831300BF13F812400CB1082010BD521CBC
:10027000D2B2202AF6D3784A48B1022807D00729FB
:1002800016D2DFE801F01506080A0C0E1000002156
:100290000AE01B2108E03A2106E0582104E077211A
:1002A00002E0962100E0B52151701070002010BDD1
:1002B000072010BD684810B54078F8F722FC80B2DE
:1002C00010BD10B5202811D2604991F82D30A1F150
:1002D000800202EB831414F810303BB191F82D30FA
:1002E00002EB831212F81020012A01D0002010BD69
:1002F00091F82D2001460020FFF79CFC012010BD45
:1003000010B5F8F790FBBDE81040F8F7FABB2DE9FF
:10031000F0410E464D4F01782025803F0C4607EBFB
:10032000831303E0254603EB45046478944202D02E
:10033000202CF7D108E0202C06D0A14206D103EBF7
:1003400041014978017007E000209FE403EB44007D
:1003500003EB450140784870424F7EB127B1002140
:1003600040F2DD30AFF300803078A04206D127B1F3
:1003700000214FF47870AFF30080357027B1002171
:1003800040F2E530AFF3008001207FE410B5426811
:100390000B689A1A1202D41702EB1462121216D4C6
:1003A000497A91B1427A82B92F4A006852F82110F5
:1003B000126819441044001D891C081A0002C11754
:1003C00000EB11600012322801DB012010BD00207B
:1003D00010BD2DE9F04781461C48214E00EB8100FD
:1003E000984690F825402020107006F500701546BC
:1003F00000EB81170BE000BF06EB04104946001D1F
:10040000FFF7C4FF28B107EB44002C704478202C80
:10041000F2D1297888F8001013E000BF06EB04152C
:10042000291D4846FFF7B2FF68B988F80040A97B4C
:1004300099F80A00814201D80020DEE407EB44006D
:100440004478202CEAD10120D7E400005408002091
:10045000FFFF3F00000000009200002000F5004078
:10046000D405002000000000C48901002DE9FC41F2
:100470000E4607460024FE4D09E000BF9DF800002F
:1004800005EB00108168384600F0E9FD01246B4659
:1004900001AA31463846FFF79CFF0028EED02046DF
:1004A000BDE8FC8170B50446F2480125A54300EB88
:1004B000841100EB8510402207F082FFEE4E26B13A
:1004C000002140F25F40AFF30080EA48803000EB4B
:1004D000850100EB8400D0F82500C1F8250026B185
:1004E000002140F26340AFF30080284670BD2DE943
:1004F000FC418446DF481546089C00EB85170E46F4
:1005000017F81400012803D0022801D00020C7E703
:100510000B46DA4A0121604600F08DFDA8B101AB1F
:100520006A4629463046FFF754FF70B1D1489DF81E
:1005300004209DF80010803000EB85068A4208D028
:100540002B460520FFF7A4FB0BE02A46214604209A
:1005500014E0202903D007EB4100407801E096F831
:10056000250007EB440148709DF80000202809D0C1
:1005700007EB400044702A4621460320FFF75AFB50
:1005800001208DE706F8254F0120F070F3E7B84908
:1005900001EB0010001DFFF7D6BB7CB51D461346CE
:1005A00004460E4600F1080221461846F8F7B6FA4E
:1005B00094F908000F2804DD1F3820722068401CC1
:1005C000206096B10220AE4951F8261046182068E6
:1005D0006946801B20F07F40206094F90800284481
:1005E000C01C1F2803DA012009E00420EBE701AA60
:1005F000F8F794FA9DF8040010B10098401C0090A0
:100600000099206831440844C01C20F07F4060609D
:100610007CBD2DE9FE430C46064609786079907250
:10062000207998461546507241B19248803090F832
:100630002E1020290AD00069401D0BE0D4E90223C6
:10064000217903B02846BDE8F043A6E78D484178FC
:10065000701D084420F07F47217900222846A368B6
:10066000FFF79BFF3946284600F0F9FCD4E9023237
:1006700021796846FFF791FF41462846019CFFF724
:10068000F5FE2B4622460021304600F0D4FC00281F
:1006900003D13146284600F0E2FCBDE8FE832DE997
:1006A000FE4F814600F097FC30B1002799F800001A
:1006B00020B10020BDE8FE8F0127F7E76D4D6E4C9D
:1006C0004FF0000A803524B1002140F2D640AFF34C
:1006D000008095F82D8085F823A0002624B1002104
:1006E00040F2DB40AFF300801FB94046FFF7DAFE6F
:1006F000804624B1002140F2E340AFF30080F8F7D8
:1007000092F943466A464946FFF783FF24B1002128
:1007100040F2E940AFF3008095F82E0020280CD07D
:1007200029690098401A0002C21700EB12600012FB
:1007300003D5684600F093FC012624B1002140F265
:10074000F340AFF3008095F823000028BBD124B11B
:10075000002140F2F940AFF30080F8F764F96B46EE
:10076000464A002100F067FC0028A3D027B9414683
:100770006846FFF77BFE064326B16846FFF7E3FABB
:10078000C9F8080024B1002140F20C50AFF30080FA
:1007900001208FE72DE9FF5F8A46814600F01BFCB0
:1007A000344C803410B39AF80000002710B10128AF
:1007B00000D0FFDF304D25B1002140F28250AFF371
:1007C00000800120A84600905FEA080604D00021BE
:1007D00040F28A50AFF30080009800F0F3FB94F8E9
:1007E0002D50002084F8230067B119E094F82E0002
:1007F0000127202800D1FFDF9AF800000028D9D077
:10080000FFDFD7E72846FFF74DFE054626B100215A
:1008100040F29450AFF3008094F823000028D3D125
:1008200026B1002140F29E50AFF30080F8F7FBF8AC
:1008300083462B4601AA5146FFF7EBFE5FEA060806
:1008400004D0002140F2A550AFF300803B462A4679
:1008500001A95846CDF80090FFF749FE064604EB83
:10086000850090F828B0B8F1000F11D000210BE0FE
:10087000D4050020D407002000000000FFFF3F0047
:10088000C48901009200002040F2AC50AFF3008018
:1008900000F08DFB0090B8F1000F04D0002140F271
:1008A000B250AFF3008094F8230000288CD1B8F147
:1008B000000F04D0002140F2BA50AFF30080FE498F
:1008C0000DF1040C01EB09109CE80E0000F104008E
:1008D00080E80E004EB35FEA080604D0002140F223
:1008E000C750AFF300803BEA070012D094F82E0007
:1008F00020280ED126B1002140F2CC50AFF3008069
:100900002846FFF7B8FB20B99AF80000D8B30128B1
:1009100049D0B8F1000F04D0002140F2E950AFF304
:100920000080284600F03CFB01265FEA080504D061
:10093000002140F2F250AFF30080009800F042FB3B
:1009400025B1002140F2F650AFF300808EB194F84B
:100950002D0004EB800090F82600202809D025B156
:10096000002140F2FD50AFF30080D4484078F2F708
:10097000E9FA25B1002140F20260AFF3008004B033
:100980003046BDE8F09FFFE7B8F1000F04D000212A
:1009900040F2D450AFF3008094F82D204946042053
:1009A000FFF748F9C0E7002E3FF40EAF002140F2F8
:1009B000DF50AFF3008007E72DE9F84FC04D8146C7
:1009C00095F82D004FF00008BE4C4FF0010B474644
:1009D00024B100214FF4C260AFF30080584600F00C
:1009E000F1FA85F8237024B1002140F21560AFF3CD
:1009F000008095F82D00FFF755FD064695F8230079
:100A000028B1002CE4D0002140F21B604BE024B15F
:100A1000002140F21F60AFF30080A948803800EB4E
:100A2000861111F81900032856D1334605EB830AC5
:100A30004A469AF82500904201D1012000E00020AA
:100A400000900AF125000021FFF761FC01460098A3
:100A5000014203D001228AF82820AF77E1B324B104
:100A6000002140F22460AFF3008032464946012065
:100A7000FFF7E0F89AF828A024B1002140F22F6097
:100A8000AFF3008000F093FA834624B1002140F2D6
:100A90003460AFF3008095F8230038B1002C97D074
:100AA00000214FF4C760AFF3008091E7BAF1000F67
:100AB00007D095F82E00202803D13046FFF7DBFA47
:100AC000E0B124B1002140F24C60AFF30080304629
:100AD00000F066FA4FF0010824B1002140F25560A1
:100AE000AFF30080584600F06DFA24B1002140F2C7
:100AF0005960AFF300804046BDE8F88F002CF1D07C
:100B0000002140F24760AFF30080E6E70020F7F7EE
:100B1000C5BE0120F7F7C2BE6848007870472DE9CE
:100B2000F041674C94F82E0020281FD194F82D60D6
:100B300004EB860797F82550202D00D1FFDF604990
:100B4000803901EB861000EB4500407807F8250F4F
:100B50000120F87084F82300294684F82E5032468C
:100B600002202234FFF766F8002020700DE42DE902
:100B7000F041514E524C012538B1012821D00228B4
:100B800079D003287DD0FFDFF0E700F03CFAFFF7D3
:100B9000C6FF207E00B1FFDF84F821500020F7F768
:100BA000A4FEA168481C04D0012300221846F7F7D0
:100BB000EFFE14F82E0F217806EB01110A680121CF
:100BC00054E0FFF7ACFF0120F7F78FFE94F8210007
:100BD00050B1A068401C07D014F82E0F217806EB06
:100BE00001110A68062141E0207EDFF8D08000274D
:100BF00008F10208012803D002281ED0FFDFB5E764
:100C0000A777F7F75BFF98F80000032801D1657715
:100C10002577607D2C4951F8200094F8201051B9B7
:100C200048B161680123091A00221846F7F7B0FE9F
:100C3000022020769AE7277698E784F8205000F083
:100C4000E2F9A07F50B198F8010061680123091A08
:100C500000221846F7F79CFE257600E0277614F868
:100C60002E0F217806EB01110A680021BDE8F04142
:100C7000104700E005E011480078BDE8F041F2F7C8
:100C800061B9FFF74CFF14F82E0F217806EB011124
:100C90000A680521EAE710B5094C94F82E002028CF
:100CA00000D1FFDF14F82E0F2178034A02EB011167
:100CB0000A6804210AE00000D4050020900000200A
:100CC0005408002000000000C4890100BDE8104065
:100CD00010477CB5E74C054694F82E00202800D13B
:100CE000FFDFA068401C00D0FFDF94F82E00E2492F
:100CF00001AA01EB0010694690F90C002844F7F7AF
:100D00000DFF9DF904000F2801DD012000E0002007
:100D1000009908446168084420F07F41A16094F87C
:100D20002100002807D002B00123BDE87040002256
:100D30001846F7F72DBE7CBD30B5D04A0B1A541CAF
:100D4000B3EB940F12D3451AB5EB940F0ED3934225
:100D500003D9101A43185B1C08E0954204D9511AB4
:100D60000844401C434201E0FFDF0023184630BD29
:100D70000123002201460220F7F70ABE0220F7F7FE
:100D8000B4BDF7F750BE2DE9FC47BA4C054694F8C0
:100D90002E00202800D1FFDF642D58D3B84A00214F
:100DA000521B71EB010052D394F82E20A04620462E
:100DB000DFF8C49290F82D7009EB0214D8F8000007
:100DC00001AA28446946F7F7A9FE9DF90400002806
:100DD00002DD0098401C0090A068009962684618E7
:100DE000B21A22F07F42B2F5800F30D208EB8702B0
:100DF000444692F82520202A0AD009EB02125268B4
:100E0000101A0002C21700EB1260001288421EDBAB
:100E1000A068401C10D0F7F706FEA168081A00026F
:100E2000C11700EB11600012022810DD0120F7F756
:100E30005CFD4FF0FF30A06020682844206026F061
:100E40007F402061012084F82300BDE8FC8700205A
:100E5000FBE72DE9F047874C074694F82D00A4F1F5
:100E6000800606EB801010F8170000B9FFDF94F839
:100E70002D50A046834C24B1002140F66D00AFF305
:100E8000008040F6790940F6820A06EB851600BF1D
:100E900016F81700012818D0042810D005280ED005
:100EA00006280CD01CB100214846AFF3008020BFBB
:100EB000002CEDD000215046AFF30080E8E72A4631
:100EC00039460120FEF7B6FEF2E74FF0010A4FF077
:100ED0000009454624B1002140F68900AFF30080A7
:100EE000504600F06FF885F8239024B1002140F6B9
:100EF0008E00AFF3008095F82D00FFF7D3FA064679
:100F000095F8230028B1002CE4D0002140F694008D
:100F10001FE024B1002140F69800AFF3008005EBFC
:100F2000860000F1270133463A462630FFF7EFF9F5
:100F300024B1002140F69C00AFF3008000F037F8A8
:100F4000824695F8230038B1002CC3D0002140F62A
:100F5000A200AFF30080BDE785F82D60012085F881
:100F60002300504600F02EF8002C04D0002140F65B
:100F7000AF00AFF30080BDE8F08730B504463D48D0
:100F80000D4690F82D003B49803901EB801010F898
:100F9000140000B9FFDF384800EB0410C57330BD02
:100FA000344981F82D00012081F82300704710B5E5
:100FB000354808B1AFF30080EFF3108000F0010076
:100FC00072B610BD10B5002804D1304808B1AFF397
:100FD000008062B610BD2E480068C005C00D10D05C
:100FE000103840B2002804DB00F1E02090F8000443
:100FF00005E000F00F0000F1E02090F8140D40092A
:1010000070470820704710B51A4C94F82400002847
:1010100004D1F7F7F7FD012084F8240010BD10B5C6
:10102000144C94F82400002804D0F7F714FE002094
:1010300084F8240010BD10B51C685B68241A181AC7
:1010400024F07F4420F07F40A14206D8B4F5800F01
:1010500003D2904201D8012010BD002010BDD0E97C
:101060000032D21A21F07F43114421F07F41C0E9C0
:101070000031704754080020D4050020FF7F841EF3
:10108000FF1FA1070000000000000000000000009A
:1010900004ED00E02DE9F041044680074FF0000523
:1010A0004FF001060CD56B480560066006F00DFB9D
:1010B00020B16948016841F48061016024F00204B4
:1010C000E0044FF0FF3705D564484660C0F8087368
:1010D00024F48054600003D56148056024F0804406
:1010E000E0050FD55F48C0F80052C0F808735E49AC
:1010F0000D60091D0D605C4A04210C32116006610F
:1011000024F48074A00409D558484660C0F8005201
:10111000C0F808735648056024F40054C4F38030C6
:10112000C4F3C031884200D0FFDF14F4404F14D024
:1011300050484660C0F808734F488660C0F80052B7
:10114000C0F808734D490D600A1D16608660C0F82E
:1011500008730D60166024F4404420050AD5484801
:1011600046608660C0F80873C0F84873454805605B
:1011700024F4006406F0FAFB4348044200D0FFDF89
:10118000BDE8F081F0B50022202501234FEA0204DA
:1011900020FA02F1C9072DD051B2002910DB00BF9F
:1011A0004FEA51174FEA870701F01F0607F1E027C2
:1011B00003FA06F6C7F88061BFF34F8FBFF36F8F56
:1011C0000CDB00BF4FEA51174FEA870701F01F06FB
:1011D00007F1E02703FA06F6C7F8806204DB01F1A5
:1011E000E02181F8004405E001F00F0101F1E02168
:1011F00081F8144D02F10102AA42C9D3F0BD10B525
:10120000224C20600846F7F714FE2068FFF742FFE3
:101210002068FFF7B7FF05F0E5FF00F01AF906F0C8
:10122000A5FB06F0F0FAF1F759FEBDE8104006F014
:1012300089B810B5154C2068FFF72CFF2068FFF720
:10124000A1FF06F093FBF7F7ACFE0020206010BD75
:101250000A207047FC1F00403C17004000C00040BF
:1012600004E50140008000400485004000D00040BB
:1012700004D5004000E0004000F0004000F50040D0
:1012800000B0004008B50040FEFF0FFD94000020B4
:1012900070B526490A680AB30022154601244B6836
:1012A0005B1C4B60092B00D34D600E7904FA06F3EA
:1012B0000E681E420FD0EFF3108212F0010272B6D8
:1012C00000D001220C689C430C6002B962B64968E8
:1012D0000160002070BD521C092AE0D3052070BDBA
:1012E0004FF0E0214FF48000C1F800027047EFF3A7
:1012F000108111F0010F72B64FF0010202FA00F2F4
:101300000A48036842EA0302026000D162B6E7E7D6
:101310000648002101604160704701218140034877
:101320000068084000D001207047000098000020AD
:101330000120810708607047012188074160002172
:10134000C0F8001118480170704717490120087053
:1013500070474FF08040D0F80001012803D01248B8
:101360000078002800D00120704710480068C007AE
:1013700000D0012070470D480C300068C00700D035
:101380000120704709481430006870470749103140
:101390000A68D20306D5096801F00301814201D130
:1013A0000120704700207047A00000200804004082
:1013B0000021017008467047014600200870704700
:1013C000EFF3108101F0010172B60278012A01D019
:1013D000012200E000220123037001B962B60AB1C4
:1013E000002070474FF400507047E9E7EFF3108199
:1013F00011F0010F72B64FF00002027000D162B618
:1014000000207047F2E700002DE9F04115460E4636
:101410000446002700F0E7F8A84215D30023412036
:101420000FE000BF94F84220A25CF25494F84210FE
:10143000491CB1FBF0F200FB12115B1C84F8421056
:10144000DBB2AB42EED3012700F0D9F83846BDE855
:10145000F081704910B5802081F800046E490020A9
:1014600081F8420081F84100433181F8420081F85F
:101470004100433181F8420081F841006748FFF79D
:1014800097FF6648401CFFF793FFF1F799FCBDE812
:10149000104000F0B4B8402070475F4800F0A3B897
:1014A0000A4601465C48AFE7402070475A4843303F
:1014B00000F099B80A46014657484330A4E7402156
:1014C00001700020704710B504465348863000F084
:1014D0008AF82070002010BD0A4601464E4810B51B
:1014E0008630FFF791FF08B1002010BD42F20700DF
:1014F00010BD70B50C460546412900D9FFDF4848AC
:101500000068103840B200F050F8C6B20D2000F06C
:101510004CF8C0B2864203D2FFDF01E0F1F798FC3D
:10152000224629463C48FFF76FFF0028F6D070BDE1
:101530002DE9F041394F002506463F1D57F825405B
:10154000204600F041F810B36D1CEDB2032DF5D329
:101550003148433000F038F8002825D02E4800F0FC
:1015600033F8002820D02C48863000F02DF80028D1
:101570001AD0F1F74BFC2948FFF722FFB0F5005FC6
:1015800000D0FFDFBDE8F0412448FFF72FBF94F8FB
:1015900041004121265414F8410F401CB0FBF1F2E8
:1015A00001FB12002070D3E751E7002804DB00F1B3
:1015B000E02090F8000405E000F00F0000F1E020CA
:1015C00090F8140D4009704710F8411F4122491C42
:1015D000B1FBF2F302FB13114078814201D10120EB
:1015E00070470020704710F8411F4078814201D3B6
:1015F000081A02E0C0F141000844C0B2704710B5BB
:101600000648FFF7DDFE002803D1BDE81040F1F7E2
:10161000E8BB10BD0DE000E084080020A40000201D
:1016200004ED00E070B5154D2878401CC4B2687810
:10163000844202D0F1F74FFC2C7070BD2DE9F041CF
:101640000E4C4FF0E02600BFF1F743FC20BF40BF37
:1016500020BF677820786070D6F80052EFF7B6FEAA
:10166000854305D1D6F8040210B92078B842EBD0F2
:10167000F1F72EFC0020BDE8F0810000B40000204E
:101680002DE9F041012528034FF0E0210026C1F8A3
:101690008001BFF34F8FBFF36F8F1F4CC4F8006101
:1016A0000C2000F02CF81D4801680268C94341F382
:1016B000001142F010020260C4F804532560491C76
:1016C00000E020BFD4F80021002AFAD019B901683F
:1016D00021F010010160124807686560C4F80853E2
:1016E000C4F800610C2000F00AF83846BDE8F0812B
:1016F00010B50446FFF7C4FF2060002010BD00288D
:1017000009DB00F01F02012191404009800000F137
:10171000E020C0F88012704700C0004010ED00E0EB
:1017200008C500402DE9F047FF4C0646FF21A068A0
:1017300000EB061211702178FF2910D04FF0080934
:1017400009EB011109EB06174158C05900F0F4F9F3
:10175000002807DDA168207801EB061108702670CB
:10176000BDE8F08794F8008045460DE0A06809EBDD
:1017700005114158C05900F0DFF9002806DCA068C7
:10178000A84600EB08100578FF2DEFD1A06800EB0C
:10179000061100EB08100D700670E1E7F0B5E24BA2
:1017A0000446002001259A680C269B780CE000BFB7
:1017B00005EB0017D75DA74204D106EB0017D759F8
:1017C0008F4204D0401CC0B28342F1D8FF20F0BD4C
:1017D00070B5FFF7D6FAD44C08252278A16805EB3E
:1017E0000212895800F0A8F9012808DD2178A068C4
:1017F00005EB01114058BDE87040FFF7B9BAFFF79B
:101800008BF9BDE87040F1F79DBB2DE9F041C64C66
:101810002578FFF7B6FAFF2D6ED04FF00808A268C2
:1018200008EB0516915900F087F90228A06801DD40
:1018300080595DE000EB051109782170022101EB70
:101840000511425C5AB1521E4254815901F5800182
:1018500021F07F4181512846FFF764FF34E00423E3
:10186000012203EB051302EB051250F803C0875C5D
:10187000BCF1000F10D0BCF5007F10D9CCF30802EA
:1018800050F806C00CEB423C2CF07F4C40F806C0F0
:10189000C3589A1A520A09E0FF2181540AE082597A
:1018A00002EB4C3222F07F42825100224254284601
:1018B000FFF738FF0C21A06801EB05114158E068E3
:1018C00050F82720384690472078FF2814D0FFF79B
:1018D00058FA2278A16808EB02124546895800F0B0
:1018E0002BF9012893DD2178A06805EB0111405800
:1018F000BDE8F041FFF73CBABDE8F081F0B51D4608
:1019000014460E460746FF2B00D3FFDFA00700D08A
:10191000FFDF8548FF210022C0E90247C57006713C
:101920000170427082701046012204E002EB001345
:10193000401CE154C0B2A842F8D3F0BD70B57A4C57
:10194000064665782079854200D3FFDFE06840F8DD
:1019500025606078401C6070284670BD2DE9FF5FEF
:101960001D468B460746FF24FFF70BFADFF8B891B8
:10197000064699F80100B84200D8FFDF00214FF079
:1019800001084FF00C0A99F80220D9F808000EE07F
:1019900008EB0113C35CFF2B0ED0BB4205D10AEB51
:1019A000011350F803C0DC450CD0491CC9B28A426F
:1019B000EED8FF2C02D00DE00C46F6E799F80310A4
:1019C0008A4203D1FF2004B0BDE8F09F1446521CA8
:1019D00089F8022008EB04110AEB0412475440F87E
:1019E00002B00421029B0022012B01EB04110CD058
:1019F00040F801204FF4007808234FF0020C4545D1
:101A000013D9E905C90D02D002E04550F2E741467D
:101A100006EB413203EB041322F07F42C250691AF5
:101A20000CEB0412490A81540BE005B9012506EBC1
:101A3000453103EB041321F07F41C1500CEB04113D
:101A4000425499F800502046FFF76CFE99F80000C8
:101A5000A84201D0FFF7BCFE3846B4E770B50C468B
:101A60000546FFF78EF9064621462846FFF796FE03
:101A70000446FF281AD02C4D082101EB0411A86858
:101A80004158304600F058F800F58050C11700EB7F
:101A9000D14040130221AA6801EB0411515C09B145
:101AA00000EB4120002800DC012070BD002070BD4B
:101AB0002DE9F04788468146FFF770FE0746FF286C
:101AC0001BD0194D2E78A8683146344605E0BC423B
:101AD00006D0264600EB06121478FF2CF7D10CE056
:101AE000FF2C0AD0A6420CD100EB01100078287020
:101AF000FF2804D0FFF76CFE03E0002030E6FFF77C
:101B00003DF941464846FFF7A9FF0123A96802466F
:101B100003EB0413FF20C854A878401EB84200D13C
:101B2000A87001EB041001E05009002001EB061140
:101B300000780870104613E6081A0002C11700EB7F
:101B4000116000127047000045480021017041708B
:101B500010218170704770B5054616460C4602206C
:101B6000F1F7EEF83E490120F61E08703D48066088
:101B70003C4808380560001F046070BD10B50220A5
:101B8000F1F7DEF836490120087000F051F83649C7
:101B90004FF40000086010BD10B5314C207888B1BA
:101BA00031494FF40000091D086000F04AF8002197
:101BB00020B1012060702D48006801E061701020A4
:101BC000A0702170BDE810400020F1F7B9B824489A
:101BD00010B5017859B12648D0F8000128B100F0BD
:101BE00030F8002800D0012010BD022010BD407840
:101BF00010BD10B5C824641EE4B2FFF7E8FF022848
:101C000003D0012800D0002010BD002CF3D1FFDF4D
:101C1000F9E7134810B5017841B100F012F818B196
:101C200012480068C0B210BD102010BD807810BDF1
:101C30000F480021C0F80011C0F80411C0F80811C5
:101C400070470B48D0F8001129B1D0F8041111B138
:101C5000D0F8080108B1002070470120704700004B
:101C6000B600002010F5004004F5014000F40040EB
:101C700000F000404948002101704170704770B584
:101C8000064614460D460120F1F75AF8444806600E
:101C9000001D0460001D056070BD2DE9F041054682
:101CA0000C463E483E4901260670091F45EA02409F
:101CB000086005F0E0FC10B9394810300460394C78
:101CC0000027C4F8047138494FF04070086065B1CE
:101CD000012D00D0FFDFC4F80072266032494FF0BA
:101CE0000070091F0860BDE8F081C4F8006226603A
:101CF000F9E72A48017871B12B4A4FF04071116021
:101D00002849D1F8042100211AB1284A12684270EA
:101D100000E0417001700020F1F712B81F4801780F
:101D200041B12048D0F80401002802D01F480068C3
:101D3000C0B270474078704770B5002828D0174867
:101D4000007800B9FFDF1748D0F8041100291FD12F
:101D50000223C0F8043316490A680C68D24342F3E0
:101D6000001244F010040C609C034FF0E025521C5C
:101D700003E000BFC5F8804220BFD0F80461002E08
:101D8000F8D01AB90A6822F010020A60C0F80833C5
:101D900070BD04490120886070470000B900002030
:101DA00008F5004000F0004008F5014000F4004054
:101DB00010ED00E038B5FE4D0024C5F80041C5F82F
:101DC0000C41C5F81041C5F80441C5F81441C5F8E7
:101DD000184105F068FC08B1C5F82841F5480068CD
:101DE000009038BD70B5F44D00246C702C7000F07C
:101DF000C8FD85F82540EC62092105F11800AC63A7
:101E000006F07FFBED49601E0860091D0860091D92
:101E10000C60091D0860091D0C60091D0860091D82
:101E20000860091D0860091D0860091D0860091D7A
:101E30000860091D0860091D0860091D086070BD63
:101E4000DF4800B5016801F00F01032905D00068E3
:101E500000F00F00042802D0FFDF012000BD0220A7
:101E600000BD10B5D44C0168A1614168E161007A00
:101E700084F82000207E50B1207FF9F7EBF9A07E96
:101E800008B1012100E00021207FF9F7D8F9607E38
:101E900000280CD0607FF9F7DDF9E07E08B1012160
:101EA00000E00021607FBDE81040F9F7C8B910BD1F
:101EB00000F06EBD10B500F06BFDBD48D0F800011C
:101EC000002800D0FFDF10BD70B5012000F03BFD01
:101ED000BC48002505600126066005F0F6FBBA4CFB
:101EE00018B1206840F48060206005F0C4FB28B180
:101EF0002068B64920F077000843206005F0D3FB46
:101F000038B1B148001D016821F47F4141F4B0515E
:101F10000160AD49AE483C31086005F0C4FBA64CF9
:101F200060B1A7490220503184F821000860AA4915
:101F3000A84808609F481030091F0860A04940F277
:101F40005B6028310860091F40F203100860081F19
:101F500006609B49032008609B48EC38066094F8B3
:101F6000211011B14FF4C02100E09C499A4A41F47C
:101F70004021943A11609749974A091F083211602D
:101F80008C490839121F1160016821F44071016009
:101F9000016841F480710160012000F0E5FC844992
:101FA0001020C1F8040384F83150E56270BD864802
:101FB0003830016821F0010141F080710160704703
:101FC0007D4A0368C2F802308088D0801172704761
:101FD000794890F825007047774A51701070704723
:101FE000F0B50546840072488B882044C0F820363E
:101FF0000B78D1F8011043EA0121C0F8001605F171
:1020000008000127704C07FA00F6FC3C52B1012A87
:1020100000D0FFDF2068304320602068AF403843A5
:102020002060F0BD2068B043F6E705F0E5BD6248EA
:1020300090F832007047624AC1781432116000682B
:102040005F4900020C3108607047252807D0262818
:1020500007D0272807D00A2807D8042206E0022143
:1020600007E01A2105E0502103E0062202EB4001BF
:10207000C9B2534A083A1160514944310860704767
:102080004D48817A012917D0022914D1417E0029B7
:1020900011D0827F0121C37F01FA02F299400A43E5
:1020A0004D4994390A6090F820004D4A002102EB16
:1020B0008000C0F810157047017EE8E730B53E4952
:1020C0008A7A012A0BD0022A47D14B7E002B44D0BA
:1020D000012A06D04B7FCA7E5AB101240AE00B7E4A
:1020E000F4E70B7F8A7E0AB1012400E0002411226C
:1020F00001E00024242210443A4A1060354A0020AE
:10210000443AC2F84C01180284F0010240EA02503D
:1021100040F0031391F82020314800EB8204C4F80A
:10212000103500EB82048A7F2F4800EBC203C3F80E
:1021300014452E4DC3F81055CB7F00EBC300C0F8FB
:1021400014451C490839C0F81015012000FA02F1A5
:102150009840014320489838016030BD2DE9F04196
:102160000E46134907460320C1F80002124C94F8AA
:10217000210010B14FF4C02000E01848164D983DE2
:102180002860304605F062FD17B1012F30D038E0ED
:1021900005F089FA10B1304600F010FC0120A07261
:1021A000A06B40F48010A0634FF4801028E0000082
:1021B000001000401811004060090020000E00408F
:1021C00010150040FC1F00403C17004088000080B4
:1021D0002C000089448000409CF50140000004046C
:1021E000006000404C85004000F001404C81004000
:1021F0000220A072A06B40F40010A0634FF4001006
:102200002860F6F7A7FC3146BDE8F04156E72DE916
:10221000F05FFA4C074603200E469346C4F80002CE
:10222000F74D95F8210010B14FF4C02100E0F549B9
:10223000DFF8D493C9F80010104605F007FDDFF869
:10224000C8834FF0010A08F1A808A7B3012F3ED0B8
:10225000FFDFEE480660EC49ED48A4310860A86B4A
:1022600040F40020A863D4F800721025C4F8085385
:102270000020C4F80002E4494FF48028091DC1F889
:10228000008004F50074FFF795FD2760C9F8008011
:10229000C4F80451E903C9F80010DE49C1F84CA0A4
